:020000040800F2
:10000000B80C022099020008352D0008332A000898
:10001000952C0008910500082D370008000000000D
:100020000000000000000000000000006D2E00082D
:10003000C305000800000000372D00086F2E0008DF
:10004000BF020008BF020008BF020008BF0200088C
:10005000BF020008BF020008BF020008BF0200087C
:10006000BF020008BF020008BF020008BF0200086C
:10007000BF020008BF020008BF020008BF0200085C
:10008000BF020008BF020008BF020008BF0200084C
:10009000BF020008BF020008BF020008BF0200083C
:1000A000BF020008BF020008BF020008BF0200082C
:1000B000BF020008BF020008BF020008BF0200081C
:1000C000BF020008BF020008BF020008BF0200080C
:1000D000BF0200081D370008BF020008BF02000869
:1000E000BF020008BF020008BF020008BF020008EC
:1000F000BF020008BF020008BF020008BF020008DC
:10010000BF020008BF020008BF020008BF020008CB
:10011000BF020008BF020008952E0008BF020008B9
:10012000BF020008BF020008BF020008BF020008AB
:10013000BF020008BF020008BF020008BF0200089B
:10014000BF020008BF020008BF020008BF0200088B
:10015000BF020008BF020008BF020008BF0200087B
:10016000BF020008BF020008BF020008BF0200086B
:10017000BF020008BF020008BF0200080000000024
:10018000BF020008BF020008BF020008BF0200084B
:10019000BF020008BF020008BF020008BF0200083B
:1001A000BF020008BF020008BF020008BF0200082B
:1001B000BF020008BF020008BF020008BF0200081B
:1001C000BF020008BF02000800000000BF020008D4
:1001D000BF020008BF020008BF020008BF020008FB
:1001E000BF020008BF020008BF020008BF020008EB
:1001F000BF020008BF02000800F002F800F03CF85F
:100200000AA090E8000C82448344AAF10107DA4571
:1002100001D100F031F8AFF2090EBAE80F0013F087
:10022000010F18BFFB1A43F0010318475874000070
:1002300078740000103A24BF78C878C1FAD8520701
:1002400024BF30C830C144BF04680C607047000050
:100250000023002400250026103A28BF78C1FBD8CF
:10026000520728BF30C148BF0B6070471FB507F069
:10027000F7F91FBD10B510BD00F044F91146FFF7A6
:10028000F5FF07F059F800F076F903B4FFF7F2FF35
:1002900003BC03F069FA0000DFF83000016841F4A4
:1002A000700101600A4880470A480047FEE7FEE700
:1002B000FEE7FEE7FEE7FEE7FEE7FEE7FEE7FEE716
:1002C00005480649044A064B7047000088ED00E0E7
:1002D000792E0008F9010008B8040220B80C0220A9
:1002E000B8040220704753EA020C00F069802DE93F
:1002F000F04B4FF00006002B1FBFB3FA83F503FA53
:1003000005F424FA05F65E4012BF1643B2FA82F5F0
:1003100002FA05F4C5F120051EBF22FA05FC44EAE5
:100320000C04203556EA044C4FEA144418BF641CF0
:100330004FF000084FF00009904271EB030C39D3E5
:10034000002919BFB1FA81F701FA07F6B0FA80F770
:1003500000FA07F6C7F120071EBF20FA07FC46EA9D
:100360000C062037B6FBF4FCA7EB0507103F07F09F
:100370001F0BCBF120060CFA0BFB2CFA06F644BF40
:10038000B3460026202FA4BF5E464FF0000B5BEA69
:10039000060C08BF4FF0010B19EB0B09ABFB027CFD
:1003A00048EB0608C01B06FB02CC0BFB03CC71EB31
:1003B0000C01C1E70B46024641464846BDE8F08BBA
:1003C00013B54FF000004FF00001AFF30080BDE81F
:1003D0001C4070470FB4044910B503AA029800F0FE
:1003E00063F810BC5DF814FB0800022010B5203A39
:1003F000C0F00B80B1E81850203AA0E81850B1E8DE
:100400001850A0E81850BFF4F5AF5FEA027C24BF93
:10041000B1E81850A0E8185044BF18C918C0BDE88A
:1004200010405FEA827C24BF51F8043B40F8043B53
:1004300008BF7047D20728BF31F8023B48BF11F808
:10044000012B28BF20F8023B48BF00F8012B704762
:100450004FF0000200B5134694469646203922BF5D
:10046000A0E80C50A0E80C50B1F12001BFF4F7AFA8
:10047000090728BFA0E80C5048BF0CC05DF804EB8A
:10048000890028BF40F8042B08BF704748BF20F8F8
:10049000022B11F0804F18BF00F8012B70477047F6
:1004A0007047704770470000074B70B50D467B449E
:1004B00000F011F80446284600F020F810B14FF083
:1004C000FF3070BD204670BD4F33000001694A1CEB
:1004D00002610878704700B58FB0CDE90131002185
:1004E000059105497944CDE903101146684600F0AD
:1004F0002EF80FB000BD0000E5FFFFFF007B00F00D
:1005000080007047754600F03FF8AE46050069462A
:10051000534620F00700854618B020B5FFF7D0FEFF
:10052000BDE820404FF000064FF000074FF00008F4
:100530004FF0000B21F00701AC46ACE8C009ACE875
:10054000C009ACE8C009ACE8C0098D4670472DE988
:10055000F04106460024D6E90170F5688046304631
:1005600003E04146B847641C3046A8470028F8D14C
:100570002046BDE8F08110B50446AFF30080204668
:10058000BDE81040FFF781BE0048704758040220C4
:1005900000BFFEE710B50821064800F06BFA28B945
:1005A00005480088401C0449088002E000200249F8
:1005B000088010BD001C02402600022070477047D2
:1005C0007047704770B504461D460023B5F5804F4F
:1005D00013D154F822300C480340D1E9000640EA18
:1005E00006108E6840EA06208E8940EA06408E6931
:1005F0003043034344F8223003E06FF0704044F886
:100600002200002070BD00000000F0CF10B50246AF
:100610000023086852F820301B480340D1E9010448
:100620002043CC6820430C6920434C6920438C69EB
:100630002043CC6920430C6A20434C6A20438C6AD7
:100640002043CC6A20430C6B20438C6B20434C6BC3
:10065000204303438868082801D143F04003086819
:1006600042F82030086BB0F5801F05D1086818B13A
:1006700010680C6B20431060086818B110684C6B50
:1006800020431060002010BD8004C0FF30B5034639
:1006900014460022601C53F8202002F04042D1E9A9
:1006A000000540EA05108D6840EA05208D8940EA82
:1006B0000545088A401E45EA0055087D801E45EA2A
:1006C00000608D6928430243601C43F820201868AD
:1006D00000F48010B0F5801F07D1586820F4700234
:1006E000088A401E42EA00525A60002030BD30B5F0
:1006F0000246002300240868012816D013686FF30F
:100700000E03D1E901052843CD6828430D6928432C
:100710004D6928438D692843CD6928430D6A2843D4
:100720004D6A28430343136019E0136823F4F84328
:10073000D1E9070528434D6A2843034354686FF302
:100740000E04D1E901052843CD6828430D692843EB
:100750004D6928438D692843044313605460002089
:1007600030BD0246506940EA4100506100207047A8
:1007700018B5034600200090D1E9000420438C689E
:10078000641E40EA4410CC6840EA4420009000987F
:100790001861002018BD000070B503461546002200
:1007A0000024012D1FD09A6802F070420868401E94
:1007B0004E68761E40EA06168868401E46EA002605
:1007C000C868401E46EA0036088A401E46EA0046CF
:1007D000888A401E46EA0056087E401E46EA0060AF
:1007E00002439A6022E09A6811480240C868401E9D
:1007F0000603888A401E46EA00500243DC6804F083
:1008000070440868401E4E68761E40EA06168868E6
:10081000401E46EA0026088A401E46EA0046087E38
:10082000401E46EA006004439A60DC60002070BD10
:10083000FF0F0FFF014691F83500022803D08020FA
:10084000486501207047052081F835000868006878
:1008500020F001000A6810600020F3E7F8B50246B6
:100860000B46002100250024002000BFE4E0012603
:1008700006FA01F51E6806EA0504AC4271D15E680D
:10088000012E08D05E68022E05D05E68112E02D0BF
:100890005E68122E13D190684F000326BE40B0430D
:1008A0004F00DE68BE4030439060506801268E40A5
:1008B000B0431E79C6F300168E4030435060D068B6
:1008C0004F000326BE40B0434F009E68BE403043F9
:1008D000D0605E68022E02D05E68122E13D1CF085F
:1008E00002F1200656F827004E07F70E0F26BE40ED
:1008F000B0434F07FF0E1E69BE403043CF0802F1E0
:10090000200646F8270010684F000326BE40B0437B
:100910001E7906F003064F00BE40304310605E684B
:1009200006F08056B6F1805FA8D100BF444E36680D
:1009300046F48046424F3E603E46366806F48046A6
:10094000009600BF00BF3F4E8F0856F827008E0765
:10095000370F0F26BE40B0433B4EB24202D10026B5
:100960002EE068E0394EB24201D1012628E0384E2F
:10097000B24201D1022623E0364EB24201D1032613
:100980001EE0354EB24201D1042619E0334EB24288
:1009900001D1052614E0324EB24201D106260FE005
:1009A000304EB24201D107260AE02F4EB24201D1A9
:1009B000082605E02D4EB24201D1092600E00A26A4
:1009C0008F073F0FBE4030431E4E8F0846F827006A
:1009D000274E3068A0435E6806F48036B6F5803F47
:1009E00000D12043224E3060361D3068A0435E683F
:1009F00006F40036B6F5003F00D120431C4E361DEC
:100A00003060361D3068A0435E6806F48016B6F587
:100A1000801F00D12043164E08363060361D3068E6
:100A2000A0435E6806F40016B6F5001F00D120430F
:100A30000F4E0C363060491C1029FFF418AFF8BD7A
:100A400044380240083801400000024000040240DF
:100A500000080240000C0240001002400014024056
:100A600000180240001C0240002002400024024006
:100A7000003C0140024613690B400BB1012000E02D
:100A80000020704742690A4012B10A04826100E006
:100A9000816170470AB1816101E00B048361704795
:100AA00001480068704700001000022003480068F9
:100AB0000349097808440149086070471000022082
:100AC0001800022010B50A48006840F40070084978
:100AD00008600846006840F480700860052000F057
:100AE000ABFA0F2000F006F800F056FA002010BD17
:100AF000003C024070B504460E4800784FF47A710D
:100B0000B1FBF0F00C490968B1FBF0F5284601F0A3
:100B1000C5FB08B1012070BD102C07D20022214670
:100B2000501E00F04AFA0548046001E00120F2E797
:100B30000020F0E71800022000000220140002202C
:100B400070B504460E46154600BF94F8A000012873
:100B500001D1022070BD012084F8A00000BF022056
:100B600084F8A10005EB850101EBC50204F1380111
:100B700001EB820034223146FFF738FC2A46314629
:100B8000204601F07EFF01202168486284F8A10020
:100B900000BF002084F8A00000BF00BFDAE700001B
:100BA00070B504460CB9012070BD94F8A10028B9B5
:100BB000002084F8A000204600F07EF8022084F88F
:100BC000A1002068806920F0704021688861D4E924
:100BD00001010843E16808432169084321688969E4
:100BE000084321688861206880683249084021688C
:100BF0008860A08A050420688068A16929430843A9
:100C0000216888602068C0682A4908402168C86057
:100C1000A08B05042068C068216A29430843216825
:100C2000C860206800692349084021680861A08CD9
:100C3000050420680069A16A294308432168086106
:100C4000206840691B49084021684861A08D05045F
:100C500020684069216B294308432168486194F862
:100C60003500050294F8360006042068C06A00F0DA
:100C70007F402168C86246EA050094F834100843B2
:100C80002168C96A08432168C8622068406B40F047
:100C90000600216848632068806940F001002168EF
:100CA00088610020C4F8A400012084F8A10000207D
:100CB0007AE7000000F800F010B586B0044600BFE7
:100CC0004748006840F08060454908600846006871
:100CD00000F08060009000BF00BF00BF40481438A3
:100CE000006840F400003E49143908600846006876
:100CF00000F40000009000BF00BF00BF084600687D
:100D000040F0020008600846006800F00200009011
:100D100000BF00BF00BF0846006840F02000086028
:100D20000846006800F02000009000BF00BF00BF30
:100D30000846006840F0400008600846006800F07F
:100D40004000009000BF00BF00BF0846006840F0B0
:100D5000800008600846006800F08000009000BF36
:100D600000BF00BF0846006840F480700860084675
:100D7000006800F48070009000BF00BF2020019048
:100D80000120029003900320049001A91548FFF769
:100D900065FD4FF4806001900220029000200390D6
:100DA000032004900E20059001A90F48FFF756FD7F
:100DB0004FF40C60019001A90C48FFF74FFD4FF470
:100DC0007E40019001A90A48FFF748FD40F2F76014
:100DD000019001A90748FFF741FD06B010BD0000D2
:100DE000443802400004024000140240001802404F
:100DF000001C0240002002402DE9F04104460E464E
:100E00001746984600BF94F8A000012802D102209E
:100E1000BDE8F081012084F8A00000BF022084F822
:100E2000A10008EB880000EBC80104F1380000EBDA
:100E300081052E60A86A30446860AF60E86A384473
:100E4000E86042462946204601F01BFE0120216849
:100E5000486284F8A10000BF002084F8A00000BF11
:100E600000BFD5E72DE9F04104460E4617469846E7
:100E700000BF94F8A000012802D10220BDE8F08153
:100E8000012084F8A00000BF022084F8A10008EB34
:100E9000880000EBC80104F1380000EB81052868E8
:100EA00030446860A8683844E860AE62EF62424649
:100EB0002946204601F0E5FD01202168486284F8BA
:100EC000A10000BF002084F8A00000BF00BFD5E74C
:100ED0004178154A11600178F9B1121D416811601D
:100EE000017B0907C27A41EA0261827A41EAC24182
:100EF000427B41EA8241827B41EA4241C27B41EA34
:100F00000241427A41EA0221027A41EA4201027830
:100F10001143054A0832116005E00021024A121D02
:100F20001160121D1160704798ED00E000BF00BF16
:100F300000BFBFF35F8F00BF00BF00BF0548006860
:100F400020F48030034908600020024970310860B5
:100F50007047000024ED00E040F001010D4A1160EF
:100F60000C497039096841F480310A4A703A1160BD
:100F700000BF00BF00BFBFF34F8F00BF00BF00BF67
:100F800000BF00BF00BFBFF36F8F00BF00BF00BF37
:100F90007047000094ED00E07047014608460028C5
:100FA00009DB00F01F0301229A4043099B0003F173
:100FB000E023C3F8002100BF70472DE9F05F8046B1
:100FC0000D461646002702F0B3FB074639462A466F
:100FD000334601F00700C0F1070ABAF1040F02D945
:100FE0004FF0040A01E0C0F1070AD14600F1040AFB
:100FF000BAF1070F02D24FF0000A01E0A0F1030A94
:10100000D4464FF0010A0AFA09FAAAF1010A0AEADB
:10101000020A0AFA0CFA4FF0010B0BFA0CFBABF1C7
:10102000010B0BEA030B4AEA0B042146404602F08F
:1010300087FBBDE8F09F000000BF00F00702064BF1
:1010400019684FF6FF031940044B0B4343EA022192
:10105000014B196000BF70470CED00E00000FA057D
:1010600038B5002400BF2048006840F080501E4979
:1010700008600846006800F08050009000BF00BF84
:101080001A48006840F4803018490860FFF708FDEE
:10109000044607E0FFF704FD001BB0F57A7F01D995
:1010A000032038BD1148406800F48030B0F5803F1F
:1010B000F0D10E48006840F400300C490860FFF79A
:1010C000EFFC044607E0FFF7EBFC001BB0F57A7F6E
:1010D00001D90320E5E70548406800F40030B0F589
:1010E000003FF0D10020DCE74038024000700040B3
:1010F0002DE9F8430446002600250027A846A94606
:10110000207800F0010088B100BFFE48006820F49C
:101110000000FC49086008460068616B0843F94913
:10112000086000BF606B08B94FF00108206800F448
:101130000020B0F5002F13D1F2488430006820F46D
:101140004010E16B0843EF4984310860E06BB0F573
:10115000801F01D14FF00108E06B08B94FF0010981
:10116000206800F48010B0F5801F13D1E54884306A
:10117000006820F44000216C0843E2498431086093
:10118000206CB0F5800F01D14FF00108206C08B938
:101190004FF00109206800F08070B0F1807F01D12C
:1011A0004FF00108207800F02000202870D100BF07
:1011B000D4483830006840F08050D2493831086057
:1011C0000846006800F08050009000BF00BFCE4885
:1011D000006840F48070CC490860FFF761FC064667
:1011E00007E0FFF75DFC801B642802D90320BDE8FF
:1011F000F883C548006800F480700028F1D0C14829
:101200006830006800F4407585B3208E00F44070AB
:10121000A8422BD0BB486830006820F44075B9481C
:101220006830006840F48030B6496831086008468C
:10123000006820F48030086008460560006800F00F
:10124000010098B1FFF72CFC064608E0FFF728FCE8
:10125000801B41F28831884201D90320C7E7A948A1
:1012600068300068C0F340000028EFD000BF208E37
:1012700000F44070B0F5407F0BD1A248006820F424
:10128000F810A24A216B114008439E49086006E00D
:1012900010E09C48006820F4F8109A4908609948CA
:1012A00068300068218EC1F30B010843954968310D
:1012B000086000BF207800F01000102810D100BF97
:1012C00090488430006820F080708E498431086036
:1012D00008460068A16B08438A498431086000BF52
:1012E000208800F48040B0F5804F09D185488830CF
:1012F000006820F44030616E0843824988310860FC
:10130000208800F40040B0F5004F09D17D488830B6
:10131000006820F44020A16E08437A4988310860B3
:10132000206800F48030B0F5803F09D175488830DE
:10133000006820F44010E16E08437249883108606B
:10134000206800F40030B0F5003F09D16D488830C6
:10135000006820F44000216F08436A498831086022
:10136000207800F04000402809D1664888300068A5
:1013700020F00300616C08436249883108602078DE
:1013800000F08000802809D15E488830006820F095
:101390000C00A16C08435B4988310860208800F488
:1013A0008070B0F5807F09D156488830006820F001
:1013B0003000E16C0843534988310860208800F40C
:1013C0000070B0F5007F09D14E488830006820F0E9
:1013D000C000216D08434B4988310860208800F423
:1013E0008060B0F5806F09D146488830006820F4ED
:1013F0004070616D0843434988310860208800F4DB
:101400000060B0F5006F09D13E488830006820F4D4
:101410004060A16D08433B4988310860208800F492
:101420008050B0F5805F09D136488830006820F4DC
:101430004050E16D0843334988310860208800F44A
:101440000050B0F5005F09D12E488830006820F4C4
:101450004040216E08432B4988310860206800F421
:101460008000B0F5800F09D126488830006820F050
:101470008060A16F0843234988310860206800F428
:101480000010B0F5001F0FD11E488830006820F012
:101490000060E16F08431B4988310860E06FB0F1DC
:1014A000006F01D14FF00109207800F008000828F2
:1014B00001D14FF00109206800F48020B0F5802FA1
:1014C00009D110488830006820F04070616F0843EF
:1014D0000C4988310860206800F40000B0F5000F66
:1014E0000AD108488830006820F08050D4F8801075
:1014F0000843044988310860206800F08060B0F13A
:10150000806F05E00838024000700040FFFCFF0FCC
:1015100008D1CC48006820F00050D4F8841008436B
:10152000C8490860206800F00060B0F1006F0AD17F
:10153000C448001F006820F00070D4F888100843E9
:10154000C049091F0860206800F08050B0F1805F3A
:101550000AD1BC48001F006820F08060D4F88C10CD
:101560000843B849091F0860B8F1010F03D020688B
:10157000B0F1007F7ED1B3489038006820F08060E1
:10158000B04990390860FFF78BFA064606E0FFF78E
:1015900087FA801B642801D9032028E6A9489038DF
:1015A0000068C0F3C0600028F1D1207800F001008D
:1015B000B8B1606BA8B9A3480C380068C0F3014506
:1015C000A0480C380068C0F303676068800140EAF7
:1015D000054040EA0761207A41EA007099490C39D8
:1015E0000860206800F40020B0F5002F03D1E06B04
:1015F000B0F5801F09D0206800F48010B0F5801F7E
:1016000024D1206CB0F5800F20D18E480C380068B2
:10161000C0F301458B480C380068C0F3027760685E
:10162000800140EA0541207B41EA006040EA077002
:1016300084490C3908608348001F006820F01F00AF
:10164000616A491E08437F49091F0860206800F04D
:101650008070B0F1807F17D17A480C380068C0F3F1
:10166000036578480C380068C0F302776068810130
:10167000208A00E036E041EA004040EA056040EAA6
:10168000077070490C390860206800F00070B0F1F4
:10169000007F0DD160688101208A41EA0041207BF2
:1016A00041EA0061207A41EA007066490C3908601D
:1016B00064489038006840F0806062499039086062
:1016C000FFF7EEF9064606E0FFF7EAF9801B64280B
:1016D00001D903208BE55B4890380068C0F3C060F7
:1016E0000028F1D0B9F1010F7ED15648903800683A
:1016F00020F08050534990390860FFF7D1F9064631
:1017000006E0FFF7CDF9801B642801D903206EE5C0
:101710004C4890380068C0F340700028F1D1206830
:1017200000F40020B0F5002F01D1E06B38B1206843
:1017300000F48010B0F5801F22D1206C00BB41481E
:1017400008380068C0F301453E4808380068C0F317
:1017500002776069800140EA0541207E41EA00602D
:1017600040EA0770374908390860081D006820F40E
:10177000F851A06A401E41EA00203249091F086062
:10178000206800F40010B0F5001F19D1E06FB0F12F
:10179000006F15D12B4808380068C0F3036529484D
:1017A00008380068C0F3027760698101208C41EA43
:1017B000004040EA056040EA0770224908390860A5
:1017C000207800F00800082820D11E48083800685A
:1017D000C0F303651B4808380068C0F3014760691F
:1017E000800140EA074000E02AE040EA0561207FEE
:1017F00041EA0070134908390860081D006820F4A8
:101800004030E16A08430F49091F08600D489038CD
:10181000006840F080500B4990390860FFF740F9AC
:10182000064606E0FFF73CF9801B642801D9032037
:10183000DDE4044890380068C0F340700028F1D01F
:101840000020D4E49038024070B504460D460026CE
:101850000CB9012070BD5C48006800F00F00A84280
:101860000ED25948006820F00F00284356490860FE
:101870000846006800F00F00A84201D00120E9E707
:10188000207800F0020002281DD1207800F004002A
:10189000042805D14D48006840F4E0504B490860E9
:1018A000207800F00800082805D14848006840F476
:1018B0006040464908604548006820F0F000A16893
:1018C000084342490860207800F0010090B3606846
:1018D000012807D13D4808380068C0F34040A0B94E
:1018E0000120B7E76068022807D138480838006847
:1018F000C0F3406048B90120ACE7344808380068BC
:10190000C0F3400008B90120A4E73048006820F087
:101910000300616808432D490860FFF7C1F80646D7
:1019200009E0FFF7BDF8801B41F28831884202D9F7
:1019300003208FE707E02548006800F00C0061688D
:10194000B0EB810FEDD12048006800F00F00A842F5
:101950000ED91D48006820F00F0028431A4908607E
:101960000846006800F00F00A84201D0012071E78E
:10197000207800F00400042807D11448006820F4FF
:10198000E050E168084311490860207800F0080041
:10199000082808D10D48006820F46040216940EA19
:1019A000C1000A49086000F03FF808490968C1F31E
:1019B0000311074A515CC8400649086006480068A0
:1019C000FFF798F8002045E7003C02400838024045
:1019D0006A76000800000220140002200148006816
:1019E000704700000000022000B5FFF7F7FF044930
:1019F0000968C1F38221034A515CC84000BD000060
:101A0000083802407A76000800B5FFF7E7FF04497E
:101A10000968C1F34231034A515CC84000BD00006F
:101A2000083802407A7600082DE9F04700240025A6
:101A30000026A1462548006800F00C0020B10428CB
:101A400005D008283AD105E0DFF8849039E0DFF8C6
:101A5000849036E01D48001F006800F03F041B48DA
:101A6000001F006800F4800078B11A481749091F68
:101A70000968C1F38811A0FB0170014622460023CA
:101A80003846FEF730FC05460EE011480F49091FA5
:101A90000968C1F38811A0FB0170014622460023AA
:101AA0003846FEF720FC05460848001F0068C0F3D2
:101AB0000140401C4600B5FBF6F902E0DFF810904B
:101AC00000BF00BF4846BDE8F0870000083802406C
:101AD0000024F40040787D01F8B5044600270CB9D5
:101AE0000120F8BD207800F00100002871D0F948ED
:101AF000006800F00C0004280DD0F648006800F0E3
:101B00000C00082813D1F348001F006800F480007F
:101B1000B0F5800F0BD1EF4808380068C0F34040A3
:101B2000002869D06068002866D10120D9E700BF8D
:101B30006068B0F5803F08D1E6480838006840F496
:101B40008030E449083908602EE0606868B9E148EF
:101B50000838006820F48030DE49083908600846FB
:101B6000006820F4802008601EE06068B0F5A02FB7
:101B70000DD1D8480838006840F48020D54908398C
:101B800008600846006840F4803008600CE0D148E6
:101B90000838006820F48030CE49083908600846CB
:101BA000006820F48020086000BF606890B1FEF7F4
:101BB00077FF054606E0FEF773FF401B642801D956
:101BC00003208EE7C34808380068C0F3404000286F
:101BD000F1D011E0FEF764FF054606E0FEF760FF76
:101BE000401B642801D903207BE7BA480838006805
:101BF000C0F340400028F1D1207800F00200022814
:101C000069D1B448006800F00C0058B1B1480068D0
:101C100000F00C0008281CD1AE48001F006800F43A
:101C20008000B0B9AB4808380068C0F3400020B16C
:101C3000E068012801D0012053E7A6480838006871
:101C400020F0F800216940EAC100A2490839086083
:101C500041E0E06828B39F480838006840F0010080
:101C60009C4908390860FEF71BFF054606E0FEF7B1
:101C700017FF401B022801D9032032E79548083896
:101C80000068C0F340000028F1D09248083800688E
:101C900020F0F800216940EAC1008E490839086047
:101CA00019E08C480838006820F00100894908399B
:101CB0000860FEF7F5FE054606E0FEF7F1FE401B64
:101CC000022801D903200CE7824808380068C0F3D5
:101CD00040000028F1D1207800F00800082836D113
:101CE0006069D0B17B486C30006840F001007949F0
:101CF0006C310860FEF7D4FE054606E0FEF7D0FE24
:101D0000401B022801D90320EBE672486C300068C2
:101D1000C0F340000028F1D019E06E486C30006834
:101D200020F001006B496C310860FEF7B9FE0546F2
:101D300006E0FEF7B5FE401B022801D90320D0E6DD
:101D400064486C300068C0F340000028F1D120786E
:101D500000F00400042874D15E483830006800F0B8
:101D6000805080B900BF5B483830006840F0805038
:101D70005849383108600846006800F080500090EB
:101D800000BF00BF01275448006800F48070B0B95C
:101D90005148006840F480704F490860FEF780FEAB
:101DA000054606E0FEF77CFE401B642801D90320AF
:101DB00097E64948006800F480700028F2D000BF20
:101DC000A068012808D143486830006840F001004D
:101DD0004049683108602DE0A06868B93D48683026
:101DE000006820F001003B4968310860084600683F
:101DF00020F0040008601DE0A06805280DD13548DA
:101E00006830006840F004003249683108600846D4
:101E1000006840F0010008600CE02E48683000685F
:101E200020F001002B49683108600846006820F066
:101E30000400086000BFA068A8B1FEF731FE0546A7
:101E400009E02EE0FEF72CFE401B41F2883188426B
:101E500001D9032045E61F4868300068C0F3400000
:101E60000028EFD013E0FEF71BFE054608E0FEF762
:101E700017FE401B41F28831884201D9032030E629
:101E8000144868300068C0F340000028EFD1012FEB
:101E900007D110483830006820F080500D493831A3
:101EA0000860A069002854D00A48006800F00C00BF
:101EB000082867D0A06902284CD106480838006875
:101EC00020F08070034908390860FEF7E9FD0546F7
:101ED0000BE000000838024000700040FEF7E0FD13
:101EE000401B022801D90320FBE53F480068C0F3EE
:101EF00040600028F2D1D4E907010843616A40EA52
:101F000081110122A06AC2EB500041EA00412C205D
:101F1000005D41EA00613020005D41EA0070324915
:101F2000091D0860081F006840F08070091F0860E4
:101F3000FEF7B6FD054606E0FEF7B2FD401B02289F
:101F400001D90320CDE528480068C0F3406000288F
:101F5000F2D047E02448006820F0807022490860F1
:101F6000FEF79EFD054606E0FEF79AFD401B02289F
:101F700001D90320B5E51C480068C0F34060002883
:101F8000F2D12FE01848001D0668A069012827D06B
:101F900006F48001E069814222D106F03F01206A07
:101FA00081421DD147F6C0703040616AB0EB811F9D
:101FB00016D106F440310122A06AC2EB5000B1EB09
:101FC000004F0DD106F070612C20005DB1EB006F69
:101FD00006D106F0E0413020005DB1EB007F01D07A
:101FE00001207EE500207CE50038024070B5044603
:101FF0000D460CB9012070BD94F82C0028B90020C2
:1020000084F82D00204600F011F8022084F82C00FE
:10201000211D2068FEF76BFB2946D4E90002FEF77C
:10202000BBFB012084F82C000020E4E710B586B04B
:10203000044600BF3E48006840F001003C4908608B
:102040000846006800F00100009000BF00BF00BF1C
:1020500037480838006840F00400354908390860FE
:102060000846006800F00400009000BF00BF00BFF9
:102070000846006840F0080008600846006800F064
:102080000800009000BF00BF00BF0846006840F095
:10209000100008600846006800F01000009000BFC3
:1020A00000BF00BF0846006840F0200008600846F6
:1020B000006800F02000009000BF00BF00BF08468D
:1020C000006840F0400008600846006800F04000EA
:1020D000009000BF00BF0D2001900220029001205F
:1020E0000390032004900C20059001A91148FEF7ED
:1020F000B5FB4CF20370019001A90F48FEF7AEFB4F
:102100004FF68370019001A90C48FEF7A7FB4FF62C
:102110003F00019001A90A48FEF7A0FB48F23710E2
:10212000019001A90748FEF799FB06B010BD000019
:102130003838024000080240000C02400010024003
:10214000001402400018024070B504460D4694F891
:102150002C00022800D170BD022084F82C002946F2
:102160002068FEF7FEFA012084F82C000020F2E738
:1021700070B504460D46164694F82C00022800D18E
:1021800070BD022084F82C00324629462068FEF7F4
:10219000EFFA2868022803D1052084F82C0002E019
:1021A000012084F82C000020EAE770B504460E46B2
:1021B00015460CB9012070BD94F8450028B90020DF
:1021C00084F84400204600F01DF804F1080120685E
:1021D000FEF71CFA3146A2682068FEF757FA294636
:1021E000E36AD4E90102FEF7EDF9A168206850F82E
:1021F000210040F00100A268216841F8220000207F
:10220000D9E7000010B586B0044600BF204800683A
:1022100040F001001E4908600846006800F0010017
:10222000009000BF00BF00BF19480838006840F0A8
:1022300008001749083908600846006800F00800DF
:10224000009000BF00BF00BF0846006840F01000CB
:1022500008600846006800F01000009000BF00BF52
:102260004EF2B370019002200290012003900220F0
:1022700004900C20059001A90648FEF7EFFA4FF6EE
:102280008070019001A90448FEF7E8FA06B010BD7D
:1022900038380240000C02400010024070B504467D
:1022A0002546681EB0F1807F01D301200FE0681E33
:1022B0004FF0E02148610F214FF0FF3001F040FA6C
:1022C00000204FF0E021886107200861002070BDE8
:1022D00070477047704710B504460CB9012010BD17
:1022E00094F83D0028B9002084F83C00204600F016
:1022F0000DF8022084F83D00211D206800F0D2FD79
:10230000012084F83D000020E9E7000038B50446CC
:102310000E492068884217D100BF00BF0C480068F2
:1023200040F010000A4908600846006800F01000FC
:10233000009000BF00BF00BF032201213620FEF73E
:102340003CFE3620FEF729FE38BD0000001000409C
:102350004038024001460868C06840F001000B6840
:10236000D86008688068084B00EA0302062A08D093
:10237000B2F5803F05D00868006840F001000B68A6
:10238000186000207047000007000100704710B57A
:10239000044620680069C0F34000D8B12068C068D6
:1023A000C0F34000B0B16FF0020021680861012065
:1023B00020772068806900F0030018B12046FFF7FD
:1023C000E5FF05E0204600F0BEF8204600F0BCF82E
:1023D0000020207720680069C0F38000D8B1206811
:1023E000C068C0F38000B0B16FF0040021680861DC
:1023F000022020772068806900F4407018B12046E0
:10240000FFF7C4FF05E0204600F09DF8204600F0ED
:102410009BF80020207720680069C0F3C000D8B185
:102420002068C068C0F3C000B0B16FF00800216838
:102430000861042020772068C06900F0030018B10B
:102440002046FFF7A3FF05E0204600F07CF8204679
:1024500000F07AF80020207720680069C0F30010AF
:10246000D8B12068C068C0F30010B0B16FF01000A0
:1024700021680861082020772068C06900F4407056
:1024800018B12046FFF782FF05E0204600F05BF818
:10249000204600F059F8002020772068006900F0FD
:1024A000010058B12068C06800F0010030B16FF041
:1024B000010021680861204600F048F820680069A2
:1024C000C0F3C01058B12068C068C0F3C01030B16C
:1024D0006FF08000216808612046FFF7FAFE20684F
:1024E0000069C0F3002058B12068C068C0F3C01074
:1024F00030B16FF48070216808612046FFF7E8FE74
:1025000020680069C0F3801058B12068C068C0F32B
:10251000801030B16FF0400021680861204600F063
:102520004FF820680069C0F3401058B12068C068B7
:10253000C0F3401030B16FF02000216808612046E0
:10254000FFF7C8FE10BD70477047000010B5014688
:10255000184A086890422BD1002024E000EB40028A
:10256000154B03EB82025288521E00EB4003124CC3
:1025700004EB83035A8000EB4002234603EB820204
:10258000528872B900EB400203EB8202928800EBA2
:10259000400304EB83035A80012200EB400304F85C
:1025A0002320421CD0B2054A12789042D6DB00BFED
:1025B00010BD00000010004068030220240002202B
:1025C00070477047704700002DE9F04704462068C7
:1025D000C569206806682068876840F60F0005EA2C
:1025E0000008B8F1000F0CD105F0200048B106F04A
:1025F000200030B1206E10B12046216E8847BDE822
:10260000F087B8F1000F7DD007F0010018B906F48B
:1026100090700028F7D005F0010048B106F48070F2
:1026200030B1012021680862E06F40F00100E067EE
:1026300005F0020048B107F0010030B10220216826
:102640000862E06F40F00400E06705F0040048B164
:1026500007F0010030B1042021680862E06F40F00B
:102660000200E06705F0080060B106F0200010B934
:1026700007F0010030B1082021680862E06F40F0E7
:102680000800E06705F4006050B106F0806038B1E2
:102690004FF4006021680862E06F40F02000E067BE
:1026A000E06F80B305F0200038B106F0200020B1C3
:1026B000206E10B12046216E8847D4F87C902068A7
:1026C000806800F04000402802D009F0280030B3B4
:1026D000204600F06AFD2068806800F04000402835
:1026E00019D12068806820F0400021688860E06E81
:1026F00068B12148E16E0865E06EFEF79BF810B105
:10270000E06E01E011E00FE0016D88470CE020462B
:10271000FFF758FF08E02046FFF754FF04E020468B
:10272000FFF750FF0020E06769E705F4801050B123
:1027300007F4800038B14FF4801021680862204609
:10274000FFF73FFF5BE705F0800040B106F0800037
:1027500028B1606E10B12046616E88474FE705F0E2
:10276000400030B106F0400018B1204600F02EFDC8
:1027700045E700BF43E700009331000810B5044669
:102780000CB9012010BDA06900B100E000BF606F6E
:1027900028B9002084F87000204600F029F8242091
:1027A00060672068006820F001002168086020460A
:1027B00000F086FD012800D1E4E7606A10B12046F0
:1027C00000F034FC2068406820F4904021684860A4
:1027D0002068806820F02A002168886020680068EE
:1027E00040F0010021680860204600F09BFCC9E72A
:1027F00010B586B004462B49206888424FD100BFEF
:1028000000BF2948006840F01000274908600846CA
:10281000006800F01000009000BF00BF00BF00BFC4
:1028200000BF21481438006840F001001E491439E7
:1028300008600846006800F00100009000BF00BF7B
:1028400000BF00BF00BF0846006840F001000860FC
:102850000846006800F00100009000BF00BF00BF04
:10286000481501900220029001200390022004905C
:102870000720059001A90D48FDF7F0FF4FF4806097
:1028800001900720059001A90848FDF7E7FF2520E2
:10289000FEF783FB032211462520FEF78EFB06B0D0
:1028A00010BD00000010014044380240000002400A
:1028B00010B50346986F202865D101B10AB90120EF
:1028C00010BD00BF93F87000012801D10220F7E786
:1028D000012083F8700000BF5965A3F85820A3F8C1
:1028E0005A200020186600BF9868B0F5805F0AD1B2
:1028F000186920B940F2FF10A3F85C0020E0FF2027
:10290000A3F85C001CE0986848B9186918B9FF2062
:10291000A3F85C0014E07F20A3F85C0010E0986846
:10292000B0F1805F09D1186918B97F20A3F85C0065
:1029300006E03F20A3F85C0002E00020A3F85C0062
:1029400000BF0020D867222098671868806840F090
:1029500001001C68A0609868B0F5805F04D1186918
:1029600010B90A48186601E00948186600BF00203F
:1029700083F8700000BF1868006840F490701C680D
:10298000206000209CE702209AE70000ED3100085B
:102990005932000810B504462049206888423BD1CE
:1029A0001F48008800F4004088BB1D48008800F4E0
:1029B000804070B11B4800780A2803D000201849D5
:1029C000088024E01648008840F40040144908803C
:1029D0001DE0144800780D2806D11148008840F405
:1029E00080400F49088012E00E4800780C490988A1
:1029F000C1F30D010C4A505409480088401C084995
:102A0000088008460088C72801DD002008800122D0
:102A100004490648FFF74CFF10BD000000100140BC
:102A20000C0002200E00022030000220F8000220DC
:102A3000704700BFFEE710B504F086FDFEF742F8D0
:102A40000923022219214FF4D87004F08BFDD820FD
:102A500000F0A2FE4FF4E13004F0E6FD04F012F9BC
:102A600004F090FC04F0F2FC03F05AFC00F0D6FEF7
:102A700040F2374140F2E73000F078FE00F0ACFA67
:102A800010BDF0B58E880768FF68C7F30B473E445A
:102A9000330406688436802707FB0266766806F4EE
:102AA0007047066884364FF0800C0CFB0266776036
:102AB0000E680768FF68C7F30B473E44761C1E4349
:102AC000076884370CFB02777E608E890768FF6891
:102AD000C7F30A073E44330406688436802707FBA1
:102AE0000266B66806F47047066884360CFB026618
:102AF000B7608E680768FF68C7F30A073E44761C14
:102B000046EA0307066884360CFB0266B76006686F
:102B10008436802707FB0266366926F007070668B9
:102B200084360CFB026637610F69066884360CFB3D
:102B3000026637613126765C33023226765C3404D5
:102B40000E7E350606688436802707FB0266B66966
:102B50000027066884360CFB0266B76191F8306086
:102B60001E43264346EA0507066884360CFB0266C8
:102B7000B76106688436802707FB0266766926F00F
:102B8000FF07066884360CFB026677614F690668AA
:102B900084360CFB0266776106688436802707FB63
:102BA0000266F66940F20777BE43076884370CFB7C
:102BB0000277FE61D1E907763743066884360CFB5D
:102BC0000266F76106688436802707FB0266B66AEC
:102BD0000027066884360CFB0266B7624F6A0668F7
:102BE00084360CFB0266B7620E690EB9042313E04B
:102BF0000E69012E01D103230EE00E69042E08D0C8
:102C00000E69022E05D00E69032E02D00E69072E22
:102C100001D1022300E0012306688436802707FBE8
:102C20000266F66A06F0E027066884364FF0800CEC
:102C30000CFB0266F762D1E90076F61B5E43F61CD8
:102C40000F8D5F4346EA0747066884360CFB026631
:102C5000F76206688436802707FB0266366BF70A40
:102C6000FF02066884360CFB02663763CF6A06688B
:102C700084360CFB0266376306688436D701F65942
:102C800046F00107066884364FEAC21C46F80C700D
:102C9000F0BD000000BF002201211848FDF7FAFE38
:102CA00000BF17A0FDF796FB4FF47A7000F07AFD95
:102CB00019A0FDF78FFB4FF47A7000F073FD00BF91
:102CC00000BF00BF00BF00BFBFF34F8F00BF00BFFA
:102CD00000BF1648006800F4E06015490843001D75
:102CE0001249086000BF00BF00BFBFF34F8F00BF95
:102CF00000BF00BF00BF00BFFDE7000000040240AE
:102D00004D656D20416363657373204572726F7208
:102D100021210D0A00000000536F66742052657374
:102D20006574696E672E2E2E0D0A00000CED00E012
:102D30000000FA057047704710B54FF4784000F076
:102D4000E7FD00BF02210248FDF79CFE00BF10BD59
:102D50000004024010B50023234C236000BF00BFD5
:102D600000BFBFF34F8F00BF00BF00BF231F186815
:102D7000C0F34E3100BFC0F3C90200BF43F6E07399
:102D800003EA41134FF0404404EA82742343174C92
:102D9000236000BF00BF131EA2F10102EED10B1E83
:102DA000A1F10101E7D100BF00BF00BFBFF34F8F0A
:102DB00000BF00BF00BF0C4B703B1B6843F4803367
:102DC000094C703C236000BF00BF00BFBFF34F8FB2
:102DD00000BF00BF00BF00BF00BF00BFBFF36F8FC9
:102DE00000BF00BF00BF10BD84ED00E060EF00E059
:102DF00000BF00BF00BFBFF34F8F00BF00BF00BFC9
:102E000000BF00BF00BFBFF36F8F00BF00BF00BF98
:102E100000201449086000BF00BF00BFBFF34F8F00
:102E200000BF00BF00BF00BF00BF00BFBFF36F8F78
:102E300000BF00BF00BF0C48006840F400300A49E2
:102E4000086000BF00BF00BFBFF34F8F00BF00BFCF
:102E500000BF00BF00BF00BFBFF36F8F00BF00BF48
:102E600000BF704750EF00E014ED00E0704710B570
:102E7000FDF71CFE10BD00000548006840F470001E
:102E8000034908604FF000600149803908607047CD
:102E900088ED00E010B50248FFF779FA10BD000098
:102EA0007801022010B50268294B98420ED0B0F18B
:102EB000804F0BD0274B984208D0274B984205D023
:102EC000264B984202D0264B984203D122F0700242
:102ED0004B681A431E4B984220D0B0F1804F1DD052
:102EE0001C4B98421AD01C4B984217D01B4B98424F
:102EF00014D01B4B984211D01A4B98420ED01A4B4B
:102F000098420BD0194B984208D0194B984205D0E3
:102F1000184B984202D0184B984203D122F44072C9
:102F2000CB681A4322F080034C6943EA0402026032
:102F30008B68C3620B688362054B984202D0084BD2
:102F4000984201D10B6903630123436110BD000066
:102F5000000001400004004000080040000C004058
:102F6000000401400040014000440140004801408D
:102F700000180040001C00400020004030B5144CF8
:102F80002478142C00DB30BD114C247804EB44046D
:102F9000104D05F824000E4C247804EB440405EB96
:102FA000840461800A4C247804EB440405EB840417
:102FB000A280074C247804EB440405EB8404A3604E
:102FC000034C2478641C024D2C7000BFDBE700002A
:102FD000240002206803022000B50F4B05220121C6
:102FE0000020FFF7CBFF0D4B052201210020FFF74A
:102FF000C5FF0B4B052201210020FFF7BFFF094B46
:10300000052201210020FFF7B9FF074B32221146AC
:103010000120FFF7B3FF00BD95050008BD050008BE
:10302000BF050008C1050008392D000890F82410DC
:1030300001F0010139B10168496821F40031826A67
:1030400011430268516090F8241001F00201022936
:1030500007D10168496821F48031C26A11430268CE
:10306000516090F8241001F00401042907D101688F
:10307000496821F48021026B11430268516090F885
:10308000241001F00801082907D10168496821F4DA
:103090000041426B11430268516090F8241001F026
:1030A0001001102907D10168896821F48051826BD1
:1030B00011430268916090F8241001F0200120294A
:1030C00007D10168896821F40051C26B114302687D
:1030D000916090F8241001F04001402913D101685B
:1030E000496821F48011026C114302685160016C3F
:1030F000B1F5801F07D10168496821F4C001426C15
:1031000011430268516090F8241001F08001802979
:1031100007D10168496821F40021826C11430268DB
:103120005160704738B504460020E067FDF7B8FCF1
:1031300005462068006800F0080008280CD16FF0F0
:103140007E402B4600224FF400110090204600F0F4
:103150008BFA08B1032038BD2068006800F0040035
:1031600004280CD16FF07E402B4600224FF48001E2
:103170000090204600F078FA08B10320EBE7202009
:103180006067A06700BF002084F8700000BF00BF28
:10319000E1E770B50546AC6B0020A4F85A00A4F82E
:1031A00052002046FFF70EFA70BD0168096821F44D
:1031B0009071026811600168896821F0010102685C
:1031C00091602021816700210166704710B5044697
:1031D0002068006820F040002168086020206067B7
:1031E000002060662046FFF723FC10BD2DE9F0416A
:1031F0000446B4F85C70A06F222825D12068406A8C
:1032000086B2656D06EA07002880606D801C6065E7
:10321000B4F85A00401EA4F85A00B4F85A00C8B9CD
:103220002068006820F49070216808602068806839
:1032300020F00100216888602020A067002020661F
:103240002046FFF7A7FB05E02068806940F00800F2
:1032500021688861BDE8F08170B50446B4F85C600F
:10326000A06F222825D12068406A85B2F0B228409C
:10327000616D0870606D401C6065B4F85A00401EB6
:10328000A4F85A00B4F85A00C8B92068006820F4BD
:103290009070216808602068806820F00100216833
:1032A00088602020A067002020662046FFF772FB80
:1032B00005E02068806940F008002168886170BDE1
:1032C0002DE9F04704460027BA462169A068084363
:1032D00061690843E16940EA010820680068D6494D
:1032E000084040EA0800216808602068406820F42F
:1032F0004050E168084321684860D4F81880206A8B
:1033000040EA08082068806820F4306040EA08003D
:103310002168886000BFC9492068884216D1C84822
:10332000006800F0030030B1012808D0022804D062
:10333000032808D105E0012507E0022505E0042562
:1033400003E0082501E0102500BFC9E0BD49206861
:10335000884216D1BA48006800F00C0030B1042849
:1033600008D0082804D00C2808D105E0002507E083
:10337000022505E0042503E0082501E0102500BF33
:10338000AEE0B1492068884216D1AD48006800F02F
:10339000300030B1102808D0202804D0302808D1BF
:1033A00005E0002507E0022505E0042503E00825E7
:1033B00001E0102500BF93E0A4492068884216D19F
:1033C0009F48006800F0C00030B1402808D0802835
:1033D00004D0C02808D105E0002507E0022505E05B
:1033E000042503E0082501E0102500BF78E0984996
:1033F0002068884219D19248006800F4407048B1B2
:10340000B0F5807F0AD0B0F5007F05D0B0F5407FE1
:1034100008D105E0002507E0022505E0042503E0CA
:10342000082501E0102500BF5AE08A49206888423B
:1034300019D18348006800F4406048B1B0F5806F4E
:103440000AD0B0F5006F05D0B0F5406F08D105E0A7
:10345000012507E0022505E0042503E0082501E039
:10346000102500BF3CE07C492068884219D174488F
:10347000006800F4405048B1B0F5805F0AD0B0F564
:10348000005F05D0B0F5405F08D105E0002507E0FA
:10349000022505E0042503E0082501E0102500BF12
:1034A0001EE06E492068884219D16548006800F422
:1034B000404048B1B0F5804F0AD0B0F5004F05D07C
:1034C000B0F5404F08D105E0002507E0022505E0F2
:1034D000042503E0082501E0102500BF00E01025C9
:1034E00000BFE069B0F5004F54D1092D3AD2DFE8B2
:1034F00005F005101B39243939392F00FEF774FA0D
:1035000006467000616800EB5100B0FBF1F087B235
:103510002BE0FEF779FA06467000616800EB510077
:10352000B0FBF1F087B220E04D49606801EB50003C
:103530006168B0FBF1F087B217E0FEF775FA064656
:103540007000616800EB5100B0FBF1F087B20CE055
:103550004FF48031606801EB50006168B0FBF1F01E
:1035600087B202E04FF0010A00BF00BF102F0ED358
:10357000B7F5803F0BD24FF6F07007EA0009C7F3AA
:10358000420049EA00092068C0F80C904DE04FF075
:10359000010A4AE0092D3AD2DFE805F005101B398F
:1035A000243939392F00FEF71FFA0646606806EB0A
:1035B00050006168B0FBF1F087B22BE0FEF724FA0F
:1035C0000646606806EB50006168B0FBF1F087B218
:1035D00020E02449606801EB50006168B0FBF1F025
:1035E00087B217E0FEF720FA0646606806EB500047
:1035F0006168B0FBF1F087B20CE04FF40041606805
:1036000001EB50006168B0FBF1F087B202E04FF0CF
:10361000010A00BF00BF102F05D3B7F5803F02D2CB
:103620002068C76001E04FF0010A00202066606654
:103630005046BDE8F0870000F369FFEF001001403D
:10364000903802400044004000480040004C0040D8
:10365000005000400014014000780040007C004011
:103660000048E8010024F4002DE9F04104460D462D
:1036700017469846069E45E0701C002842D0FDF78C
:103680000FFAA0EB0800B04200D8B6B92068006875
:1036900020F4D070216808602068806820F0010064
:1036A0002168886020206067A06700BF002084F840
:1036B000700000BF0320BDE8F0812068006800F0C2
:1036C0000400F8B12068C069C0F3C020D0B14FF445
:1036D0000060216808622068006820F4D0702168CA
:1036E00008602068806820F0010021688860202040
:1036F0006067A067E06700BF002084F8700000BF2B
:103700000320D8E72068C0692840A84201D10120E1
:1037100000E00020B842AFD00020CCE710B502484E
:10372000FEF752FF10BD0000F800022000BFFEE7C8
:1037300002480068C0F30220704700000CED00E072
:1037400010B5002804DB0A07130E054A135406E0DF
:103750000A07140E034A00F00F031B1FD45410BDB8
:1037600000E400E018ED00E000BF704770B50546CA
:103770000C460748074908600846446000218160FC
:10378000C560FEF7A8FD0348FEF7E4FD70BD00002C
:1037900000100040780102200149086070470000D5
:1037A0000400022010B504464FF47A7104FB01F0C6
:1037B00000F002F810BD000070B5034600224FF083
:1037C000E02675690D4E366803FB06F44FF0E026DF
:1037D000B16910E04FF0E026B06988420BD0884212
:1037E00002D20E1A324402E02E1A0E44324401462E
:1037F000A24200D300E0EDE700BF70BD040002204C
:1038000000BF054AD26902F04002002AF9D0C2B2D4
:10381000014B9A62704700000010014000B587B06C
:1038200000BF00BF3648006840F08000344908609F
:103830000846006800F08000019000BF00BF00BF94
:1038400000BF00BF0846006840F0800008600846DE
:10385000006800F08000019000BF00BF00BF00BF03
:1038600000BF0846006840F0040008600846006891
:1038700000F00400019000BF00BF00BF00BF00BF08
:103880000846006840F0010008600846006800F043
:103890000100019000BF00BF00BF0820029000207F
:1038A0000390012004900220059002A91548FCF71E
:1038B000D5FF0420029000200390012004900220F4
:1038C000059002A90F48FCF7C9FF4FF40050029081
:1038D00000200390012004900220059002A90A48CC
:1038E000FCF7BCFF0120029000200390022004900E
:1038F000059002A90548FCF7B1FF07B000BD000024
:1039000030380240001C0240000802400000024023
:1039100070B5044600260D4805880D48006818B1AA
:10392000204603F0F5F90FE00848408845430021A0
:10393000084603F0C5F803F093F9002602E00548B5
:103940000480761CAE42FAD370BD0000040202204F
:10395000480302200000086010B5044660488471E6
:103960006048006850B1204603F0F8F95D48C08A0D
:103970005B4908805B48008B488010BD002C58D103
:10398000F020574908804FF4A0704880084680888E
:1039900045F21051884210D14FF4305050490881FF
:1039A0004FF4285048814FF42C5088814FF4F07028
:1039B00008804FF4487048801AE04948808841F6F2
:1039C000631188420DD12C20454908812B20488164
:1039D0002A2088814FF4F07008804FF448704880A6
:1039E00006E02C203E4908812A2048812B2088812E
:1039F0003B48808845F21031884205D0384880889D
:103A000047F29671884206D14FF4A070344908807D
:103A10004FF4F07048803248808849F606018842A9
:103A200058D14FF4F0702E4908804FF44870488008
:103A300050E04FF4A0702A490880F02048800846E2
:103A4000808845F21051884210D14FF430502449FB
:103A500008814FF4285048814FF42C5088814FF44E
:103A6000487008804FF4F070488020E01C4880883F
:103A700041F66311884205D01948808849F606014D
:103A800088420DD12C20164908812A2048812B20FC
:103A900088814FF4487008804FF4F070488006E049
:103AA0002C200F4908812A2048812B2088810C482E
:103AB000808845F21031884205D00948808847F255
:103AC0009671884206D14FF4F070054908804FF492
:103AD000A0704880002002F0D5FE00BF4DE7000036
:103AE000040202204803022010B5CF2003F0ACF8F6
:103AF000002003F09DF8C12003F09AF8302003F075
:103B000097F8ED2003F0A0F8642003F091F803206B
:103B100003F08EF8122003F08BF8812003F088F870
:103B2000E82003F091F8852003F082F8102003F0DC
:103B30007FF87A2003F07CF8CB2003F085F8392059
:103B400003F076F82C2003F073F8002003F070F8EF
:103B5000342003F06DF8022003F06AF8F72003F038
:103B600073F8202003F064F8EA2003F06DF80020D9
:103B700003F05EF8002003F05BF8C02003F064F867
:103B80001B2003F055F8C12003F05EF8012003F07C
:103B90004FF8C52003F058F8302003F049F83020E2
:103BA00003F046F8C72003F04FF8B72003F040F8C1
:103BB000362003F049F8482003F03AF83A2003F0A1
:103BC00043F8552003F034F8B12003F03DF800200D
:103BD00003F02EF81A2003F02BF8B62003F034F887
:103BE0000A2003F025F8A22003F022F8F22003F0C7
:103BF0002BF8002003F01CF8262003F025F8012004
:103C000003F016F8E02003F01FF80F2003F010F87F
:103C10002A2003F00DF8282003F00AF8082003F00A
:103C200007F80E2003F004F8082003F001F85420F0
:103C300002F0FEFFA92002F0FBFF432002F0F8FF94
:103C40000A2002F0F5FF0F2002F0F2FF002002F040
:103C5000EFFF002002F0ECFF002002F0E9FF00205F
:103C600002F0E6FFE12002F0EFFF002002F0E0FFAB
:103C7000152002F0DDFF172002F0DAFF072002F026
:103C8000D7FF112002F0D4FF062002F0D1FF2B2035
:103C900002F0CEFF562002F0CBFF3C2002F0C8FF1E
:103CA000052002F0C5FF102002F0C2FF0F2002F035
:103CB000BFFF3F2002F0BCFF3F2002F0B9FF0F2002
:103CC00002F0B6FF2B2002F0BFFF002002F0B0FF91
:103CD000002002F0ADFF012002F0AAFF3F2002F019
:103CE000A7FF2A2002F0B0FF002002F0A1FF002071
:103CF00002F09EFF002002F09BFFEF2002F098FFF1
:103D0000112002F0A1FF7820FFF74CFD292002F0DE
:103D10009BFF10BD10B5FF2002F096FFFF2002F0C0
:103D200087FF982002F084FF062002F081FFBC206C
:103D300002F08AFF012002F07BFF0F2002F078FFE3
:103D4000612002F075FFFF2002F072FF012002F0F7
:103D50006FFF012002F06CFF0B2002F069FF1020C2
:103D600002F066FF372002F063FF632002F060FF7D
:103D7000FF2002F05DFFFF2002F05AFF012002F059
:103D800057FF012002F054FF002002F051FF0020F5
:103D900002F04EFFFF2002F04BFF522002F048FFDE
:103DA000012002F045FF002002F042FF402002F017
:103DB0003FFFBD2002F048FF012002F039FF232021
:103DC00002F036FF452002F033FF672002F030FF9B
:103DD000012002F02DFF232002F02AFF452002F0EF
:103DE00027FF672002F024FFBE2002F02DFF0020F5
:103DF00002F01EFF012002F01BFFAB2002F018FFB3
:103E0000602002F015FF222002F012FF222002F0B3
:103E10000FFF222002F00CFF222002F009FF2220D7
:103E200002F006FFC72002F00FFF362002F000FF6D
:103E3000ED2002F009FF7F2002F0FAFE0F2002F0D1
:103E4000F7FEC02002F000FF0F2002F0F1FE0B2071
:103E500002F0EEFE0A2002F0EBFEFC2002F0F4FE7F
:103E6000082002F0E5FEDF2002F0EEFE002002F066
:103E7000DFFE002002F0DCFE002002F0D9FE002070
:103E800002F0D6FE002002F0D3FE202002F0D0FE89
:103E9000F32002F0D9FE742002F0CAFEB42002F032
:103EA000D3FE002002F0C4FE002002F0C1FE00207C
:103EB00002F0BEFEF72002F0C7FE822002F0B8FE3C
:103EC000B12002F0C1FE002002F0B2FE132002F089
:103ED000AFFE132002F0ACFEF22002F0B5FE80200F
:103EE00002F0A6FE042002F0A3FE402002F0A0FE95
:103EF000282002F09DFEC12002F0A6FE172002F04D
:103F000097FE882002F094FE882002F091FE202087
:103F100002F08EFEE02002F097FE002002F088FE04
:103F20000A2002F085FE122002F082FE102002F02C
:103F30007FFE0E2002F07CFE202002F079FECC20D5
:103F400002F076FE072002F073FE062002F070FEFB
:103F50000B2002F06DFE0E2002F06AFE0F2002F030
:103F600067FE0D2002F064FE152002F061FE1020B5
:103F700002F05EFE002002F05BFEE12002F064FE33
:103F8000002002F055FE0B2002F052FE132002F03A
:103F90004FFE0D2002F04CFE0E2002F049FE1B20C9
:103FA00002F046FE712002F043FE062002F040FEC1
:103FB000062002F03DFE0A2002F03AFE0F2002F039
:103FC00037FE0E2002F034FE0F2002F031FE1520E5
:103FD00002F02EFE0C2002F02BFE002002F028FE44
:103FE0002A2002F031FE002002F022FE002002F022
:103FF0001FFE012002F01CFEDF2002F019FE2B2024
:1040000002F022FE002002F013FE002002F010FE5B
:10401000032002F00DFE1F2002F00AFE3A2002F0FB
:1040200013FE552002F004FE362002F00DFE0020A3
:1040300002F0FEFD112002F007FE7820FFF7B2FB30
:10404000292002F001FE1420FFF7ACFB2C2002F027
:10405000FBFD10BD10B5ED2002F0F6FD012002F0D1
:10406000E7FDFE2002F0E4FDEE2002F0EDFDDE2093
:1040700002F0DEFD212002F0DBFDF12002F0E4FD84
:10408000012002F0D5FDDF2002F0DEFD102002F05D
:10409000CFFDC42002F0D8FD8F2002F0C9FDC6205C
:1040A00002F0D2FD002002F0C3FDE22002F0C0FDCC
:1040B000E22002F0BDFDE22002F0BAFDBF2002F0D6
:1040C000C3FDAA2002F0B4FDB02002F0BDFD0D201A
:1040D00002F0AEFD002002F0ABFD0D2002F0A8FDC5
:1040E000002002F0A5FD112002F0A2FD002002F048
:1040F0009FFD192002F09CFD002002F099FD212077
:1041000002F096FD002002F093FD2D2002F090FDBC
:10411000002002F08DFD3D2002F08AFD002002F01B
:1041200087FD5D2002F084FD002002F081FD5D200E
:1041300002F07EFD002002F07BFDB12002F084FD44
:10414000802002F075FD002002F072FD8B2002F04D
:104150006FFD002002F06CFD962002F069FD00204A
:1041600002F066FDB22002F06FFD002002F060FD5B
:10417000002002F05DFD022002F05AFD002002F056
:1041800057FD032002F054FD002002F051FDB32042
:1041900002F05AFD002002F04BFD002002F048FD25
:1041A000002002F045FD002002F042FD002002F058
:1041B0003FFD002002F03CFD002002F039FD002010
:1041C00002F036FD002002F033FD002002F030FD49
:1041D000002002F02DFD002002F02AFD002002F058
:1041E00027FD002002F024FD002002F021FD002028
:1041F00002F01EFD002002F01BFD002002F018FD61
:10420000002002F015FD002002F012FD002002F057
:104210000FFD002002F00CFD002002F009FD00203F
:1042200002F006FDB42002F00FFD8B2002F000FD2D
:10423000002002F0FDFC962002F0FAFC002002F0C3
:10424000F7FCA12002F0F4FC002002F0F1FCB52004
:1042500002F0FAFC022002F0EBFC002002F0E8FC85
:10426000032002F0E5FC002002F0E2FC042002F052
:10427000DFFC002002F0DCFCB62002F0E5FC0020B0
:1042800002F0D6FC002002F0D3FCB72002F0DCFCE8
:10429000002002F0CDFC002002F0CAFC3F2002F01A
:1042A000C7FC002002F0C4FC5E2002F0C1FC00202C
:1042B00002F0BEFC642002F0BBFC002002F0B8FC5F
:1042C0008C2002F0B5FC002002F0B2FCAC2002F021
:1042D000AFFC002002F0ACFCDC2002F0A9FC0020C6
:1042E00002F0A6FC702002F0A3FC002002F0A0FC6B
:1042F000902002F09DFC002002F09AFCEB2002F0DE
:1043000097FC002002F094FCDC2002F091FC0020DD
:1043100002F08EFCB82002F097FC002002F088FC2E
:10432000002002F085FC002002F082FC002002F058
:104330007FFC002002F07CFC002002F079FC0020D1
:1043400002F076FC002002F073FCBA2002F07CFC44
:10435000242002F06DFC002002F06AFC002002F034
:1043600067FC002002F064FCC12002F06DFC2020FC
:1043700002F05EFC002002F05BFC542002F058FCCE
:10438000002002F055FCFF2002F052FC002002F059
:104390004FFCC22002F058FC0A2002F049FC002029
:1043A00002F046FC042002F043FC002002F040FC36
:1043B000C32002F049FC3C2002F03AFC002002F04D
:1043C00037FC3A2002F034FC002002F031FC3920A6
:1043D00002F02EFC002002F02BFC372002F028FC1B
:1043E000002002F025FC3C2002F022FC002002F01C
:1043F0001FFC362002F01CFC002002F019FC3220C9
:1044000002F016FC002002F013FC2F2002F010FC3A
:10441000002002F00DFC2C2002F00AFC002002F02B
:1044200007FC292002F004FC002002F001FC2620F9
:1044300002F0FEFB002002F0FBFB242002F0F8FB60
:10444000002002F0F5FB242002F0F2FB002002F035
:10445000EFFB232002F0ECFB002002F0E9FB3C2004
:1044600002F0E6FB002002F0E3FB362002F0E0FB66
:10447000002002F0DDFB322002F0DAFB002002F027
:10448000D7FB2F2002F0D4FB002002F0D1FB2C2020
:1044900002F0CEFB002002F0CBFB292002F0C8FB8B
:1044A000002002F0C5FB262002F0C2FB002002F033
:1044B000BFFB242002F0BCFB002002F0B9FB24204B
:1044C00002F0B6FB002002F0B3FB232002F0B0FBA9
:1044D000002002F0ADFBC42002F0B6FB622002F027
:1044E000A7FB002002F0A4FB052002F0A1FB0020A6
:1044F00002F09EFB842002F09BFB002002F098FB60
:10450000F02002F095FB002002F092FB182002F050
:104510008FFB002002F08CFBA42002F089FB00201E
:1045200002F086FB182002F083FB002002F080FBE3
:10453000502002F07DFB002002F07AFB0C2002F0FC
:1045400077FB002002F074FB172002F071FB0020C3
:1045500002F06EFB952002F06BFB002002F068FB7E
:10456000F32002F065FB002002F062FBE62002F07F
:104570005FFB002002F05CFBC52002F065FB3220EF
:1045800002F056FB002002F053FB442002F050FBE7
:10459000002002F04DFB652002F04AFB002002F0F3
:1045A00047FB762002F044FB002002F041FB88200C
:1045B00002F03EFB002002F03BFBC62002F044FB71
:1045C000202002F035FB002002F032FB172002F021
:1045D0002FFB002002F02CFB012002F029FB002021
:1045E00002F026FBC72002F02FFB002002F020FB88
:1045F000002002F01DFB002002F01AFB002002F058
:1046000017FBC82002F020FB002002F011FB002065
:1046100002F00EFB002002F00BFB002002F008FB72
:10462000C92002F011FB002002F002FB002002F082
:10463000FFFA002002F0FCFA002002F0F9FA002054
:1046400002F0F6FA002002F0F3FA002002F0F0FA8D
:10465000002002F0EDFA002002F0EAFA002002F059
:10466000E7FA002002F0E4FA002002F0E1FA00206C
:1046700002F0DEFA002002F0DBFA002002F0D8FAA5
:10468000002002F0D5FAE02002F0DEFA162002F057
:10469000CFFA002002F0CCFA1C2002F0C9FA002068
:1046A00002F0C6FA212002F0C3FA002002F0C0FA9C
:1046B000362002F0BDFA002002F0BAFA462002F0DD
:1046C000B7FA002002F0B4FA522002F0B1FA00204A
:1046D00002F0AEFA642002F0ABFA002002F0A8FA71
:1046E0007A2002F0A5FA002002F0A2FA8B2002F054
:1046F0009FFA002002F09CFA992002F099FA00201B
:1047000002F096FAA82002F093FA002002F090FA44
:10471000B92002F08DFA002002F08AFAC42002F0DB
:1047200087FA002002F084FACA2002F081FA002001
:1047300002F07EFAD22002F07BFA002002F078FA32
:10474000D92002F075FA002002F072FAE02002F09F
:104750006FFA002002F06CFAF32002F069FA0020F0
:1047600002F066FAE12002F06FFA162002F060FA19
:10477000002002F05DFA1C2002F05AFA002002F03C
:1047800057FA222002F054FA002002F051FA3620A3
:1047900002F04EFA002002F04BFA452002F048FAEF
:1047A000002002F045FA522002F042FA002002F006
:1047B0003FFA642002F03CFA002002F039FA7A2035
:1047C00002F036FA002002F033FA8B2002F030FAC1
:1047D000002002F02DFA992002F02AFA002002F0BF
:1047E00027FAA82002F024FA002002F021FAB920CA
:1047F00002F01EFA002002F01BFAC42002F018FAA0
:10480000002002F015FACA2002F012FA002002F08D
:104810000FFAD22002F00CFA002002F009FAD82098
:1048200002F006FA002002F003FAE02002F000FA9B
:10483000002002F0FDF9F32002F0FAF9002002F066
:10484000F7F9E22002F000FA052002F0F1F9002069
:1048500002F0EEF90B2002F0EBF9002002F0E8F98B
:104860001B2002F0E5F9002002F0E2F9342002F00A
:10487000DFF9002002F0DCF9442002F0D9F9002031
:1048800002F0D6F94F2002F0D3F9002002F0D0F95F
:10489000612002F0CDF9002002F0CAF9792002F07F
:1048A000C7F9002002F0C4F9882002F0C1F9002005
:1048B00002F0BEF9972002F0BBF9002002F0B8F92F
:1048C000A62002F0B5F9002002F0B2F9B72002F0FC
:1048D000AFF9002002F0ACF9C22002F0A9F90020E3
:1048E00002F0A6F9C72002F0A3F9002002F0A0F917
:1048F000D12002F09DF9002002F09AF9D62002F0B2
:1049000097F9002002F094F9DD2002F091F90020DF
:1049100002F08EF9F32002F08BF9002002F088F902
:10492000E32002F091F9052002F082F9002002F064
:104930007FF90A2002F07CF9002002F079F91C20AE
:1049400002F076F9002002F073F9332002F070F9DA
:10495000002002F06DF9442002F06AF9002002F014
:1049600067F9502002F064F9002002F061F962203A
:1049700002F05EF9002002F05BF9782002F058F9AD
:10498000002002F055F9882002F052F9002002F0D0
:104990004FF9972002F04CF9002002F049F9A620C7
:1049A00002F046F9002002F043F9B72002F040F986
:1049B000002002F03DF9C22002F03AF9002002F096
:1049C00037F9C72002F034F9002002F031F9D12084
:1049D00002F02EF9002002F02BF9D52002F028F980
:1049E000002002F025F9DD2002F022F9002002F07B
:1049F0001FF9F32002F01CF9002002F019F9E4205D
:104A000002F022F9012002F013F9002002F010F95F
:104A1000012002F00DF9002002F00AF9022002F054
:104A200007F9002002F004F92A2002F001F9002021
:104A300002F0FEF83C2002F0FBF8002002F0F8F84B
:104A40004B2002F0F5F8002002F0F2F85D2002F0B1
:104A5000EFF8002002F0ECF8742002F0E9F80020F2
:104A600002F0E6F8842002F0E3F8002002F0E0F81B
:104A7000932002F0DDF8002002F0DAF8A22002F024
:104A8000D7F8002002F0D4F8B32002F0D1F80020CB
:104A900002F0CEF8BE2002F0CBF8002002F0C8F8F9
:104AA000C42002F0C5F8002002F0C2F8CD2002F0C8
:104AB000BFF8002002F0BCF8D32002F0B9F80020C3
:104AC00002F0B6F8DD2002F0B3F8002002F0B0F8F2
:104AD000F32002F0ADF8002002F0AAF8E52002F081
:104AE000B3F8002002F0A4F8002002F0A1F80020A2
:104AF00002F09EF8002002F09BF8022002F098F8E5
:104B0000002002F095F8292002F092F8002002F02F
:104B10008FF83C2002F08CF8002002F089F84B203E
:104B200002F086F8002002F083F85D2002F080F8A1
:104B3000002002F07DF8742002F07AF8002002F0E4
:104B400077F8842002F074F8002002F071F89320C6
:104B500002F06EF8002002F06BF8A22002F068F874
:104B6000002002F065F8B32002F062F8002002F0A5
:104B70005FF8BE2002F05CF8002002F059F8C42073
:104B800002F056F8002002F053F8CD2002F050F861
:104B9000002002F04DF8D32002F04AF8002002F085
:104BA00047F8DC2002F044F8002002F041F8F3203E
:104BB00002F03EF8002002F03BF8E62002F044F854
:104BC000112002F035F8002002F032F8342002F013
:104BD0002FF8002002F02CF8562002F029F80020CF
:104BE00002F026F8762002F023F8002002F020F8E8
:104BF000772002F01DF8002002F01AF8662002F07B
:104C000017F8002002F014F8882002F011F80020B4
:104C100002F00EF8992002F00BF8002002F008F8DC
:104C2000BB2002F005F8002002F002F8992001F004
:104C3000FFFF002001F0FCFF662001F0F9FF0020DB
:104C400001F0F6FF552001F0F3FF002001F0F0FF26
:104C5000552001F0EDFF002001F0EAFF452001F0B2
:104C6000E7FF002001F0E4FF432001F0E1FF002016
:104C700001F0DEFF442001F0DBFF002001F0D8FF4F
:104C8000E72001F0E1FF322001F0D2FF002001F027
:104C9000CFFF552001F0CCFF002001F0C9FF7620A6
:104CA00001F0C6FF002001F0C3FF662001F0C0FF45
:104CB000002001F0BDFF672001F0BAFF002001F0E5
:104CC000B7FF672001F0B4FF002001F0B1FF87209B
:104CD00001F0AEFF002001F0ABFF992001F0A8FF2A
:104CE000002001F0A5FFBB2001F0A2FF002001F091
:104CF0009FFF992001F09CFF002001F099FF772091
:104D000001F096FF002001F093FF442001F090FF96
:104D1000002001F08DFF562001F08AFF002001F0F5
:104D200087FF232001F084FF002001F081FF332062
:104D300001F07EFF002001F07BFF452001F078FFAD
:104D4000002001F075FFE82001F07EFF002001F057
:104D50006FFF002001F06CFF992001F069FF002037
:104D600001F066FF872001F063FF002001F060FF83
:104D7000882001F05DFF002001F05AFF772001F04C
:104D800057FF002001F054FF662001F051FF002082
:104D900001F04EFF882001F04BFF002001F048FF9A
:104DA000AA2001F045FF002001F042FFBB2001F0E6
:104DB0003FFF002001F03CFF992001F039FF002067
:104DC00001F036FF662001F033FF002001F030FFD4
:104DD000552001F02DFF002001F02AFF552001F0A1
:104DE00027FF002001F024FF442001F021FF0020D4
:104DF00001F01EFF442001F01BFF002001F018FF0E
:104E0000552001F015FF002001F012FFE92001F00C
:104E10001BFFAA2001F00CFF002001F009FF002079
:104E200001F006FF002001F003FF002001F00CFF5D
:104E3000AA2001F0FDFECF2001F006FF002001F0C6
:104E4000F7FE002001F0F4FE002001F0F1FE00204A
:104E500001F0EEFE002001F0EBFE002001F0E8FE84
:104E6000002001F0E5FE002001F0E2FE002001F04C
:104E7000DFFE002001F0DCFE002001F0D9FE002062
:104E800001F0D6FE002001F0D3FE002001F0D0FE9C
:104E9000002001F0CDFE002001F0CAFE002001F04C
:104EA000C7FEF02001F0D0FE002001F0C1FE50202E
:104EB00001F0BEFE002001F0BBFE002001F0B8FEB4
:104EC000002001F0B5FEF32001F0BEFE002001F04D
:104ED000AFFEF92001F0B8FE062001F0A9FE102077
:104EE00001F0A6FE292001F0A3FE002001F0A0FEA3
:104EF0003A2001F0A9FE552001F09AFE112001F0A0
:104F0000A3FE6420FEF74EFC292001F09DFE352013
:104F100001F09AFE002001F08BFE512001F094FE7A
:104F2000FF2001F085FE532001F08EFE2C2001F0C1
:104F30007FFE552001F088FE822001F079FE2C20B2
:104F400001F082FE10BD10B555214FF4704001F004
:104F500091FEAA214FF2010001F08CFE52214FF286
:104F6000020001F087FE08214FF2030001F082FEEB
:104F700001214FF2040001F07DFE0D214FF430407D
:104F800001F078FE0D214BF2010001F073FE0D21BE
:104F90004BF2020001F06EFE34214FF4364001F076
:104FA00069FE34214BF2016001F064FE34214BF2C2
:104FB000026001F05FFE0D214FF4314001F05AFE16
:104FC0000D214BF2011001F055FE0D214BF20210A4
:104FD00001F050FE34214FF4374001F04BFE3421F4
:104FE0004BF2017001F046FE34214BF2027001F0E9
:104FF00041FE00214FF4324001F03CFE00214BF213
:10500000012001F037FE00214BF2022001F032FEB8
:1050100024214FF4384001F02DFE24214BF60100ED
:1050200001F028FE24214BF6020001F023FE0121AD
:105030004FF43F4001F01EFE0F214FF4334001F0CA
:1050400019FE0F214BF2013001F014FE0F214BF23B
:10505000023001F00FFE34214FF4394001F00AFE16
:1050600034214BF6011001F005FE34214BF60210FD
:1050700001F000FE08214FF4354001F0FBFD08214E
:105080004BF2015001F0F6FD08214BF2025001F005
:10509000F1FD03214FF4424001F0ECFD24214FF4D7
:1050A0003A4001F0E7FD24214BF6012001F0E2FD3A
:1050B00024214BF6022001F0DDFD00214FF43C409D
:1050C00001F0D8FD78214BF6014001F0D3FD00211D
:1050D0004BF6024001F0CEFD00214FF43D4001F0BF
:1050E000C9FD78214BF6015001F0C4FD00214BF6BB
:1050F000025001F0BFFD00214FF43E4001F0BAFD27
:1051000064214BF6016001F0B5FD00214FF45140E0
:1051100001F0B0FD33214DF2011001F0ABFD002193
:105120004DF2021001F0A6FD34214DF2031001F002
:10513000A1FD00214DF2041001F09CFD3A214DF239
:10514000051001F097FD00214DF2061001F092FDCF
:105150004A214DF2071001F08DFD00214DF208109B
:1051600001F088FD5C214DF2091001F083FD002162
:105170004DF20A1001F07EFD81214DF20B1001F07D
:1051800079FD00214DF20C1001F074FDA6214DF2C5
:105190000D1001F06FFD00214DF20E1001F06AFDBF
:1051A000E5214DF20F1001F065FD01214DF21010C7
:1051B00001F060FD13214DF2111001F05BFD0121A2
:1051C0004DF2121001F056FD54214DF2131001F072
:1051D00051FD01214DF2141001F04CFD82214DF2E0
:1051E000151001F047FD01214DF2161001F042FDAE
:1051F000CA214DF2171001F03DFD02214DF21810A9
:1052000001F038FD00214DF2191001F033FD0221AB
:105210004DF21A1001F02EFD01214DF21B1001F08C
:1052200029FD02214DF21C1001F024FD34214DF224
:105230001D1001F01FFD02214DF21E1001F01AFD9C
:1052400067214DF21F1001F015FD02214DF22010D3
:1052500001F010FD84214DF2211001F00BFD02211F
:105260004DF2221001F006FDA4214DF2231001F0B1
:1052700001FD02214DF2241001F0FCFCB7214DF29A
:10528000251001F0F7FC02214DF2261001F0F2FC8E
:10529000CF214DF2271001F0EDFC02214DF2281034
:1052A00001F0E8FCDE214DF2291001F0E3FC0221BF
:1052B0004DF22A1001F0DEFCF2214DF22B1001F02C
:1052C000D9FC02214DF22C1001F0D4FCFE214DF24C
:1052D0002D1001F0CFFC03214DF22E1001F0CAFC7D
:1052E00010214DF22F1001F0C5FC03214DF23010BA
:1052F00001F0C0FC33214DF2311001F0BBFC032161
:105300004DF2321001F0B6FC6D214DF2331001F078
:10531000B1FC00214FF4524001F0ACFC33214DF2BE
:10532000012001F0A7FC00214DF2022001F0A2FCB7
:1053300034214DF2032001F09DFC00214DF20420A8
:1053400001F098FC3A214DF2052001F093FC002178
:105350004DF2062001F08EFC4A214DF2072001F0AB
:1053600089FC00214DF2082001F084FC5C214DF203
:10537000092001F07FFC00214DF20A2001F07AFCA7
:1053800081214DF20B2001F075FC00214DF20C2023
:1053900001F070FCA6214DF20D2001F06BFC002104
:1053A0004DF20E2001F066FCE5214DF20F2001F0D8
:1053B00061FC01214DF2102001F05CFC13214DF243
:1053C000112001F057FC01214DF2122001F052FC96
:1053D00054214DF2132001F04DFC01214DF2142017
:1053E00001F048FC82214DF2152001F043FC01211F
:1053F0004DF2162001F03EFCCA214DF2172001F0BB
:1054000039FC02214DF2182001F034FC00214DF24C
:10541000192001F02FFC02214DF21A2001F02AFC84
:1054200001214DF21B2001F025FC02214DF21C2030
:1054300001F020FC34214DF21D2001F01BFC022163
:105440004DF21E2001F016FC67214DF21F2001F0E5
:1054500011FC02214DF2202001F00CFC84214DF2C0
:10546000212001F007FC02214DF2222001F002FC74
:10547000A4214DF2232001F0FDFB02214DF2242056
:1054800001F0F8FBB7214DF2252001F0F3FB0221DA
:105490004DF2262001F0EEFBCF214DF2272001F046
:1054A000E9FB02214DF2282001F0E4FBDE214DF260
:1054B000292001F0DFFB02214DF22A2001F0DAFB66
:1054C000F2214DF22B2001F0D5FB02214DF22C20D0
:1054D00001F0D0FBFE214DF22D2001F0CBFB03218A
:1054E0004DF22E2001F0C6FB10214DF22F2001F0CD
:1054F000C1FB03214DF2302001F0BCFB33214DF202
:10550000312001F0B7FB03214DF2322001F0B2FB54
:105510006D214DF2332001F0ADFB00214FF45340DB
:1055200001F0A8FB33214DF2013001F0A3FB002173
:105530004DF2023001F09EFB34214DF2033001F0B8
:1055400099FB00214DF2043001F094FB3A214DF219
:10555000053001F08FFB00214DF2063001F08AFB8F
:105560004A214DF2073001F085FB00214DF2083051
:1055700001F080FB5C214DF2093001F07BFB002142
:105580004DF20A3001F076FB81214DF20B3001F033
:1055900071FB00214DF20C3001F06CFBA6214DF2A5
:1055A0000D3001F067FB00214DF20E3001F062FB7F
:1055B000E5214DF20F3001F05DFB01214DF210307D
:1055C00001F058FB13214DF2113001F053FB012182
:1055D0004DF2123001F04EFB54214DF2133001F028
:1055E00049FB01214DF2143001F044FB82214DF2C0
:1055F000153001F03FFB01214DF2163001F03AFB6E
:10560000CA214DF2173001F035FB02214DF218305E
:1056100001F030FB00214DF2193001F02BFB02218B
:105620004DF21A3001F026FB01214DF21B3001F042
:1056300021FB02214DF21C3001F01CFB34214DF204
:105640001D3001F017FB02214DF21E3001F012FB5C
:1056500067214DF21F3001F00DFB02214DF2203089
:1056600001F008FB84214DF2213001F003FB0221FF
:105670004DF2223001F0FEFAA4214DF2233001F068
:10568000F9FA02214DF2243001F0F4FAB7214DF27B
:10569000253001F0EFFA02214DF2263001F0EAFA4E
:1056A000CF214DF2273001F0E5FA02214DF22830EA
:1056B00001F0E0FADE214DF2293001F0DBFA02219F
:1056C0004DF22A3001F0D6FAF2214DF22B3001F0E2
:1056D000D1FA02214DF22C3001F0CCFAFE214DF22C
:1056E0002D3001F0C7FA03214DF22E3001F0C2FA3D
:1056F00010214DF22F3001F0BDFA03214DF2303070
:1057000001F0B8FA33214DF2313001F0B3FA032140
:105710004DF2323001F0AEFA6D214DF2333001F02E
:10572000A9FA00214FF4544001F0A4FA33214DF2BC
:10573000014001F09FFA00214DF2024001F09AFA77
:1057400034214DF2034001F095FA00214DF204405E
:1057500001F090FA3A214DF2054001F08BFA002158
:105760004DF2064001F086FA4A214DF2074001F061
:1057700081FA00214DF2084001F07CFA5C214DF2E3
:10578000094001F077FA00214DF20A4001F072FA67
:1057900081214DF20B4001F06DFA00214DF20C40D9
:1057A00001F068FAA6214DF20D4001F063FA0021E4
:1057B0004DF20E4001F05EFAE5214DF20F4001F08E
:1057C00059FA01214DF2104001F054FA13214DF223
:1057D000114001F04FFA01214DF2124001F04AFA56
:1057E00054214DF2134001F045FA01214DF21440CD
:1057F00001F040FA82214DF2154001F03BFA0121FF
:105800004DF2164001F036FACA214DF2174001F070
:1058100031FA02214DF2184001F02CFA00214DF22C
:10582000194001F027FA02214DF21A4001F022FA44
:1058300001214DF21B4001F01DFA02214DF21C40E6
:1058400001F018FA34214DF21D4001F013FA022143
:105850004DF21E4001F00EFA67214DF21F4001F09B
:1058600009FA02214DF2204001F004FA84214DF2A0
:10587000214001F0FFF902214DF2224001F0FAF936
:10588000A4214DF2234001F0F5F902214DF224400C
:1058900001F0F0F9B7214DF2254001F0EBF90221BA
:1058A0004DF2264001F0E6F9CF214DF2274001F0FC
:1058B000E1F902214DF2284001F0DCF9DE214DF240
:1058C000294001F0D7F902214DF22A4001F0D2F926
:1058D000F2214DF22B4001F0CDF902214DF22C4086
:1058E00001F0C8F9FE214DF22D4001F0C3F903216A
:1058F0004DF22E4001F0BEF910214DF22F4001F083
:10590000B9F903214DF2304001F0B4F933214DF2E1
:10591000314001F0AFF903214DF2324001F0AAF914
:105920006D214DF2334001F0A5F900214FF45540AF
:1059300001F0A0F933214DF2015001F09BF9002153
:105940004DF2025001F096F934214DF2035001F06E
:1059500091F900214DF2045001F08CF93A214DF2F9
:10596000055001F087F900214DF2065001F082F94F
:105970004A214DF2075001F07DF900214DF2085007
:1059800001F078F95C214DF2095001F073F9002122
:105990004DF20A5001F06EF981214DF20B5001F0E9
:1059A00069F900214DF20C5001F064F9A6214DF285
:1059B0000D5001F05FF900214DF20E5001F05AF93F
:1059C000E5214DF20F5001F055F901214DF2105033
:1059D00001F050F913214DF2115001F04BF9012162
:1059E0004DF2125001F046F954214DF2135001F0DE
:1059F00041F901214DF2145001F03CF982214DF2A0
:105A0000155001F037F901214DF2165001F032F92D
:105A1000CA214DF2175001F02DF902214DF2185014
:105A200001F028F900214DF2195001F023F902216B
:105A30004DF21A5001F01EF901214DF21B5001F0F8
:105A400019F902214DF21C5001F014F934214DF2E4
:105A50001D5001F00FF902214DF21E5001F00AF91C
:105A600067214DF21F5001F005F902214DF220503F
:105A700001F000F984214DF2215001F0FBF80221E0
:105A80004DF2225001F0F6F8A4214DF2235001F01E
:105A9000F1F802214DF2245001F0ECF8B7214DF25B
:105AA000255001F0E7F802214DF2265001F0E2F80E
:105AB000CF214DF2275001F0DDF802214DF22850A0
:105AC00001F0D8F8DE214DF2295001F0D3F802217F
:105AD0004DF22A5001F0CEF8F2214DF22B5001F098
