:020000040800F2
:10000000F0160220D102000859310008432E0008E2
:10001000B93000088D060008D54700080000000030
:10002000000000000000000000000000DD350008B6
:10003000AD08000800000000E9310008453800085C
:10004000F7020008F7020008F7020008F7020008AC
:10005000F7020008F7020008F7020008F70200089C
:10006000F7020008F7020008F7020008F70200088C
:10007000F7020008F7020008F7020008F70200087C
:10008000F7020008F7020008F7020008F70200086C
:10009000F7020008F7020008F7020008F70200085C
:1000A000F7020008F7020008F7020008F70200084C
:1000B000F7020008F7020008F7020008F70200083C
:1000C000F7020008F7020008F7020008F70200082C
:1000D000F702000865470008F7020008F702000869
:1000E000F7020008F7020008F7020008F70200080C
:1000F000F7020008F7020008F7020008F7020008FC
:10010000F7020008F7020008F7020008F7020008EB
:10011000F7020008F702000869380008F702000833
:10012000F7020008F7020008F7020008F7020008CB
:10013000F7020008F7020008F7020008F7020008BB
:10014000F7020008F7020008F7020008F7020008AB
:10015000F7020008F7020008F7020008F70200089B
:10016000F7020008F7020008F7020008F70200088B
:10017000F7020008F7020008F7020008000000007C
:10018000F7020008F7020008F7020008F70200086B
:10019000F7020008F7020008F7020008F70200085B
:1001A000F7020008F7020008F7020008F70200084B
:1001B000F7020008F7020008F7020008F70200083B
:1001C000F7020008F702000800000000F70200082C
:1001D000F7020008F7020008F7020008F70200081B
:1001E000F7020008F7020008F7020008F70200080B
:1001F000F7020008F702000800F002F800F03EF8ED
:100200000AA090E8000C82448344AAF10107DA4571
:1002100001D100F033F8AFF2090EBAE80F0013F085
:10022000010F18BFFB1A43F0010318475487000061
:1002300074870000103A24BF78C878C1FAD85207F2
:1002400024BF30C830C144BF04680C607047000050
:100250000023002400250026103A28BF78C1FBD8CF
:10026000520728BF30C148BF0B6070471FB508F068
:1002700029FB00F0ECF81FBD10B510BD00F0C0F96F
:100280001146FFF7F3FF08F07BF900F0F2F903B431
:10029000FFF7F2FF03BC04F0BBFA00000B49D1F8F2
:1002A00000C04A685CF8043B1068184442F8040B2C
:1002B0008C4528BFA1F1DC0C8A4228BFA1F1DC02E9
:1002C000C1F800C04A6020F000407047840E022050
:1002D000DFF83000016841F4700101600A4880478E
:1002E0000A480047FEE7FEE7FEE7FEE7FEE7FEE717
:1002F000FEE7FEE7FEE7FEE705480649044A064B2F
:100300007047000088ED00E04D380008F901000852
:10031000F00E0220F0160220F00E0220704753EA81
:10032000020C00F069802DE9F04B4FF00006002B25
:100330001FBFB3FA83F503FA05F424FA05F65E400D
:1003400012BF1643B2FA82F502FA05F4C5F1200590
:100350001EBF22FA05FC44EA0C04203556EA044C80
:100360004FEA144418BF641C4FF000084FF0000916
:10037000904271EB030C39D3002919BFB1FA81F710
:1003800001FA07F6B0FA80F700FA07F6C7F120077E
:100390001EBF20FA07FC46EA0C062037B6FBF4FC29
:1003A000A7EB0507103F07F01F0BCBF120060CFA57
:1003B0000BFB2CFA06F644BFB3460026202FA4BF41
:1003C0005E464FF0000B5BEA060C08BF4FF0010BD6
:1003D00019EB0B09ABFB027C48EB0608C01B06FBC4
:1003E00002CC0BFB03CC71EB0C01C1E70B460246C0
:1003F00041464846BDE8F08B13B54FF000004FF082
:100400000001AFF30080BDE81C4070470FB4044901
:1004100010B503AA029800F0C5F810BC5DF814FBF3
:10042000080002200B4910B5A1F17C020A4CC2E978
:100430003712372106E000EB104342F82130074B1A
:1004400000FB03400B1EA1F10101F4DC10BD0120F3
:10045000E8E70000240E0220E119D666CD0D010068
:10046000032A40F2308010F0030C00F0158011F8E0
:10047000013BBCF1020F624498BF11F801CB00F8B8
:10048000013B38BF11F8013BA2F1040298BF00F80C
:1004900001CB38BF00F8013B11F0030300F02580C9
:1004A000083AC0F0088051F8043B083A51F804CBF0
:1004B000A0E80810F5E7121D5CBF51F8043B40F8B6
:1004C000043BAFF30080D20724BF11F8013B11F8C1
:1004D00001CB48BF11F8012B24BF00F8013B00F805
:1004E00001CB48BF00F8012B704710B5203AC0F08F
:1004F0000B80B1E81850203AA0E81850B1E8185025
:10050000A0E81850BFF4F5AF5FEA027C24BFB1E861
:100510001850A0E8185044BF18C918C0BDE81040D2
:100520005FEA827C24BF51F8043B40F8043B08BFDB
:100530007047D20728BF31F8023B48BF11F8012BA2
:1005400028BF20F8023B48BF00F8012B70474FF04E
:10055000000200B5134694469646203922BFA0E813
:100560000C50A0E80C50B1F12001BFF4F7AF09071F
:1005700028BFA0E80C5048BF0CC05DF804EB890010
:1005800028BF40F8042B08BF704748BF20F8022B53
:1005900011F0804F18BF00F8012B7047704770476B
:1005A00070477047074B70B50D467B4400F011F85B
:1005B0000446284600F020F810B14FF0FF3070BD1F
:1005C000204670BDFB42000001694A1C02610878A8
:1005D000704700B58FB0CDE9013100210591054983
:1005E0007944CDE903101146684600F02EF80FB0AB
:1005F00000BD0000E5FFFFFF007B00F080007047BA
:10060000754600F03FF8AE4605006946534620F0B7
:100610000700854618B020B5FFF76EFEBDE8204004
:100620004FF000064FF000074FF000084FF0000BAE
:1006300021F00701AC46ACE8C009ACE8C009ACE861
:10064000C009ACE8C0098D4670472DE9F041064667
:100650000024D6E90170F5688046304603E0414643
:10066000B847641C3046A8470028F8D12046BDE8AA
:10067000F08110B50446AFF300802046BDE810407D
:10068000FFF705BE004870478C0E022000BFFEE752
:100690000FB410B500212FE09DF80A400DF10B00BA
:1006A00000EBC40010F811009DF808402044C2B2CD
:1006B0009DF80A400DF10B0000EBC40000EB410077
:1006C00040789DF809402044C3B2002A0EDD0A2A72
:1006D0000CDC142B0ADC002B08DD02EB420000EBE3
:1006E000C200074C04EB4000C05C18B1002010BCF5
:1006F0005DF814FB481CC1B20429CDDB0120F6E7EC
:100700005A0A02200246002A0DDD152A0BDA0029BA
:1007100009DD1F2907DA02EB4210054B03EB40000D
:1007200030F8110008B1002070470120FCE70000FC
:100730006C04022010B50821114800F0A3FB28B971
:1007400010480088401C0F49088017E00D480088B9
:10075000002810DD0B48008814280CDA0A480078BD
:10076000012802D102F05CFF05E00748007802286A
:1007700001D103F0E9FB00200249088010BD000010
:10078000001C0240260002202E00022010B5042189
:10079000114800F077FB28B910480088401C0F4929
:1007A000088017E00D480088002810DD0B480088FD
:1007B00014280CDA0A480078012802D102F010FF50
:1007C00005E007480078022801D103F021F9002054
:1007D0000249088010BD0000001C024028000220D1
:1007E0002E00022010B54FF40051114800F04AFBD2
:1007F00028B910480088401C0E49088017E00D48B1
:100800000088002810DD0B48008814280CDA0A48FC
:100810000078012802D102F0F3FE05E006480078D6
:10082000022801D103F004FB00200249088010BD1A
:10083000000802402A0002202E00022010B50121EB
:10084000164800F01FFB012805D115480088401C00
:100850001349088021E01248008800281ADD10485A
:100860000088142816DA0F480078012802D102F017
:10087000E7FE05E00B480078022801D103F096FB63
:100880000948007830B906480088FFF7CBFD012001
:100890000549087000200249088010BD0000024090
:1008A0002C0002202E0002202F0002207047F8B5F5
:1008B00004460D460020C5EB0516822707EB4606C9
:1008C000B31C661CC6EB0616322707EB4602C5EBC7
:1008D0000516822707EB4601C4EB04163227009069
:1008E00007EB460006F0E0FD00206E1CC6EB061686
:1008F000822707EB4603661CC6EB0616322707EB7A
:1009000046026E1CC6EB0616822707EB4606B61E8D
:10091000B1B2C4EB04163227009007EB460006F094
:10092000C3FD00206E1CC6EB0616822707EB4603AC
:10093000C4EB0416322707EB4606B21CC5EB0516BE
:10094000822707EB4601C4EB04163227009007EB21
:10095000460006F0A9FD00206E1CC6EB0616822795
:1009600007EB4603661CC6EB0616322707EB46026A
:10097000C5EB0516822707EB4601661CC6EB06167B
:10098000322707EB4606B61E0090B0B206F08CFD8B
:1009900000206E1CC6EB0616822707EB4606B61F24
:1009A000B3B2661CC6EB0616322707EB4606B61F27
:1009B000B2B2C5EB0516822707EB4606B11DC4EBA4
:1009C0000416322707EB46060090B01D06F06CFDBA
:1009D000F8BD000070B504461D460023B5F5804FF4
:1009E00013D154F822300C480340D1E9000640EA04
:1009F00006108E6840EA06208E8940EA06408E691D
:100A00003043034344F8223003E06FF0704044F871
:100A10002200002070BD00000000F0CF10B502469B
:100A20000023086852F820301B480340D1E9010434
:100A30002043CC6820430C6920434C6920438C69D7
:100A40002043CC6920430C6A20434C6A20438C6AC3
:100A50002043CC6A20430C6B20438C6B20434C6BAF
:100A6000204303438868082801D143F04003086805
:100A700042F82030086BB0F5801F05D1086818B126
:100A800010680C6B20431060086818B110684C6B3C
:100A900020431060002010BD8004C0FF30B5034625
:100AA00014460022601C53F8202002F04042D1E995
:100AB000000540EA05108D6840EA05208D8940EA6E
:100AC0000545088A401E45EA0055087D801E45EA16
:100AD00000608D6928430243601C43F82020186899
:100AE00000F48010B0F5801F07D1586820F4700220
:100AF000088A401E42EA00525A60002030BD30B5DC
:100B00000246002300240868012816D013686FF3FA
:100B10000E03D1E901052843CD6828430D69284318
:100B20004D6928438D692843CD6928430D6A2843C0
:100B30004D6A28430343136019E0136823F4F84314
:100B4000D1E9070528434D6A2843034354686FF3EE
:100B50000E04D1E901052843CD6828430D692843D7
:100B60004D6928438D692843044313605460002075
:100B700030BD0246506940EA410050610020704794
:100B800018B5034600200090D1E9000420438C688A
:100B9000641E40EA4410CC6840EA4420009000986B
:100BA0001861002018BD000070B5034615460022EC
:100BB0000024012D1FD09A6802F070420868401E80
:100BC0004E68761E40EA06168868401E46EA0026F1
:100BD000C868401E46EA0036088A401E46EA0046BB
:100BE000888A401E46EA0056087E401E46EA00609B
:100BF00002439A6022E09A6811480240C868401E89
:100C00000603888A401E46EA00500243DC6804F06E
:100C100070440868401E4E68761E40EA06168868D2
:100C2000401E46EA0026088A401E46EA0046087E24
:100C3000401E46EA006004439A60DC60002070BDFC
:100C4000FF0F0FFF014691F83500022803D08020E6
:100C5000486501207047052081F835000868006864
:100C600020F001000A6810600020F3E7F8B50246A2
:100C70000B46002100250024002000BFE4E00126EF
:100C800006FA01F51E6806EA0504AC4271D15E68F9
:100C9000012E08D05E68022E05D05E68112E02D0AB
:100CA0005E68122E13D190684F000326BE40B043F9
:100CB0004F00DE68BE4030439060506801268E4091
:100CC000B0431E79C6F300168E4030435060D068A2
:100CD0004F000326BE40B0434F009E68BE403043E5
:100CE000D0605E68022E02D05E68122E13D1CF084B
:100CF00002F1200656F827004E07F70E0F26BE40D9
:100D0000B0434F07FF0E1E69BE403043CF0802F1CB
:100D1000200646F8270010684F000326BE40B04367
:100D20001E7906F003064F00BE40304310605E6837
:100D300006F08056B6F1805FA8D100BF444E3668F9
:100D400046F48046424F3E603E46366806F4804692
:100D5000009600BF00BF3F4E8F0856F827008E0751
:100D6000370F0F26BE40B0433B4EB24202D10026A1
:100D70002EE068E0394EB24201D1012628E0384E1B
:100D8000B24201D1022623E0364EB24201D10326FF
:100D90001EE0354EB24201D1042619E0334EB24274
:100DA00001D1052614E0324EB24201D106260FE0F1
:100DB000304EB24201D107260AE02F4EB24201D195
:100DC000082605E02D4EB24201D1092600E00A2690
:100DD0008F073F0FBE4030431E4E8F0846F8270056
:100DE000274E3068A0435E6806F48036B6F5803F33
:100DF00000D12043224E3060361D3068A0435E682B
:100E000006F40036B6F5003F00D120431C4E361DD7
:100E10003060361D3068A0435E6806F48016B6F573
:100E2000801F00D12043164E08363060361D3068D2
:100E3000A0435E6806F40016B6F5001F00D12043FB
:100E40000F4E0C363060491C1029FFF418AFF8BD66
:100E500044380240083801400000024000040240CB
:100E600000080240000C0240001002400014024042
:100E700000180240001C02400020024000240240F2
:100E8000003C0140024613690B400BB1012000E019
:100E90000020704742690A4012B10A04826100E0F2
:100EA000816170470AB1816101E00B048361704781
:100EB00001480068704700001000022003480068E5
:100EC000034909780844014908607047100002206E
:100ED0001800022010B50A48006840F40070084964
:100EE00008600846006840F480700860052000F043
:100EF000ABFA0F2000F006F800F056FA002010BD03
:100F0000003C024070B504460E4800784FF47A71F8
:100F1000B1FBF0F00C490968B1FBF0F5284601F08F
:100F2000C5FB08B1012070BD102C07D2002221465C
:100F3000501E00F04AFA0548046001E00120F2E783
:100F40000020F0E718000220000002201400022018
:100F500070B504460E46154600BF94F8A00001285F
:100F600001D1022070BD012084F8A00000BF022042
:100F700084F8A10005EB850101EBC50204F13801FD
:100F800001EB820034223146FFF7AFFA2A463146A0
:100F9000204601F07EFF01202168486284F8A1000C
:100FA00000BF002084F8A00000BF00BFDAE7000007
:100FB00070B504460CB9012070BD94F8A10028B9A1
:100FC000002084F8A000204600F07EF8022084F87B
:100FD000A1002068806920F0704021688861D4E910
:100FE00001010843E16808432169084321688969D0
:100FF0000843216888612068806832490840216878
:101000008860A08A050420688068A1692943084394
:10101000216888602068C0682A4908402168C86043
:10102000A08B05042068C068216A29430843216811
:10103000C860206800692349084021680861A08CC5
:10104000050420680069A16A2943084321680861F2
:10105000206840691B49084021684861A08D05044B
:1010600020684069216B294308432168486194F84E
:101070003500050294F8360006042068C06A00F0C6
:101080007F402168C86246EA050094F8341008439E
:101090002168C96A08432168C8622068406B40F033
:1010A0000600216848632068806940F001002168DB
:1010B00088610020C4F8A400012084F8A100002069
:1010C0007AE7000000F800F010B586B0044600BFD3
:1010D0004748006840F0806045490860084600685D
:1010E00000F08060009000BF00BF00BF404814388F
:1010F000006840F400003E49143908600846006862
:1011000000F40000009000BF00BF00BF0846006868
:1011100040F0020008600846006800F002000090FD
:1011200000BF00BF00BF0846006840F02000086014
:101130000846006800F02000009000BF00BF00BF1C
:101140000846006840F0400008600846006800F06B
:101150004000009000BF00BF00BF0846006840F09C
:10116000800008600846006800F08000009000BF22
:1011700000BF00BF0846006840F480700860084661
:10118000006800F48070009000BF00BF2020019034
:101190000120029003900320049001A91548FFF755
:1011A00065FD4FF4806001900220029000200390C2
:1011B000032004900E20059001A90F48FFF756FD6B
:1011C0004FF40C60019001A90C48FFF74FFD4FF45C
:1011D0007E40019001A90A48FFF748FD40F2F76000
:1011E000019001A90748FFF741FD06B010BD0000BE
:1011F000443802400004024000140240001802403B
:10120000001C0240002002402DE9F04104460E4639
:101210001746984600BF94F8A000012802D102208A
:10122000BDE8F081012084F8A00000BF022084F80E
:10123000A10008EB880000EBC80104F1380000EBC6
:1012400081052E60A86A30446860AF60E86A38445F
:10125000E86042462946204601F01BFE0120216835
:10126000486284F8A10000BF002084F8A00000BFFD
:1012700000BFD5E72DE9F04104460E4617469846D3
:1012800000BF94F8A000012802D10220BDE8F0813F
:10129000012084F8A00000BF022084F8A10008EB20
:1012A000880000EBC80104F1380000EB81052868D4
:1012B00030446860A8683844E860AE62EF62424635
:1012C0002946204601F0E5FD01202168486284F8A6
:1012D000A10000BF002084F8A00000BF00BFD5E738
:1012E0004178154A11600178F9B1121D4168116009
:1012F000017B0907C27A41EA0261827A41EAC2416E
:10130000427B41EA8241827B41EA4241C27B41EA1F
:101310000241427A41EA0221027A41EA420102781C
:101320001143054A0832116005E00021024A121DEE
:101330001160121D1160704798ED00E000BF00BF02
:1013400000BFBFF35F8F00BF00BF00BF054800684C
:1013500020F48030034908600020024970310860A1
:101360007047000024ED00E040F001010D4A1160DB
:101370000C497039096841F480310A4A703A1160A9
:1013800000BF00BF00BFBFF34F8F00BF00BF00BF53
:1013900000BF00BF00BFBFF36F8F00BF00BF00BF23
:1013A0007047000094ED00E07047014608460028B1
:1013B00009DB00F01F0301229A4043099B0003F15F
:1013C000E023C3F8002100BF70472DE9F05F80469D
:1013D0000D461646002703F0FFF9074639462A4610
:1013E000334601F00700C0F1070ABAF1040F02D931
:1013F0004FF0040A01E0C0F1070AD14600F1040AE7
:10140000BAF1070F02D24FF0000A01E0A0F1030A7F
:10141000D4464FF0010A0AFA09FAAAF1010A0AEAC7
:10142000020A0AFA0CFA4FF0010B0BFA0CFBABF1B3
:10143000010B0BEA030B4AEA0B042146404603F07A
:10144000D3F9BDE8F09F000000BF00F00702064B93
:1014500019684FF6FF031940044B0B4343EA02217E
:10146000014B196000BF70470CED00E00000FA0569
:1014700038B5002400BF2048006840F080501E4965
:1014800008600846006800F08050009000BF00BF70
:101490001A48006840F4803018490860FFF708FDDA
:1014A000044607E0FFF704FD001BB0F57A7F01D981
:1014B000032038BD1148406800F48030B0F5803F0B
:1014C000F0D10E48006840F400300C490860FFF786
:1014D000EFFC044607E0FFF7EBFC001BB0F57A7F5A
:1014E00001D90320E5E70548406800F40030B0F575
:1014F000003FF0D10020DCE740380240007000409F
:101500002DE9F8430446002600250027A846A946F1
:10151000207800F0010088B100BFFE48006820F488
:101520000000FC49086008460068616B0843F949FF
:10153000086000BF606B08B94FF00108206800F434
:101540000020B0F5002F13D1F2488430006820F459
:101550004010E16B0843EF4984310860E06BB0F55F
:10156000801F01D14FF00108E06B08B94FF001096D
:10157000206800F48010B0F5801F13D1E548843056
:10158000006820F44000216C0843E249843108607F
:10159000206CB0F5800F01D14FF00108206C08B924
:1015A0004FF00109206800F08070B0F1807F01D118
:1015B0004FF00108207800F02000202870D100BFF3
:1015C000D4483830006840F08050D2493831086043
:1015D0000846006800F08050009000BF00BFCE4871
:1015E000006840F48070CC490860FFF761FC064653
:1015F00007E0FFF75DFC801B642802D90320BDE8EB
:10160000F883C548006800F480700028F1D0C14814
:101610006830006800F4407585B3208E00F4407097
:10162000A8422BD0BB486830006820F44075B94808
:101630006830006840F48030B64968310860084678
:10164000006820F48030086008460560006800F0FB
:10165000010098B1FFF72CFC064608E0FFF728FCD4
:10166000801B41F28831884201D90320C7E7A9488D
:1016700068300068C0F340000028EFD000BF208E23
:1016800000F44070B0F5407F0BD1A248006820F410
:10169000F810A24A216B114008439E49086006E0F9
:1016A00010E09C48006820F4F8109A4908609948B6
:1016B00068300068218EC1F30B01084395496831F9
:1016C000086000BF207800F01000102810D100BF83
:1016D00090488430006820F080708E498431086022
:1016E00008460068A16B08438A498431086000BF3E
:1016F000208800F48040B0F5804F09D185488830BB
:10170000006820F44030616E0843824988310860E7
:10171000208800F40040B0F5004F09D17D488830A2
:10172000006820F44020A16E08437A49883108609F
:10173000206800F48030B0F5803F09D175488830CA
:10174000006820F44010E16E084372498831086057
:10175000206800F40030B0F5003F09D16D488830B2
:10176000006820F44000216F08436A49883108600E
:10177000207800F04000402809D166488830006891
:1017800020F00300616C08436249883108602078CA
:1017900000F08000802809D15E488830006820F081
:1017A0000C00A16C08435B4988310860208800F474
:1017B0008070B0F5807F09D156488830006820F0ED
:1017C0003000E16C0843534988310860208800F4F8
:1017D0000070B0F5007F09D14E488830006820F0D5
:1017E000C000216D08434B4988310860208800F40F
:1017F0008060B0F5806F09D146488830006820F4D9
:101800004070616D0843434988310860208800F4C6
:101810000060B0F5006F09D13E488830006820F4C0
:101820004060A16D08433B4988310860208800F47E
:101830008050B0F5805F09D136488830006820F4C8
:101840004050E16D0843334988310860208800F436
:101850000050B0F5005F09D12E488830006820F4B0
:101860004040216E08432B4988310860206800F40D
:101870008000B0F5800F09D126488830006820F03C
:101880008060A16F0843234988310860206800F414
:101890000010B0F5001F0FD11E488830006820F0FE
:1018A0000060E16F08431B4988310860E06FB0F1C8
:1018B000006F01D14FF00109207800F008000828DE
:1018C00001D14FF00109206800F48020B0F5802F8D
:1018D00009D110488830006820F04070616F0843DB
:1018E0000C4988310860206800F40000B0F5000F52
:1018F0000AD108488830006820F08050D4F8801061
:101900000843044988310860206800F08060B0F125
:10191000806F05E00838024000700040FFFCFF0FB8
:1019200008D1CC48006820F00050D4F88410084357
:10193000C8490860206800F00060B0F1006F0AD16B
:10194000C448001F006820F00070D4F888100843D5
:10195000C049091F0860206800F08050B0F1805F26
:101960000AD1BC48001F006820F08060D4F88C10B9
:101970000843B849091F0860B8F1010F03D0206877
:10198000B0F1007F7ED1B3489038006820F08060CD
:10199000B04990390860FFF78BFA064606E0FFF77A
:1019A00087FA801B642801D9032028E6A9489038CB
:1019B0000068C0F3C0600028F1D1207800F0010079
:1019C000B8B1606BA8B9A3480C380068C0F30145F2
:1019D000A0480C380068C0F303676068800140EAE3
:1019E000054040EA0761207A41EA007099490C39C4
:1019F0000860206800F40020B0F5002F03D1E06BF0
:101A0000B0F5801F09D0206800F48010B0F5801F69
:101A100024D1206CB0F5800F20D18E480C3800689E
:101A2000C0F301458B480C380068C0F3027760684A
:101A3000800140EA0541207B41EA006040EA0770EE
:101A400084490C3908608348001F006820F01F009B
:101A5000616A491E08437F49091F0860206800F039
:101A60008070B0F1807F17D17A480C380068C0F3DD
:101A7000036578480C380068C0F30277606881011C
:101A8000208A00E036E041EA004040EA056040EA92
:101A9000077070490C390860206800F00070B0F1E0
:101AA000007F0DD160688101208A41EA0041207BDE
:101AB00041EA0061207A41EA007066490C39086009
:101AC00064489038006840F080606249903908604E
:101AD000FFF7EEF9064606E0FFF7EAF9801B6428F7
:101AE00001D903208BE55B4890380068C0F3C060E3
:101AF0000028F1D0B9F1010F7ED156489038006826
:101B000020F08050534990390860FFF7D1F906461C
:101B100006E0FFF7CDF9801B642801D903206EE5AC
:101B20004C4890380068C0F340700028F1D120681C
:101B300000F40020B0F5002F01D1E06B38B120682F
:101B400000F48010B0F5801F22D1206C00BB41480A
:101B500008380068C0F301453E4808380068C0F303
:101B600002776069800140EA0541207E41EA006019
:101B700040EA0770374908390860081D006820F4FA
:101B8000F851A06A401E41EA00203249091F08604E
:101B9000206800F40010B0F5001F19D1E06FB0F11B
:101BA000006F15D12B4808380068C0F30365294839
:101BB00008380068C0F3027760698101208C41EA2F
:101BC000004040EA056040EA077022490839086091
:101BD000207800F00800082820D11E480838006846
:101BE000C0F303651B4808380068C0F3014760690B
:101BF000800140EA074000E02AE040EA0561207FDA
:101C000041EA0070134908390860081D006820F493
:101C10004030E16A08430F49091F08600D489038B9
:101C2000006840F080500B4990390860FFF740F998
:101C3000064606E0FFF73CF9801B642801D9032023
:101C4000DDE4044890380068C0F340700028F1D00B
:101C50000020D4E49038024070B504460D460026BA
:101C60000CB9012070BD5C48006800F00F00A8426C
:101C70000ED25948006820F00F00284356490860EA
:101C80000846006800F00F00A84201D00120E9E7F3
:101C9000207800F0020002281DD1207800F0040016
:101CA000042805D14D48006840F4E0504B490860D5
:101CB000207800F00800082805D14848006840F462
:101CC0006040464908604548006820F0F000A1687F
:101CD000084342490860207800F0010090B3606832
:101CE000012807D13D4808380068C0F34040A0B93A
:101CF0000120B7E76068022807D138480838006833
:101D0000C0F3406048B90120ACE7344808380068A7
:101D1000C0F3400008B90120A4E73048006820F073
:101D20000300616808432D490860FFF7C1F80646C3
:101D300009E0FFF7BDF8801B41F28831884202D9E3
:101D400003208FE707E02548006800F00C00616879
:101D5000B0EB810FEDD12048006800F00F00A842E1
:101D60000ED91D48006820F00F0028431A4908606A
:101D70000846006800F00F00A84201D0012071E77A
:101D8000207800F00400042807D11448006820F4EB
:101D9000E050E168084311490860207800F008002D
:101DA000082808D10D48006820F46040216940EA05
:101DB000C1000A49086000F03FF808490968C1F30A
:101DC0000311074A515CC84006490860064800688C
:101DD000FFF798F8002045E7003C02400838024031
:101DE000CE8800080000022014000220014800688C
:101DF000704700000000022000B5FFF7F7FF04491C
:101E00000968C1F38221034A515CC84000BD00004B
:101E100008380240DE88000800B5FFF7E7FF0449F4
:101E20000968C1F34231034A515CC84000BD00005B
:101E300008380240DE8800082DE9F047002400251C
:101E40000026A1462548006800F00C0020B10428B7
:101E500005D008283AD105E0DFF8849039E0DFF8B2
:101E6000849036E01D48001F006800F03F041B48C6
:101E7000001F006800F4800078B11A481749091F54
:101E80000968C1F38811A0FB0170014622460023B6
:101E90003846FEF744FA05460EE011480F49091F7F
:101EA0000968C1F38811A0FB017001462246002396
:101EB0003846FEF734FA05460848001F0068C0F3AC
:101EC0000140401C4600B5FBF6F902E0DFF8109037
:101ED00000BF00BF4846BDE8F08700000838024058
:101EE0000024F40040787D01F8B5044600270CB9C1
:101EF0000120F8BD207800F00100002871D0F948D9
:101F0000006800F00C0004280DD0F648006800F0CE
:101F10000C00082813D1F348001F006800F480006B
:101F2000B0F5800F0BD1EF4808380068C0F340408F
:101F3000002869D06068002866D10120D9E700BF79
:101F40006068B0F5803F08D1E6480838006840F482
:101F50008030E449083908602EE0606868B9E148DB
:101F60000838006820F48030DE49083908600846E7
:101F7000006820F4802008601EE06068B0F5A02FA3
:101F80000DD1D8480838006840F48020D549083978
:101F900008600846006840F4803008600CE0D148D2
:101FA0000838006820F48030CE49083908600846B7
:101FB000006820F48020086000BF606890B1FEF7E0
:101FC00077FF054606E0FEF773FF401B642801D942
:101FD00003208EE7C34808380068C0F3404000285B
:101FE000F1D011E0FEF764FF054606E0FEF760FF62
:101FF000401B642801D903207BE7BA4808380068F1
:10200000C0F340400028F1D1207800F002000228FF
:1020100069D1B448006800F00C0058B1B1480068BC
:1020200000F00C0008281CD1AE48001F006800F426
:102030008000B0B9AB4808380068C0F3400020B158
:10204000E068012801D0012053E7A648083800685D
:1020500020F0F800216940EAC100A249083908606F
:1020600041E0E06828B39F480838006840F001006C
:102070009C4908390860FEF71BFF054606E0FEF79D
:1020800017FF401B022801D9032032E79548083882
:102090000068C0F340000028F1D09248083800687A
:1020A00020F0F800216940EAC1008E490839086033
:1020B00019E08C480838006820F001008949083987
:1020C0000860FEF7F5FE054606E0FEF7F1FE401B50
:1020D000022801D903200CE7824808380068C0F3C1
:1020E00040000028F1D1207800F00800082836D1FF
:1020F0006069D0B17B486C30006840F001007949DC
:102100006C310860FEF7D4FE054606E0FEF7D0FE0F
:10211000401B022801D90320EBE672486C300068AE
:10212000C0F340000028F1D019E06E486C30006820
:1021300020F001006B496C310860FEF7B9FE0546DE
:1021400006E0FEF7B5FE401B022801D90320D0E6C9
:1021500064486C300068C0F340000028F1D120785A
:1021600000F00400042874D15E483830006800F0A4
:10217000805080B900BF5B483830006840F0805024
:102180005849383108600846006800F080500090D7
:1021900000BF00BF01275448006800F48070B0B948
:1021A0005148006840F480704F490860FEF780FE97
:1021B000054606E0FEF77CFE401B642801D903209B
:1021C00097E64948006800F480700028F2D000BF0C
:1021D000A068012808D143486830006840F0010039
:1021E0004049683108602DE0A06868B93D48683012
:1021F000006820F001003B4968310860084600682B
:1022000020F0040008601DE0A06805280DD13548C5
:102210006830006840F004003249683108600846C0
:10222000006840F0010008600CE02E48683000684B
:1022300020F001002B49683108600846006820F052
:102240000400086000BFA068A8B1FEF731FE054693
:1022500009E02EE0FEF72CFE401B41F28831884257
:1022600001D9032045E61F4868300068C0F34000EC
:102270000028EFD013E0FEF71BFE054608E0FEF74E
:1022800017FE401B41F28831884201D9032030E615
:10229000144868300068C0F340000028EFD1012FD7
:1022A00007D110483830006820F080500D4938318F
:1022B0000860A069002854D00A48006800F00C00AB
:1022C000082867D0A06902284CD106480838006861
:1022D00020F08070034908390860FEF7E9FD0546E3
:1022E0000BE000000838024000700040FEF7E0FDFF
:1022F000401B022801D90320FBE53F480068C0F3DA
:1023000040600028F2D1D4E907010843616A40EA3D
:1023100081110122A06AC2EB500041EA00412C2049
:10232000005D41EA00613020005D41EA0070324901
:10233000091D0860081F006840F08070091F0860D0
:10234000FEF7B6FD054606E0FEF7B2FD401B02288B
:1023500001D90320CDE528480068C0F3406000287B
:10236000F2D047E02448006820F0807022490860DD
:10237000FEF79EFD054606E0FEF79AFD401B02288B
:1023800001D90320B5E51C480068C0F3406000286F
:10239000F2D12FE01848001D0668A069012827D057
:1023A00006F48001E069814222D106F03F01206AF3
:1023B00081421DD147F6C0703040616AB0EB811F89
:1023C00016D106F440310122A06AC2EB5000B1EBF5
:1023D000004F0DD106F070612C20005DB1EB006F55
:1023E00006D106F0E0413020005DB1EB007F01D066
:1023F00001207EE500207CE50038024070B50446EF
:102400000D460CB9012070BD94F82C0028B90020AD
:1024100084F82D00204600F011F8022084F82C00EA
:10242000211D2068FEF76BFB2946D4E90002FEF768
:10243000BBFB012084F82C000020E4E710B586B037
:10244000044600BF3E48006840F001003C49086077
:102450000846006800F00100009000BF00BF00BF08
:1024600037480838006840F00400354908390860EA
:102470000846006800F00400009000BF00BF00BFE5
:102480000846006840F0080008600846006800F050
:102490000800009000BF00BF00BF0846006840F081
:1024A000100008600846006800F01000009000BFAF
:1024B00000BF00BF0846006840F0200008600846E2
:1024C000006800F02000009000BF00BF00BF084679
:1024D000006840F0400008600846006800F04000D6
:1024E000009000BF00BF0D2001900220029001204B
:1024F0000390032004900C20059001A91148FEF7D9
:10250000B5FB4CF20370019001A90F48FEF7AEFB3A
:102510004FF68370019001A90C48FEF7A7FB4FF618
:102520003F00019001A90A48FEF7A0FB48F23710CE
:10253000019001A90748FEF799FB06B010BD000005
:102540003838024000080240000C024000100240EF
:10255000001402400018024070B504460D4694F87D
:102560002C00022800D170BD022084F82C002946DE
:102570002068FEF7FEFA012084F82C000020F2E724
:1025800070B504460D46164694F82C00022800D17A
:1025900070BD022084F82C00324629462068FEF7E0
:1025A000EFFA2868022803D1052084F82C0002E005
:1025B000012084F82C000020EAE770B504460E469E
:1025C00015460CB9012070BD94F8450028B90020CB
:1025D00084F84400204600F01DF804F1080120684A
:1025E000FEF71CFA3146A2682068FEF757FA294622
:1025F000E36AD4E90102FEF7EDF9A168206850F81A
:10260000210040F00100A268216841F8220000206A
:10261000D9E7000010B586B0044600BF2048006826
:1026200040F001001E4908600846006800F0010003
:10263000009000BF00BF00BF19480838006840F094
:1026400008001749083908600846006800F00800CB
:10265000009000BF00BF00BF0846006840F01000B7
:1026600008600846006800F01000009000BF00BF3E
:102670004EF2B370019002200290012003900220DC
:1026800004900C20059001A90648FEF7EFFA4FF6DA
:102690008070019001A90448FEF7E8FA06B010BD69
:1026A00038380240000C02400010024070B5044669
:1026B0002546681EB0F1807F01D301200FE0681E1F
:1026C0004FF0E02148610F214FF0FF3002F08CF80D
:1026D00000204FF0E021886107200861002070BDD4
:1026E00070477047704710B504460CB9012010BD03
:1026F00094F83D0028B9002084F83C00204600F002
:102700000DF8022084F83D00211D206801F0B4F886
:10271000012084F83D000020E9E7000038B50446B8
:102720000E492068884217D100BF00BF0C480068DE
:1027300040F010000A4908600846006800F01000E8
:10274000009000BF00BF00BF032201213620FEF72A
:102750003CFE3620FEF729FE38BD00000010004088
:102760004038024001460868C06840F001000B682C
:10277000D86008688068084B00EA0302062A08D07F
:10278000B2F5803F05D00868006840F001000B6892
:10279000186000207047000007000100704710B566
:1027A000044620680069C0F34000D8B12068C068C2
:1027B000C0F34000B0B16FF0020021680861012051
:1027C00020772068806900F0030018B12046FFF7E9
:1027D000E5FF05E0204600F0BEF8204600F0BCF81A
:1027E0000020207720680069C0F38000D8B12068FD
:1027F000C068C0F38000B0B16FF0040021680861C8
:10280000022020772068806900F4407018B12046CB
:10281000FFF7C4FF05E0204600F09DF8204600F0D9
:102820009BF80020207720680069C0F3C000D8B171
:102830002068C068C0F3C000B0B16FF00800216824
:102840000861042020772068C06900F0030018B1F7
:102850002046FFF7A3FF05E0204600F07CF8204665
:1028600000F07AF80020207720680069C0F300109B
:10287000D8B12068C068C0F30010B0B16FF010008C
:1028800021680861082020772068C06900F4407042
:1028900018B12046FFF782FF05E0204600F05BF804
:1028A000204600F059F8002020772068006900F0E9
:1028B000010058B12068C06800F0010030B16FF02D
:1028C000010021680861204600F048F8206800698E
:1028D000C0F3C01058B12068C068C0F3C01030B158
:1028E0006FF08000216808612046FFF7FAFE20683B
:1028F0000069C0F3002058B12068C068C0F3C01060
:1029000030B16FF48070216808612046FFF7E8FE5F
:1029100020680069C0F3801058B12068C068C0F317
:10292000801030B16FF0400021680861204600F04F
:102930004FF820680069C0F3401058B12068C068A3
:10294000C0F3401030B16FF02000216808612046CC
:10295000FFF7C8FE10BD70477047000010B5014674
:10296000184A086890422BD1002024E000EB400276
:10297000154B03EB82025288521E00EB4003124CAF
:1029800004EB83035A8000EB4002234603EB8202F0
:10299000528872B900EB400203EB8202928800EB8E
:1029A000400304EB83035A80012200EB400304F848
:1029B0002320421CD0B2054A12789042D6DB00BFD9
:1029C00010BD0000001000407C0302202400022003
:1029D00070477047704700002DE9F04704462068B3
:1029E000C569206806682068876840F60F0005EA18
:1029F0000008B8F1000F0CD105F0200048B106F036
:102A0000200030B1206E10B12046216E8847BDE80D
:102A1000F087B8F1000F7DD007F0010018B906F477
:102A200090700028F7D005F0010048B106F48070DE
:102A300030B1012021680862E06F40F00100E067DA
:102A400005F0020048B107F0010030B10220216812
:102A50000862E06F40F00400E06705F0040048B150
:102A600007F0010030B1042021680862E06F40F0F7
:102A70000200E06705F0080060B106F0200010B920
:102A800007F0010030B1082021680862E06F40F0D3
:102A90000800E06705F4006050B106F0806038B1CE
:102AA0004FF4006021680862E06F40F02000E067AA
:102AB000E06F80B305F0200038B106F0200020B1AF
:102AC000206E10B12046216E8847D4F87C90206893
:102AD000806800F04000402802D009F0280030B3A0
:102AE000204601F086FB2068806800F04000402806
:102AF00019D12068806820F0400021688860E06E6D
:102B000068B12148E16E0865E06EFEF79BF810B1F0
:102B1000E06E01E011E00FE0016D88470CE0204617
:102B2000FFF758FF08E02046FFF754FF04E0204677
:102B3000FFF750FF0020E06769E705F4801050B10F
:102B400007F4800038B14FF48010216808622046F5
:102B5000FFF73FFF5BE705F0800040B106F0800023
:102B600028B1606E10B12046616E88474FE705F0CE
:102B7000400030B106F0400018B1204601F04AFB99
:102B800045E700BF43E70000DB41000810B50446FD
:102B90000CB9012010BDA06900B100E000BF606F5A
:102BA00028B9002084F87000204600F029F824207D
:102BB00060672068006820F00100216808602046F6
:102BC00001F0A2FB012800D1E4E7606A10B12046C1
:102BD00001F050FA2068406820F490402168486075
:102BE0002068806820F02A002168886020680068DA
:102BF00040F0010021680860204601F0B7FAC9E7FB
:102C000010B586B004462B49206888424FD100BFDA
:102C100000BF2948006840F01000274908600846B6
:102C2000006800F01000009000BF00BF00BF00BFB0
:102C300000BF21481438006840F001001E491439D3
:102C400008600846006800F00100009000BF00BF67
:102C500000BF00BF00BF0846006840F001000860E8
:102C60000846006800F00100009000BF00BF00BFF0
:102C70004815019002200290012003900220049048
:102C80000720059001A90D48FDF7F0FF4FF4806083
:102C900001900720059001A90848FDF7E7FF2520CE
:102CA000FEF783FB032211462520FEF78EFB06B0BC
:102CB00010BD0000001001404438024000000240F6
:102CC00010B50346986F202865D101B10AB90120DB
:102CD00010BD00BF93F87000012801D10220F7E772
:102CE000012083F8700000BF5965A3F85820A3F8AD
:102CF0005A200020186600BF9868B0F5805F0AD19E
:102D0000186920B940F2FF10A3F85C0020E0FF2012
:102D1000A3F85C001CE0986848B9186918B9FF204E
:102D2000A3F85C0014E07F20A3F85C0010E0986832
:102D3000B0F1805F09D1186918B97F20A3F85C0051
:102D400006E03F20A3F85C0002E00020A3F85C004E
:102D500000BF0020D867222098671868806840F07C
:102D600001001C68A0609868B0F5805F04D1186904
:102D700010B90A48186601E00948186600BF00202B
:102D800083F8700000BF1868006840F490701C68F9
:102D9000206000209CE702209AE7000035420008EE
:102DA000A142000810B504462049206888423BD162
:102DB0001F48008800F4004088BB1D48008800F4CC
:102DC000804070B11B4800780A2803D000201849C1
:102DD000088024E01648008840F400401449088028
:102DE0001DE0144800780D2806D11148008840F4F1
:102DF00080400F49088012E00E4800780C4909888D
:102E0000C1F30D010C4A505409480088401C084980
:102E1000088008460088C72801DD002008800122BC
:102E200004490648FFF74CFF10BD000000100140A8
:102E30000C0002200E000220440002200C0102209F
:102E4000704700BFFEE710B505F0A2FCFEF742F8A0
:102E50000923022219214FF4D87005F0A7FCD820CD
:102E600001F0EEFC4FF4E13005F010FD05F006F83E
:102E700005F0ACFB05F00EFC04F04EFB01F022FD6A
:102E800040F2374140F2E73001F0C4FC00F08EFD23
:102E900010BDF0B58E880768FF68C7F30B473E4446
:102EA000330406688436802707FB0266766806F4DA
:102EB0007047066884364FF0800C0CFB0266776022
:102EC0000E680768FF68C7F30B473E44761C1E4335
:102ED000076884370CFB02777E608E890768FF687D
:102EE000C7F30A073E44330406688436802707FB8D
:102EF0000266B66806F47047066884360CFB026604
:102F0000B7608E680768FF68C7F30A073E44761CFF
:102F100046EA0307066884360CFB0266B76006685B
:102F20008436802707FB0266366926F007070668A5
:102F300084360CFB026637610F69066884360CFB29
:102F4000026637613126765C33023226765C3404C1
:102F50000E7E350606688436802707FB0266B66952
:102F60000027066884360CFB0266B76191F8306072
:102F70001E43264346EA0507066884360CFB0266B4
:102F8000B76106688436802707FB0266766926F0FB
:102F9000FF07066884360CFB026677614F69066896
:102FA00084360CFB0266776106688436802707FB4F
:102FB0000266F66940F20777BE43076884370CFB68
:102FC0000277FE61D1E907763743066884360CFB49
:102FD0000266F76106688436802707FB0266B66AD8
:102FE0000027066884360CFB0266B7624F6A0668E3
:102FF00084360CFB0266B7620E690EB9042313E037
:103000000E69012E01D103230EE00E69042E08D0B3
:103010000E69022E05D00E69032E02D00E69072E0E
:1030200001D1022300E0012306688436802707FBD4
:103030000266F66A06F0E027066884364FF0800CD8
:103040000CFB0266F762D1E90076F61B5E43F61CC4
:103050000F8D5F4346EA0747066884360CFB02661D
:10306000F76206688436802707FB0266366BF70A2C
:10307000FF02066884360CFB02663763CF6A066877
:1030800084360CFB0266376306688436D701F6592E
:1030900046F00107066884364FEAC21C46F80C70F9
:1030A000F0BD000010B500BF02210248FDF7F2FE9E
:1030B00000BF10BD0004024000BF002201211848DB
:1030C000FDF7F0FE00BF17A0FDF7A0F94FF47A70EE
:1030D00001F0BCFB19A0FDF799F94FF47A7001F0EB
:1030E000B5FB00BF00BF00BF00BF00BFBFF34F8FE5
:1030F00000BF00BF00BF1648006800F4E06015493B
:103100000843001D1249086000BF00BF00BFBFF3A5
:103110004F8F00BF00BF00BF00BF00BFFDE7000032
:10312000000402404D656D20416363657373204563
:1031300072726F7221210D0A00000000536F6674D5
:10314000205265736574696E672E2E2E0D0A00007D
:103150000CED00E00000FA057047000010B58EB0DD
:10316000FDF79CF8072190FBF1F201FB1200401CD7
:10317000C4B2C4EBC40000EB8000184A81182322BB
:103180001748FDF76DF91322154910316846FDF710
:1031900067F92322124905A8FDF762F905A80FC8AF
:1031A000FDF776FAC0B901200E49087013220C49C8
:1031B00010316846FDF754F92322094905A8FDF7A7
:1031C0004FF905A80FC801F0D5FA00F063FE2322DD
:1031D00002490348FDF744F90EB010BD6A0C022005
:1031E000820D022043000220704700000FB430B56A
:1031F000002023E09DF80E400DF10F0303EBC40304
:1032000013F810309DF80C402344D9B29DF80E40BD
:103210000DF10F0303EBC40303EB40035B789DF850
:103220000D402344DAB2002301EB410404EBC10456
:10323000054D05EB4404A354411CC8B20428D9DB56
:1032400030BC5DF814FB00005A0A02202DE9F84357
:103250008648007820B900F003FA012083490870FD
:1032600000F04EFA01248AE0012583E080480078CE
:10327000844215D17F480078854211D1284605F057
:10328000FEFA0A3086B2204605F0F2FA0A3087B21A
:103290004FF478430A223146384601F079FC67E062
:1032A00075480078844221D17448007885421DD148
:1032B000691CC8B205F0E3FA401E86B2611CC8B2B0
:1032C00005F0D6FA401E87B2284605F0D8FA8046A7
:1032D000204605F0CDFA81464FF6E07033463A4677
:1032E00041460090484604F0DFF841E004EB44100A
:1032F000634901EB400030F81500E0B9691CC8B221
:1033000005F0BDFA401E87B2611CC8B205F0B0FAE4
:10331000401E86B2284605F0B2FA8046204605F0E7
:10332000A7FA814600203B46324641460090484677
:1033300004F0BAF81CE0691CC8B205F0A0FA401EFF
:1033400086B2611CC8B205F093FA401E87B22846C7
:1033500005F095FA8046204605F08AFA81464FF43A
:10336000784033463A4641460090484604F09CF87F
:10337000681CC5B21F2DFFF679AF601CC4B2152CB6
:10338000FFF672AF002433E0012005F078FA06461C
:10339000611CC8B205F06CFA0746002005F06FFA10
:1033A0008046204605F064FA81461F2033463A469F
:1033B00041460090484604F077F8202005F05FFA77
:1033C0000646611CC8B205F053FA07461F2005F0F7
:1033D00056FA8046204605F04BFA81461F203346B8
:1033E0003A4641460090484604F05EF8601CC4B27C
:1033F000152CC9DD002434E0611CC8B205F03FFA89
:103400000746012005F034FA401E86B2204605F03A
:1034100036FA8046002005F02BFA81461F203B46F5
:10342000324641460090484604F03EF8611CC8B25E
:1034300005F025FA0646162005F01AFA074620463A
:1034400005F01DFA8046152005F012FA81461F206E
:1034500033463A4641460090484604F025F8601C41
:10346000C4B21F2CC8DDBDE8F88300004100022073
:1034700030000220310002203F00022040000220E4
:103480006C040220F8B504460D464AF690506E1CB6
:10349000C6EB0616822707EB4603661CC6EB06162C
:1034A000322707EB4602C5EB0516822707EB4601DC
:1034B000C4EB04163227009007EB460003F0F4FF3C
:1034C000F8BD000010B50023234C236000BF00BFEF
:1034D00000BFBFF34F8F00BF00BF00BF231F18689E
:1034E000C0F34E3100BFC0F3C90200BF43F6E07322
:1034F00003EA41134FF0404404EA82742343174C1B
:10350000236000BF00BF131EA2F10102EED10B1E0B
:10351000A1F10101E7D100BF00BF00BFBFF34F8F92
:1035200000BF00BF00BF0C4B703B1B6843F48033EF
:10353000094C703C236000BF00BF00BFBFF34F8F3A
:1035400000BF00BF00BF00BF00BF00BFBFF36F8F51
:1035500000BF00BF00BF10BD84ED00E060EF00E0E1
:1035600000BF00BF00BFBFF34F8F00BF00BF00BF51
:1035700000BF00BF00BFBFF36F8F00BF00BF00BF21
:1035800000201449086000BF00BF00BFBFF34F8F89
:1035900000BF00BF00BF00BF00BF00BFBFF36F8F01
:1035A00000BF00BF00BF0C48006840F400300A496B
:1035B000086000BF00BF00BFBFF34F8F00BF00BF58
:1035C00000BF00BF00BF00BFBFF36F8F00BF00BFD1
:1035D00000BF704750EF00E014ED00E070470000BE
:1035E00010B5042004490870FFF730FE03488088B6
:1035F0000249488010BD00003E0002207C030220EA
:1036000010B5032004490870FFF720FE03488088A6
:103610000249488010BD00003E0002207C030220C9
:1036200010B5012004490870FFF710FE0348808898
:103630000249488010BD00003E0002207C030220A9
:1036400010B5022004490870FFF700FE0348808887
:103650000249488010BD00003E0002207C03022089
:1036600010B506201E49087003201E49087001206D
:103670001B49097801EB41111B4A02EB4101194A30
:10368000127821F81200022115480078401E00EB44
:103690004010154A02EB4000124A127820F812102E
:1036A00003210F480078801E00EB40100E4A02EB09
:1036B00040000C4A127820F8121001200B490870C3
:1036C000002001F079F90120094908700520094915
:1036D00008700949087003200849088010BD0000DF
:1036E00030000220310002206C0402204100022040
:1036F0003E000220400002203F0002203200022053
:103700002DE9F047464847490978405C4649097821
:103710000844C6B2454843490978405C44490978A1
:103720000844C7B239463046FCF7ECFF20B9002008
:103730003C490870BDE8F08701242AE0012524E017
:1037400004EB44103B4901EB400030F81500D0B1C8
:1037500004EB441001EB400030F8150036490988AD
:10376000884201D1A046A94604EB4410314901EB3F
:10377000400030F81500401C04EB44112D4A02EBC8
:10378000410121F81500681CC5B21F2DD8DB601C53
:10379000C4B2152CD2DB24480670254807700120DE
:1037A0002149097801EB4111224A02EB4101204AEB
:1037B000127821F8120021480078864225D120484D
:1037C0000078874221D11C480088401C80B21A49E9
:1037D000088008EB4811174A02EB410121F8190053
:1037E000FCF75CFD142190FBF1F201FB1200401C80
:1037F00012490870FCF752FD1E2190FBF1F201FB0B
:103800001200401C0E49087007E0002008EB481128
:10381000084A02EB410121F8190000BF8AE70000C5
:10382000340002203E000220300002203900022035
:10383000310002206C040220320002203F000220EE
:103840004000022010B5FDF739FB10BD05480068A7
:1038500040F47000034908604FF00060014980396E
:103860000860704788ED00E010B50248FEF797FF4A
:1038700010BD00008C01022010B50268294B98424F
:103880000ED0B0F1804F0BD0274B984208D0274B79
:10389000984205D0264B984202D0264B984203D13D
:1038A00022F070024B681A431E4B984220D0B0F1B0
:1038B000804F1DD01C4B98421AD01C4B984217D0F9
:1038C0001B4B984214D01B4B984211D01A4B984274
:1038D0000ED01A4B98420BD0194B984208D0194B76
:1038E000984205D0184B984202D0184B984203D109
:1038F00022F44072CB681A4322F080034C6943EAF9
:10390000040202608B68C3620B688362054B9842B5
:1039100002D0084B984201D10B6903630123436134
:1039200010BD0000000001400004004000080040FD
:10393000000C0040000401400040014000440140F0
:103940000048014000180040001C004000200040DA
:1039500030B5144C2478142C00DB30BD114C247885
:1039600004EB4404104D05F824000E4C247804EBBD
:10397000440405EB840461800A4C247804EB44047D
:1039800005EB8404A280074C247804EB440405EB87
:103990008404A360034C2478641C024D2C7000BF87
:1039A000DBE70000240002207C03022000B5124B5C
:1039B0002822C8210120FFF7CBFF104B052211461A
:1039C0000020FFF7C5FF0E4B052211460020FFF730
:1039D000BFFF0C4B052211460020FFF7B9FF0A4B31
:1039E000052211460020FFF7B3FF084B32221921B0
:1039F0000020FFF7ADFF00BD113A000835070008B1
:103A00008D070008E50700083D080008A5300008FC
:103A1000F0B597B053480078012803D100F03AFA86
:103A200017B0F0BD5048007848B900F0A3F8012065
:103A30004D490870FFF792FB00F02CFAF0E72322C3
:103A40004A490EA8FCF70CFD9DF83900401CC0B295
:103A50008DF839001322454910316846FCF700FD06
:103A60002322424905A8FCF7FBFC05A80FC8FFF775
:103A7000BDFB132212A96846FCF737FD0EA80FC83C
:103A8000FCF706FE012805D138484078401C37492C
:103A9000487062E0002421E0344A9378D21C02EBA3
:103AA000C30212F81420314B1B781A44D0B22F4AAB
:103AB0009378D21C02EBC30202EB440252782B4BE8
:103AC0005B781A44D1B2012200EB400303EBC00340
:103AD000274F07EB43035A54601CC4B2042CDBDBB2
:103AE000142535E0012001240CE004EB440101EB36
:103AF000C4011F4A02EB4101495D09B9002003E0FE
:103B0000611CCCB20A2CF0DD00BF01281ED12E466C
:103B100018E0012412E004EB440101EBC401144A53
:103B200002EB4102711E515C04EB440202EBC40241
:103B30000F4B03EB42029155611CCCB20A2CEADD1B
:103B4000711ECEB2002EE4DC691CCDB2681EC5B277
:103B5000002DC7DCFFF702FB00BF00F09BF900BFA0
:103B60005EE700004300022042000220820D022096
:103B70005A0A022000B5A7B0AB4903C9CDE9250117
:103B80000021AA4880F825100520A84981F82300C3
:103B90000121A64880F82410801D259901622699EC
:103BA00041622030259981602699C1602599016183
:103BB00026994161259981612699C1619A49083107
:103BC00003C9CDE923019849103103C9CDE9210189
:103BD0009549183103C9CDE91F019349203103C923
:103BE000CDE91D010021914880F8481005208F493A
:103BF00081F8460001218D4880F84710401D239927
:103C00004164249981644430219981602299C16082
:103C10001F990161209941611D9981611E99C161BE
:103C20008149283103C9CDE91B017F49303103C9DE
:103C3000CDE9190100217D4880F86B1004207B49F3
:103C400081F869000121794880F86A101B99C166E2
:103C50001C9901676C30199981601A99C1601B9990
:103C600001611C994161199981611A99C1616E497B
:103C7000383103C9CDE917016B49403103C9CDE99A
:103C800015016949483103C9CDE91301664950312D
:103C900003C9CDE911010021644880F88E10052088
:103CA000624981F88C000121604880F88D108F30C6
:103CB0001799016018994160159981601699C16042
:103CC0001399016114994161119981611299C1613E
:103CD0005549583103C9CDE90F015349603103C932
:103CE000CDE90D015049683103C9CDE90B014E49B9
:103CF000703103C9CDE9090100214C4880F8B110A9
:103D000005204A4981F8AF000121484880F8B010E9
:103D1000B2300F990160109941600D9981600E9940
:103D2000C1600B9901610C994161099981610A99FE
:103D3000C1613D49783103C9CDE907013A49803174
:103D400003C9CDE905010021384880F8D4100520C9
:103D5000364981F8D2000121344880F8D310D5309B
:103D60000799016008994160059981600699C160D1
:103D70000799016108994161059981610699C161BD
:103D80002949883103C9CDE903012749903103C985
:103D9000CDE901010021254880F8F71005202349CD
:103DA00081F8F5000121214880F8F610F8300399D8
:103DB000016004994160019981600299C160039991
:103DC000016104994161019981610299C1614AF6D9
:103DD000905000F0F1FD1F209F2340F281129B21A3
:103DE00000904B2003F060FB1F2040F2FD2340F2C7
:103DF0008112191F00904B2003F056FB1F204FF437
:103E00003E734F229B2100904B2003F04DFB1F205F
:103E10004FF43E7340F281129B210090101F03F07B
:103E200043FB27B000BD0000E88800086A0C0220B0
:103E300000B597B0232216490EA8FCF711FB9DF898
:103E40003800401EC0B28DF83800132210491031DE
:103E50006846FCF705FB23220D4905A8FCF700FB8B
:103E600005A80FC8FFF7C2F9132212A96846FCF78C
:103E70003CFB0EA80FC8FCF70BFC012806D1044838
:103E80000078401E0249087000F004F817B000BD29
:103E9000820D022030B58FB0132228496846FCF706
:103EA000DFFA23222549103906A8FCF7D9FA06A81B
:103EB0000FC800F05FFC01243BE0012535E004EB76
:103EC000440000EBC4001E4901EB4000405D04EBE0
:103ED000440101EBC4011B4A02EB4101495D8842E8
:103EE00011D004EB440000EBC400154901EB400085
:103EF000405D20B129462046FCF7D9FC03E0294665
:103F00002046FFF7BFFA04EB440000EBC4000C4965
:103F100001EB4000405D04EB440101EBC401094AA0
:103F200002EB41014855681CC5B2142DC7DD601C69
:103F3000C4B20A2CC1DD0FB030BD0000920D0220CA
:103F40005A0A0220620B022000B597B023221649BC
:103F50000EA8FCF785FA9DF83800401CC0B28DF819
:103F600038001322104910316846FCF779FA2322F1
:103F70000D4905A8FCF774FA05A80FC8FFF736F934
:103F8000132212A96846FCF7B0FA0EA80FC8FCF776
:103F90007FFB012806D104480078401C02490870C4
:103FA000FFF778FF17B000BD820D022010B598B062
:103FB00023222C490FA8FCF753FA9DF83E00401C21
:103FC000C0B28DF83E009DF83E00042802DB0020C0
:103FD0008DF83E001322234910316846FCF740FA61
:103FE0002322204906A8FCF73BFA06A80FC8FFF7D2
:103FF000FDF8132213A96846FCF777FA0FA80FC83B
:10400000FCF746FB01280CD116488078401C154966
:10401000887008468078042801DB00208870FFF74C
:1040200039FF1148007801281AD100220E4B1A706E
:104030000E4B1A7000BF10E001210AE0002200EBD5
:10404000400303EBC0030A4C04EB43035A544A1CDD
:10405000D1B21429F2DD421CD0B20A28ECDD00BF37
:1040600018B010BD820D0220430002204200022041
:104070005A0A022090F8241001F0010139B10168B8
:10408000496821F40031826A11430268516090F856
:10409000241001F00201022907D10168496821F4C6
:1040A0008031C26A11430268516090F8241001F017
:1040B0000401042907D10168496821F48021026BB9
:1040C00011430268516090F8241001F0080108299A
:1040D00007D10168496821F40041426B114302682D
:1040E000516090F8241001F01001102907D10168E7
:1040F000896821F48051826B11430268916090F8C5
:10410000241001F02001202907D10168896821F4D9
:104110000051C26B11430268916090F8241001F0C5
:104120004001402913D10168496821F48011026CD3
:10413000114302685160016CB1F5801F07D101681D
:10414000496821F4C001426C11430268516090F843
:10415000241001F08001802907D10168496821F409
:104160000021826C114302685160704738B50446E3
:104170000020E067FCF79CFE05462068006800F020
:10418000080008280CD16FF07E402B4600224FF427
:1041900000110090204600F08BFA08B1032038BDD2
:1041A0002068006800F0040004280CD16FF07E4005
:1041B0002B4600224FF480010090204600F078FA50
:1041C00008B10320EBE720206067A06700BF002054
:1041D00084F8700000BF00BFE1E770B50546AC6B26
:1041E0000020A4F85A00A4F852002046FEF7F2FB83
:1041F00070BD0168096821F490710268116001685E
:10420000896821F001010268916020218167002105
:104210000166704710B504462068006820F0400031
:104220002168086020206067002060662046FEF755
:1042300007FE10BD2DE9F0410446B4F85C70A06F94
:10424000222825D12068406A86B2656D06EA0700FB
:104250002880606D801C6065B4F85A00401EA4F888
:104260005A00B4F85A00C8B92068006820F4907069
:10427000216808602068806820F00100216888605B
:104280002020A067002020662046FEF78BFD05E079
:104290002068806940F0080021688861BDE8F081ED
:1042A00070B50446B4F85C60A06F222825D1206860
:1042B000406A85B2F0B22840616D0870606D401CA4
:1042C0006065B4F85A00401EA4F85A00B4F85A00C9
:1042D000C8B92068006820F49070216808602068E0
:1042E000806820F00100216888602020A0670020FD
:1042F00020662046FEF756FD05E02068806940F004
:1043000008002168886170BD2DE9F0470446002748
:10431000BA462169A068084361690843E16940EA37
:10432000010820680068D649084040EA0800216872
:1043300008602068406820F44050E1680843216824
:104340004860D4F81880206A40EA0808206880682D
:1043500020F4306040EA08002168886000BFC94945
:104360002068884216D1C848006800F0030030B1C8
:10437000012808D0022804D0032808D105E001252F
:1043800007E0022505E0042503E0082501E01025EB
:1043900000BFC9E0BD492068884216D1BA4800680C
:1043A00000F00C0030B1042808D0082804D00C28F4
:1043B00008D105E0002507E0022505E0042503E01B
:1043C000082501E0102500BFAEE0B1492068884211
:1043D00016D1AD48006800F0300030B1102808D088
:1043E000202804D0302808D105E0002507E0022568
:1043F00005E0042503E0082501E0102500BF93E057
:10440000A4492068884216D19F48006800F0C00087
:1044100030B1402808D0802804D0C02808D105E059
:10442000002507E0022505E0042503E0082501E05A
:10443000102500BF78E098492068884219D1924839
:10444000006800F4407048B1B0F5807F0AD0B0F544
:10445000007F05D0B0F5407F08D105E0002507E0DA
:10446000022505E0042503E0082501E0102500BF32
:104470005AE08A492068884219D18348006800F4CC
:10448000406048B1B0F5806F0AD0B0F5006F05D03C
:10449000B0F5406F08D105E0012507E0022505E0F1
:1044A000042503E0082501E0102500BF3CE07C491D
:1044B0002068884219D17448006800F4405048B11F
:1044C000B0F5805F0AD0B0F5005F05D0B0F5405F71
:1044D00008D105E0002507E0022505E0042503E0FA
:1044E000082501E0102500BF1EE06E4920688842C3
:1044F00019D16548006800F4404048B1B0F5804FDC
:104500000AD0B0F5004F05D0B0F5404F08D105E016
:10451000002507E0022505E0042503E0082501E069
:10452000102500BF00E0102500BFE069B0F5004F86
:1045300054D1092D3AD2DFE805F005101B39243992
:1045400039392F00FDF758FC06467000616800EB12
:104550005100B0FBF1F087B22BE0FDF75DFC0646A1
:104560007000616800EB5100B0FBF1F087B220E011
:104570004D49606801EB50006168B0FBF1F087B213
:1045800017E0FDF759FC06467000616800EB51002A
:10459000B0FBF1F087B20CE04FF48031606801EBC2
:1045A00050006168B0FBF1F087B202E04FF0010A01
:1045B00000BF00BF102F0ED3B7F5803F0BD24FF6D0
:1045C000F07007EA0009C7F3420049EA00092068D1
:1045D000C0F80C904DE04FF0010A4AE0092D3AD2A4
:1045E000DFE805F005101B39243939392F00FDF7B4
:1045F00003FC0646606806EB50006168B0FBF1F012
:1046000087B22BE0FDF708FC0646606806EB500019
:104610006168B0FBF1F087B220E02449606801EBEB
:1046200050006168B0FBF1F087B217E0FDF704FCC1
:104630000646606806EB50006168B0FBF1F087B297
:104640000CE04FF40041606801EB50006168B0FB82
:10465000F1F087B202E04FF0010A00BF00BF102F57
:1046600005D3B7F5803F02D22068C76001E04FF064
:10467000010A0020206660665046BDE8F087000011
:10468000F369FFEF00100140903802400044004001
:1046900000480040004C0040005000400014014021
:1046A00000780040007C00400048E8010024F4004D
:1046B0002DE9F04104460D4617469846069E45E012
:1046C000701C002842D0FCF7F3FBA0EB0800B042BE
:1046D00000D8B6B92068006820F4D070216808605E
:1046E0002068806820F001002168886020206067D1
:1046F000A06700BF002084F8700000BF0320BDE861
:10470000F0812068006800F00400F8B12068C069FA
:10471000C0F3C020D0B14FF4006021680862206867
:10472000006820F4D070216808602068806820F05C
:1047300001002168886020206067A067E06700BFF3
:10474000002084F8700000BF0320D8E72068C0690B
:104750002840A84201D1012000E00020B842AFD09B
:104760000020CCE710B50248FEF736F910BD000076
:104770000C0102200FB430B5002023E09DF80E405C
:104780000DF10F0303EBC40313F810309DF80C4038
:104790002344D9B29DF80E400DF10F0303EBC4037F
:1047A00003EB40035B789DF80D402344DAB201230C
:1047B00001EB410404EBC104054D05EB4404A35493
:1047C000411CC8B20428D9DB30BC5DF814FB0000E2
:1047D0005A0A022000BFFEE702480068C0F3022028
:1047E000704700000CED00E010B5002804DB0A075C
:1047F000130E054A135406E00A07140E034A00F08C
:104800000F031B1FD45410BD00E400E018ED00E0BE
:1048100000BF704770B505460C4607480749086059
:104820000846446000218160C560FDF75CFF0348D5
:10483000FDF798FF70BD0000001000408C010220C1
:1048400001490860704700000400022010B50446CA
:104850004FF47A7104FB01F000F002F810BD000083
:1048600070B5034600224FF0E02675690D4E36689C
:1048700003FB06F44FF0E026B16910E04FF0E026AC
:10488000B06988420BD0884202D20E1A324402E04C
:104890002E1A0E4432440146A24200D300E0EDE756
:1048A00000BF70BD0400022000BF054AD26902F0BB
:1048B0004002002AF9D0C2B2014B9A627047000050
:1048C0000010014000B587B000BF00BF3648006847
:1048D00040F08000344908600846006800F080001D
:1048E000019000BF00BF00BF00BF00BF08460068C6
:1048F00040F0800008600846006800F080000190E9
:1049000000BF00BF00BF00BF00BF0846006840F006
:10491000040008600846006800F00400019000BF31
:1049200000BF00BF00BF00BF0846006840F00100A4
:1049300008600846006800F00100019000BF00BF59
:1049400000BF082002900020039001200490022064
:10495000059002A91548FCF789F90420029000206F
:104960000390012004900220059002A90F48FCF753
:104970007DF94FF400500290002003900120049034
:104980000220059002A90A48FCF770F90120029064
:104990000020039002200490059002A90548FCF72E
:1049A00065F907B000BD000030380240001C02402D
:1049B000000802400000024070B5044600260D4881
:1049C00005880D48006818B1204603F09DFA0FE0F5
:1049D0000848408845430021084603F06DF903F07C
:1049E0003BFA002602E005480480761CAE42FAD36A
:1049F00070BD0000180202205C0302200000086065
:104A000010B50446604884716048006850B1204683
:104A100003F0A0FA5D48C08A5B4908805B48008BC0
:104A2000488010BD002C58D1F020574908804FF421
:104A3000A07048800846808845F21051884210D105
:104A40004FF43050504908814FF4285048814FF4BA
:104A50002C5088814FF4F07008804FF448704880E3
:104A60001AE04948808841F6631188420DD12C2014
:104A7000454908812B2048812A2088814FF4F07015
:104A800008804FF44870488006E02C203E49088199
:104A90002A2048812B2088813B48808845F21031AC
:104AA000884205D03848808847F29671884206D1FE
:104AB0004FF4A070344908804FF4F07048803248B9
:104AC000808849F60601884258D14FF4F0702E498B
:104AD00008804FF44870488050E04FF4A0702A4995
:104AE0000880F02048800846808845F210518842AE
:104AF00010D14FF43050244908814FF42850488198
:104B00004FF42C5088814FF4487008804FF4F070B7
:104B1000488020E01C48808841F66311884205D017
:104B20001948808849F6060188420DD12C20164983
:104B300008812A2048812B2088814FF44870088002
:104B40004FF4F070488006E02C200F4908812A209D
:104B500048812B2088810C48808845F2103188429A
:104B600005D00948808847F29671884206D14FF4F3
:104B7000F070054908804FF4A0704880002002F0D2
:104B80007DFF00BF4DE70000180202205C030220F9
:104B90002DE9F04706460F4690469A4600244546C2
:104BA0000320A0EB480944E07A1B91B2321990B27D
:104BB000524600F043F83A1B91B2721990B2524635
:104BC00000F03CF83A1991B2721990B2524600F0D6
:104BD00035F87A1991B2321990B2524600F02EF897
:104BE0007A1991B2321B90B2524600F027F83A1966
:104BF00091B2721B90B2524600F020F87A1B91B22B
:104C0000321B90B2524600F019F83A1B91B2721B57
:104C100090B2524600F012F8641CB9F1000F03DAAA
:104C2000A000801D814404E0601B80000A308144A4
:104C30006D1EAC42B8DDBDE8F087000070B50546DA
:104C40000E4614460848006828B1224631462846D8
:104C500003F096F907E03146284603F02DF803F0FB
:104C6000FBF802490C8070BD5C0302200000086064
:104C700010B5CF2003F0E4F8002003F0D5F8C120F0
:104C800003F0D2F8302003F0CFF8ED2003F0D8F88D
:104C9000642003F0C9F8032003F0C6F8122003F0E3
:104CA000C3F8812003F0C0F8E82003F0C9F885209C
:104CB00003F0BAF8102003F0B7F87A2003F0B4F844
:104CC000CB2003F0BDF8392003F0AEF82C2003F020
:104CD000ABF8002003F0A8F8342003F0A5F8022078
:104CE00003F0A2F8F72003F0ABF8202003F09CF8C3
:104CF000EA2003F0A5F8002003F096F8002003F066
:104D000093F8C02003F09CF81B2003F08DF8C1201D
:104D100003F096F8012003F087F8C52003F090F81F
:104D2000302003F081F8302003F07EF8C72003F034
:104D300087F8B72003F078F8362003F081F8482090
:104D400003F072F83A2003F07BF8552003F06CF87A
:104D5000B12003F075F8002003F066F81A2003F084
:104D600063F8B62003F06CF80A2003F05DF8A22087
:104D700003F05AF8F22003F063F8002003F054F82F
:104D8000262003F05DF8012003F04EF8E02003F048
:104D900057F80F2003F048F82A2003F045F82820A0
:104DA00003F042F8082003F03FF80E2003F03CF82F
:104DB000082003F039F8542003F036F8A92003F056
:104DC00033F8432003F030F80A2003F02DF80F20C9
:104DD00003F02AF8002003F027F8002003F024F85D
:104DE000002003F021F8002003F01EF8E12003F07A
:104DF00027F8002003F018F8152003F015F8172005
:104E000003F012F8072003F00FF8112003F00CF85C
:104E1000062003F009F82B2003F006F8562003F0D3
:104E200003F83C2003F000F8052002F0FDFF1020FD
:104E300002F0FAFF0F2002F0F7FF3F2002F0F4FF2C
:104E40003F2002F0F1FF0F2002F0EEFF2B2002F0D6
:104E5000F7FF002002F0E8FF002002F0E5FF01204C
:104E600002F0E2FF3F2002F0DFFF2A2002F0E8FF1D
:104E7000002002F0D9FF002002F0D6FF002002F04F
:104E8000D3FFEF2002F0D0FF112002F0D9FF7820ED
:104E9000FFF7DCFC292002F0D3FF10BD10B5FF2086
:104EA00002F0CEFFFF2002F0BFFF982002F0BCFF0F
:104EB000062002F0B9FFBC2002F0C2FF012002F080
:104EC000B3FF0F2002F0B0FF612002F0ADFFFF2022
:104ED00002F0AAFF012002F0A7FF012002F0A4FFC8
:104EE0000B2002F0A1FF102002F09EFF372002F0FD
:104EF0009BFF632002F098FFFF2002F095FFFF2048
:104F000002F092FF012002F08FFF012002F08CFFDF
:104F1000002002F089FF002002F086FFFF2002F04F
:104F200083FF522002F080FF012002F07DFF00206D
:104F300002F07AFF402002F077FFBD2002F080FFF0
:104F4000012002F071FF232002F06EFF452002F0E5
:104F50006BFF672002F068FF012002F065FF23204D
:104F600002F062FF452002F05FFF672002F05CFF65
:104F7000BE2002F065FF002002F056FF012002F083
:104F800053FFAB2002F050FF602002F04DFF2220C3
:104F900002F04AFF222002F047FF222002F044FFE5
:104FA000222002F041FF222002F03EFFC72002F043
:104FB00047FF362002F038FFED2002F041FF7F204E
:104FC00002F032FF0F2002F02FFFC02002F038FF66
:104FD0000F2002F029FF0B2002F026FF0A2002F02A
:104FE00023FFFC2002F02CFF082002F01DFFDF2031
:104FF00002F026FF002002F017FF002002F014FF4D
:10500000002002F011FF002002F00EFF002002F04D
:105010000BFF202002F008FFF32002F011FF7420A4
:1050200002F002FFB42002F00BFF002002F0FCFEB1
:10503000002002F0F9FE002002F0F6FEF72002F058
:10504000FFFE822002F0F0FEB12002F0F9FE002007
:1050500002F0EAFE132002F0E7FE132002F0E4FE65
:10506000F22002F0EDFE802002F0DEFE042002F0CD
:10507000DBFE402002F0D8FE282002F0D5FEC12041
:1050800002F0DEFE172002F0CFFE882002F0CCFEF8
:10509000882002F0C9FE202002F0C6FEE02002F0C7
:1050A000CFFE002002F0C0FE0A2002F0BDFE12205A
:1050B00002F0BAFE102002F0B7FE0E2002F0B4FE9D
:1050C000202002F0B1FECC2002F0AEFE072002F05C
:1050D000ABFE062002F0A8FE0B2002F0A5FE0E207B
:1050E00002F0A2FE0F2002F09FFE0D2002F09CFEB7
:1050F000152002F099FE102002F096FE002002F02A
:1051000093FEE12002F09CFE002002F08DFE0B20B9
:1051100002F08AFE132002F087FE0D2002F084FECA
:105120000E2002F081FE1B2002F07EFE712002F0B4
:105130007BFE062002F078FE062002F075FE0A20B3
:1051400002F072FE0F2002F06FFE0E2002F06CFEE5
:105150000F2002F069FE152002F066FE0C2002F01E
:1051600063FE002002F060FE2A2002F069FE0020AB
:1051700002F05AFE002002F057FE012002F054FE19
:10518000DF2002F051FE2B2002F05AFE002002F038
:105190004BFE002002F048FE032002F045FE1F20D7
:1051A00002F042FE3A2002F04BFE552002F03CFE97
:1051B000362002F045FE002002F036FE112002F0FB
:1051C0003FFE7820FFF742FB292002F039FE142031
:1051D000FFF73CFB2C2002F033FE10BD10B5ED2094
:1051E00002F02EFE012002F01FFEFE2002F01CFE47
:1051F000EE2002F025FEDE2002F016FE212002F055
:1052000013FEF12002F01CFE012002F00DFEDF2053
:1052100002F016FE102002F007FEC42002F010FE7D
:105220008F2002F001FEC62002F00AFE002002F0EC
:10523000FBFDE22002F0F8FDE22002F0F5FDE220A5
:1052400002F0F2FDBF2002F0FBFDAA2002F0ECFD0F
:10525000B02002F0F5FD0D2002F0E6FD002002F086
:10526000E3FD0D2002F0E0FD002002F0DDFD112045
:1052700002F0DAFD002002F0D7FD192002F0D4FD83
:10528000002002F0D1FD212002F0CEFD002002F02E
:10529000CBFD2D2002F0C8FD002002F0C5FD3D2011
:1052A00002F0C2FD002002F0BFFD5D2002F0BCFD57
:1052B000002002F0B9FD5D2002F0B6FD002002F0F2
:1052C000B3FDB12002F0BCFD802002F0ADFD002056
:1052D00002F0AAFD8B2002F0A7FD002002F0A4FD41
:1052E000962002F0A1FD002002F09EFDB22002F007
:1052F000A7FD002002F098FD002002F095FD02209D
:1053000002F092FD002002F08FFD032002F08CFDE0
:10531000002002F089FDB32002F092FD002002F08F
:1053200083FD002002F080FD002002F07DFD0020C2
:1053300002F07AFD002002F077FD002002F074FDFB
:10534000002002F071FD002002F06EFD002002F04E
:105350006BFD002002F068FD002002F065FD0020DA
:1053600002F062FD002002F05FFD002002F05CFD13
:10537000002002F059FD002002F056FD002002F04E
:1053800053FD002002F050FD002002F04DFD0020F2
:1053900002F04AFD002002F047FD002002F044FD2B
:1053A000002002F041FD002002F03EFDB42002F09A
:1053B00047FD8B2002F038FD002002F035FD9620DD
:1053C00002F032FD002002F02FFDA12002F02CFDA2
:1053D000002002F029FDB52002F032FD022002F08B
:1053E00023FD002002F020FD032002F01DFD00201F
:1053F00002F01AFD042002F017FD002002F014FD57
:10540000B62002F01DFD002002F00EFD002002F08B
:105410000BFDB72002F014FD002002F005FD002076
:1054200002F002FD3F2002F0FFFC002002F0FCFC35
:105430005E2002F0F9FC002002F0F6FC642002F08D
:10544000F3FC002002F0F0FC8C2002F0EDFC0020C8
:1054500002F0EAFCAC2002F0E7FC002002F0E4FCE1
:10546000DC2002F0E1FC002002F0DEFC702002F003
:10547000DBFC002002F0D8FC902002F0D5FC0020DC
:1054800002F0D2FCEB2002F0CFFC002002F0CCFCBA
:10549000DC2002F0C9FC002002F0C6FCB82002F0BB
:1054A000CFFC002002F0C0FC002002F0BDFC002078
:1054B00002F0BAFC002002F0B7FC002002F0B4FCBD
:1054C000002002F0B1FC002002F0AEFC002002F04F
:1054D000ABFCBA2002F0B4FC242002F0A5FC0020B2
:1054E00002F0A2FC002002F09FFC002002F09CFCD5
:1054F000C12002F0A5FC202002F096FC002002F062
:1055000093FC542002F090FC002002F08DFCFF2060
:1055100002F08AFC002002F087FCC22002F090FC1E
:105520000A2002F081FC002002F07EFC042002F040
:105530007BFC002002F078FCC32002F081FC3C20C0
:1055400002F072FC002002F06FFC3A2002F06CFCCA
:10555000002002F069FC392002F066FC002002F015
:1055600063FC372002F060FC002002F05DFC3C2070
:1055700002F05AFC002002F057FC362002F054FCE6
:10558000002002F051FC322002F04EFC002002F01C
:105590004BFC2F2002F048FC002002F045FC2C20A0
:1055A00002F042FC002002F03FFC292002F03CFC0B
:1055B000002002F039FC262002F036FC002002F028
:1055C00033FC242002F030FC002002F02DFC2420CB
:1055D00002F02AFC002002F027FC232002F024FC29
:1055E000002002F021FC3C2002F01EFC002002F012
:1055F0001BFC362002F018FC002002F015FC3220C3
:1056000002F012FC002002F00FFC2F2002F00CFC34
:10561000002002F009FC2C2002F006FC002002F021
:1056200003FC292002F000FC002002F0FDFB2620F4
:1056300002F0FAFB002002F0F7FB242002F0F4FB5A
:10564000002002F0F1FB242002F0EEFB002002F02B
:10565000EBFB232002F0E8FB002002F0E5FBC42076
:1056600002F0EEFB622002F0DFFB002002F0DCFB28
:10567000052002F0D9FB002002F0D6FB842002F0C6
:10568000D3FB002002F0D0FBF02002F0CDFB002085
:1056900002F0CAFB182002F0C7FB002002F0C4FB96
:1056A000A42002F0C1FB002002F0BEFB182002F093
:1056B000BBFB002002F0B8FB502002F0B5FB00203D
:1056C00002F0B2FB0C2002F0AFFB002002F0ACFBBA
:1056D000172002F0A9FB002002F0A6FB952002F0A3
:1056E000A3FB002002F0A0FBF32002F09DFB0020B2
:1056F00002F09AFBE62002F097FB002002F094FBF8
:10570000C52002F09DFB322002F08EFB002002F04B
:105710008BFB442002F088FB002002F085FB652013
:1057200002F082FB002002F07FFB762002F07CFB7F
:10573000002002F079FB882002F076FB002002F0C6
:1057400073FBC62002F07CFB202002F06DFB0020E2
:1057500002F06AFB172002F067FB002002F064FBF6
:10576000012002F061FB002002F05EFBC72002F086
:1057700067FB002002F058FB002002F055FB0020E0
:1057800002F052FB002002F04FFBC82002F058FB51
:10579000002002F049FB002002F046FB002002F04E
:1057A00043FB002002F040FBC92002F049FB00202F
:1057B00002F03AFB002002F037FB002002F034FB3D
:1057C000002002F031FB002002F02EFB002002F04E
:1057D0002BFB002002F028FB002002F025FB00201C
:1057E00002F022FB002002F01FFB002002F01CFB55
:1057F000002002F019FB002002F016FB002002F04E
:1058000013FB002002F010FB002002F00DFBE02053
:1058100002F016FB162002F007FB002002F004FB4A
:105820001C2002F001FB002002F0FEFA212002F011
:10583000FBFA002002F0F8FA362002F0F5FA002018
:1058400002F0F2FA462002F0EFFA002002F0ECFA41
:10585000522002F0E9FA002002F0E6FA642002F099
:10586000E3FA002002F0E0FA7A2002F0DDFA0020EC
:1058700002F0DAFA8B2002F0D7FA002002F0D4FA14
:10588000992002F0D1FA002002F0CEFAA82002F00E
:10589000CBFA002002F0C8FAB92002F0C5FA0020C5
:1058A00002F0C2FAC42002F0BFFA002002F0BCFAF3
:1058B000CA2002F0B9FA002002F0B6FAD22002F0B3
:1058C000B3FA002002F0B0FAD92002F0ADFA0020BD
:1058D00002F0AAFAE02002F0A7FA002002F0A4FAEF
:1058E000F32002F0A1FA002002F09EFAE12002F07B
:1058F000A7FA162002F098FA002002F095FA1C2070
:1059000002F092FA002002F08FFA222002F08CFAC4
:10591000002002F089FA362002F086FA002002F018
:1059200083FA452002F080FA002002F07DFA52202E
:1059300002F07AFA002002F077FA642002F074FA9A
:10594000002002F071FA7A2002F06EFA002002F0D4
:105950006BFA8B2002F068FA002002F065FA9920B9
:1059600002F062FA002002F05FFAA82002F05CFA6E
:10597000002002F059FAB92002F056FA002002F095
:1059800053FAC42002F050FA002002F04DFACA2067
:1059900002F04AFA002002F047FAD22002F044FA5C
:1059A000002002F041FAD82002F03EFA002002F076
:1059B0003BFAE02002F038FA002002F035FAF3203A
:1059C00002F032FA002002F02FFAE22002F038FA58
:1059D000052002F029FA002002F026FA0B2002F03E
:1059E00023FA002002F020FA1B2002F01DFA00200A
:1059F00002F01AFA342002F017FA002002F014FA2A
:105A0000442002F011FA002002F00EFA4F2002F0BA
:105A10000BFA002002F008FA612002F005FA0020DB
:105A200002F002FA792002F0FFF9002002F0FCF9FE
:105A3000882002F0F9F9002002F0F6F9972002F030
:105A4000F3F9002002F0F0F9A62002F0EDF90020B1
:105A500002F0EAF9B72002F0E7F9002002F0E4F9D9
:105A6000C22002F0E1F9002002F0DEF9C72002F0C6
:105A7000DBF9002002F0D8F9D12002F0D5F900209E
:105A800002F0D2F9D62002F0CFF9002002F0CCF9D2
:105A9000DD2002F0C9F9002002F0C6F9F32002F07F
:105AA000C3F9002002F0C0F9E32002F0C9F9052093
:105AB00002F0BAF9002002F0B7F90A2002F0B4F9B6
:105AC000002002F0B1F91C2002F0AEF9002002F033
:105AD000ABF9332002F0A8F9002002F0A5F9442028
