:020000040800F2
:1000000018A8072041030008390400083B04000831
:100010009D6201083F04000843040008000000003E
:10002000000000000000000000000000470400087D
:1000300049040008000000004B0400084D040008BB
:1000400067030008670300086703000867030008E8
:1000500067030008670300086703000867030008D8
:1000600067030008670300086703000867030008C8
:1000700067030008670300086703000867030008B8
:1000800067030008670300086703000867030008A8
:100090006703000867030008670300086703000898
:1000A0006703000867030008670300086703000888
:1000B00067030008670300087173010867030008FD
:1000C0006703000867030008670300086703000868
:1000D000670300083D09000867030008670300087C
:1000E0006703000867030008670300086703000848
:1000F0006703000867030008670300086703000838
:100100006703000867030008670300086703000827
:100110006703000867030008CD660108670300084D
:100120006703000867030008670300086703000807
:1001300067030008670300086703000867030008F7
:1001400067030008670300086703000867030008E7
:1001500067030008670300086703000867030008D7
:1001600067030008670300086703000867030008C7
:100170006703000867030008670300080000000029
:1001800067030008670300086703000867030008A7
:100190006703000867030008670300086703000897
:1001A0006703000867030008670300086703000887
:1001B0006703000867030008670300086703000877
:1001C00067030008670300080000000067030008D9
:1001D0006703000867030008670300086703000857
:1001E0006703000867030008670300086703000847
:1001F000670300086703000800F002F800F077F8D2
:100200000AA090E8000C82448344AAF10107DA4571
:1002100001D100F06CF8AFF2090EBAE80F0013F04C
:10022000010F18BFFB1A43F001031847301B0500EC
:10023000501B05000A444FF0000C10F8013B13F06E
:10024000070408BF10F8014B1D1108BF10F8015B2F
:10025000641E05D010F8016B641E01F8016BF9D122
:1002600013F0080F1EBF10F8014BAD1C0C1B09D179
:100270006D1E58BF01F801CBFAD505E014F8016BEB
:1002800001F8016B6D1EF9D59142D6D3704700007D
:100290000023002400250026103A28BF78C1FBD88F
:1002A000520728BF30C148BF0B60704703681B0A64
:1002B00028BF41F08001642922F0CE84752922F004
:1002C000CB84782922F04285E42922F00185632934
:1002D00023F09580732923F09A80002070471FB582
:1002E00023F0FEF822F037FE1FBD10B510BD23F03D
:1002F000A9F81146FFF7F3FF00F076F823F0C7F8EE
:1003000003B4FFF7F2FF03BC00F056FA0B49D1F833
:1003100000C04A685CF8043B1068184442F8040BBB
:100320008C4528BFA1F1DC0C8A4228BFA1F1DC0278
:10033000C1F800C04A6020F000407047AC9F072021
:10034000DFF83000016841F4700101600A4880471D
:100350000A480047FEE7FEE7FEE7FEE7FEE7FEE7A6
:10036000FEE7FEE7FEE7FEE705480649044A064BBE
:100370007047000088ED00E055040008F90100080E
:1003800018A0072018A8072018A0072010B500F013
:1003900010F900F008FB15F04CFF09230222192187
:1003A0004FF4D87000F01BF9D82000F0C1F84FF4DA
:1003B000E13000F011FA1D4841686C2088470FF0C9
:1003C000FFFA13F02EFA12F020FC13F007FB16F0E0
:1003D00031F840F2374140F2E73016F047F921F0AA
:1003E000D7FB22F012FA10BD0024FFF7CFFF1BE06D
:1003F000002415E004EB44000D4911F82000012809
:100400000CD104EB44010A4A02EB81018868804761
:10041000002004EB4401064A02F82100601CC4B22B
:10042000044800788442E5DBE2E700003401022062
:10043000709A07207C020220704700BFFEE700BFD1
:10044000FEE700BFFEE770477047704710B500F049
:10045000E1FA10BD3048006840F470002E49086091
:100460004FF000602C4980390860704770B500205B
:100470000022022300240221284D2D6805F00C00E3
:1004800020B1042806D0082834D107E0244D254E99
:10049000356033E0244D234E35602FE01F4D2D1F76
:1004A0002D68C5F380541D4D2D1F2D6805F03F01AB
:1004B00054B11D4DB5FBF1F5184E361F3668C6F325
:1004C000881605FB06F209E0154DB5FBF1F5134E54
:1004D000361F3668C6F3881605FB06F20F4D2D1F32
:1004E0002D68C5F301456D1C6B00B2FBF3F50D4E95
:1004F000356003E00A4D0B4E356000BF00BF074D6D
:100500002D68C5F30315094E705D064D2D68C54075
:10051000044E356070BD000088ED00E008380240F0
:100520000024F4000000022040787D01EA34020833
:1005300019490860704770B5034600224FF0E02665
:100540007569154E366803FB06F44FF0E026B16975
:1005500010E04FF0E026B06988420BD0884202D20A
:100560000E1A324402E02E1A0E4432440146A242D0
:1005700000D300E0EDE700BF70BD10B504464FF4B6
:100580007A7104FB01F0FFF7D6FF10BD10B50446E9
:10059000A0B2FFF7F2FF10BD0400022030BF704789
:1005A00072B6704762B6704700BF80F3088800BF1C
:1005B000704710B500F071F800F0AAF879480068AB
:1005C00040F004007749086010BD77490968C1F31D
:1005D0004040704774490968C1F3004070472DE9F5
:1005E000F04194B080460D4616461F460024342143
:1005F00007A822F0DFFD142102A822F0DBFD00BFD6
:100600006A48006840F08050684908600846006801
:1006100000F08050019000BF00BF00BF6448006838
:1006200040F44040624908600846006800F44040D9
:10063000019000BF00BF0120079000040890022035
:100640000D9041050E91CDF840800F9511961297AF
:1006500007A801F064FD04461CB1012014B0BDE8F8
:10066000F08101F047FB04460CB10120F6E70F20B2
:10067000029002200390002004904FF4A0500590B7
:100680004FF480500690072102A802F012F80446A9
:100690000CB10120E2E70020E0E700BF00BF00BF8F
:1006A000BFF34F8F00BF00BF00BF00BF00BF00BF40
:1006B000BFF36F8F00BF00BF00BF002039494C3926
:1006C000086000BF00BF00BFBFF34F8F00BF00BF77
:1006D00000BF00BF00BF00BFBFF36F8F00BF00BFF0
:1006E00000BF3148006840F400302F49086000BF67
:1006F00000BF00BFBFF34F8F00BF00BF00BF00BFF0
:1007000000BF00BFBFF36F8F00BF00BF00BF7047C7
:1007100010B50023244C7034236000BF00BF00BF1D
:10072000BFF34F8F00BF00BF00BF231F1868C0F387
:100730004E3100BFC0F3C90200BF43F6E07303EAC5
:1007400041134FF0404404EA82742343154C3C3C6F
:10075000236000BF00BF131EA2F10102EDD10B1EEA
:10076000A1F10101E6D100BF00BF00BFBFF34F8F71
:1007700000BF00BF00BF0C4B1B6843F480330A4C22
:10078000236000BF00BF00BFBFF34F8F00BF00BF9B
:1007900000BF00BF00BF00BFBFF36F8F00BF00BF2F
:1007A00000BF10BD9CEF00E014ED00E040380240B7
:1007B0000070004000BF704700BF70470246002035
:1007C000704700BF604AD26902F04002002AF9D0A7
:1007D000C2B25D4B9A62704710B504465A485B49F5
:1007E00008600846446000218160C1600161816148
:1007F0000C21416103F091FA01225549534803F05D
:10080000B3FD10BD10B586B004464F49206888423C
:100810004FD100BF00BF4F48006840F010004D4965
:1008200008600846006800F01000009000BF00BF9C
:1008300000BF00BF00BF47481438006840F0010007
:100840004449143908600846006800F0010000902F
:1008500000BF00BF00BF00BF00BF0846006840F0F7
:10086000010008600846006800F00100009000BF29
:1008700000BF00BF481501900220029001200390A4
:10088000022004900720059001A9334800F0D6FF0C
:100890004FF4806001900720059001A92E4800F0D8
:1008A000CDFF252000F0E6F903221146252000F0B7
:1008B000A3F906B010BD10B504462349206888424C
:1008C0003BD12648008800F4004088BB23480088BC
:1008D00000F4804070B11E4800780A2803D0002040
:1008E0001E49088024E01D48008840F400401B4950
:1008F00008801DE0164800780D2806D117480088AA
:1009000040F480401549088012E0114800781349EE
:100910000988C1F30D01124A505410480088401C48
:100920000E49088008460088C72801DD002008809D
:1009300001220749054803F017FD10BD10B5034813
:1009400004F0CAF910BD000000100140B4030220F9
:100950000E00022044380240000002400C00022039
:10096000EC020220704770B50446884800784FF4C6
:100970007A71B1FBF0F086490968B1FBF0F52846C1
:1009800000F0C7F908B1012070BD102C07D2002279
:100990002146501E00F030F97E48046001E001203D
:1009A000F2E70020F0E710B57B48006840F40070E3
:1009B000794908600846006840F4807008600520A6
:1009C00000F008F90F20FFF7CEFFFFF7CBFF002064
:1009D00010BD704710B54FF0FF307049086000201F
:1009E0000860401E091D086000200860401E6B4919
:1009F0001039086000200860401E091D08600020B2
:100A00000860401E091D086000200860FFF7E1FF34
:100A1000002010BD624800685C49097808446049BC
:100A2000086070475E48006870475A480068704721
:100A300070B50446002555480078A0420AD05348B6
:100A40000678047053480068FFF78DFF05460DB126
:100A50004E480670284670BD4C480078704770B507
:100A60000446FFF7DFFF06462546681C10B14748DD
:100A70000078054400BFFFF7D5FF801BA842FAD3DA
:100A800070BD4FF0E020006920F002004FF0E0213F
:100A9000086170474FF0E020006940F002004FF01D
:100AA000E021086170473F4870473F480068000CEC
:100AB00070473D480068C0F30B0070473B48006832
:100AC00070473A48001D0068704738480830006891
:100AD00070473548406840F001003349486070472E
:100AE0003148406820F001002F49486070472E4887
:100AF000406840F002002C49486070472A4840682E
:100B000020F002002849486070472748406840F0BC
:100B100004002549486070472348406820F00400DD
:100B20002149486070472248006840F00100204990
:100B3000086070471E48006820F001001C490860EA
:100B400070471B482038006840F4806018492039FD
:100B50000860704716482038006820F44060144947
:100B600020390860704712482038006840F48070CF
:100B70000F492039086070470D482038006820F47C
:100B800080700B492039086070470000180002206F
:100B90000000022014000220003C024020380240E5
:100BA0001000022000080201002004E020F4F01FE1
:100BB0002038014010B5002804DB0A07130EEC4A68
:100BC000135406E00A07140EEA4A00F00F031B1F35
:100BD000D45410BD00BF00F00702E64B0C3B19686F
:100BE0004FF6FF031940E44B0B4343EA0221E14B6C
:100BF0000C3B196000BF70472DE9F05F80460D4641
:100C00001646002700F0AEF9074639462A46334615
:100C100001F00700C0F1070ABAF1040F02D94FF042
:100C2000040A01E0C0F1070AD14600F1040ABAF152
:100C3000070F02D24FF0000A01E0A0F1030AD446E8
:100C40004FF0010A0AFA09FAAAF1010A0AEA020AAD
:100C50000AFA0CFA4FF0010B0BFA0CFBABF1010B8B
:100C60000BEA030B4AEA0B0421464046FFF7A2FFBA
:100C7000BDE8F09F01460846002809DB00F01F038D
:100C800001229A4043099B0003F1E023C3F80021AD
:100C900000BF704710B501460846002817DB00F07A
:100CA0001F0301229A40B54B440943F8242000BF9A
:100CB00000BF00BFBFF34F8F00BF00BF00BF00BF2A
:100CC00000BF00BFBFF36F8F00BF00BF00BF00BFFA
:100CD00010BD00BF00BF00BF00BF00BFBFF34F8FFC
:100CE00000BF00BF00BFA3480C38006800F4E060FC
:100CF000A1490843001D9F490C39086000BF00BF8F
:100D000000BFBFF34F8F00BF00BF00BF00BF00BFD9
:100D1000FDE770B504462546681EB0F1807F01D31B
:100D200001200FE0681E4FF0E02148610F214FF0D5
:100D3000FF30FFF73FFF00204FF0E02188610720E0
:100D40000861002070BD00BF00BF00BFBFF35F8F10
:100D500000BF00BF00BF87480C30006820F480301F
:100D600084490C310860002082497C31086070475A
:100D700040F001017F4A7C3211607E490C310968E4
:100D800041F480317B4A0C32116000BF00BF00BFCC
:100D9000BFF34F8F00BF00BF00BF00BF00BF00BF49
:100DA000BFF36F8F00BF00BF00BF70474178714A2B
:100DB000803211600178F9B1121D41681160017B28
:100DC0000907C27A41EA0261827A41EAC241427B62
:100DD00041EA8241827B41EA4241C27B41EA0241CF
:100DE000427A41EA0221027A41EA42010278114341
:100DF000604A8832116005E000215E4A8432116049
:100E0000121D1160704710B500F0ACF810BD2DE94F
:100E1000F04304462046002803DB554F3F5C3F0962
:100E200007E0544F00F00F0CACF1040C17F80C70F5
:100E30003F093D460E4606F00700C0F10708B8F12D
:100E4000040F02D94FF0040801E0C0F10708C446BE
:100E500000F10408B8F1070F02D24FF0000801E0DA
:100E6000A0F10308474625FA07F84FF0010909FAEF
:100E70000CF9A9F1010908EA0908C2F800804FF04D
:100E8000010808FA07F8A8F1010808EA0508C3F8FC
:100E9000008000BFBDE8F08310B501460846002879
:100EA00008DB00F01F0301229A40344B80334409D1
:100EB00043F8242000BF10BD10B5014608460028A5
:100EC0000EDB2E4A8032430952F8232000F01F0423
:100ED0000123A3401A400AB1012202E0002200E0EF
:100EE0000022104610BD10B501460846002807DB59
:100EF00000F01F0301229A40214B440943F82420AB
:100F000000BF10BD10B50146084600280EDB1C4A84
:100F10008032430952F8232000F01F040123A3402C
:100F20001A400AB1012202E0002200E0002210462D
:100F300010BD042808D14FF0E021096941F00401F7
:100F40004FF0E022116107E04FF0E021096921F044
:100F500004014FF0E02211617047704710B5FFF7B0
:100F6000FCFF10BD03480C380068C0F30220704736
:100F700000E400E018ED00E00000FA0580E100E088
:100F800080E200E00146087810381823B0FBF3F245
:100F9000FE48805CC865032A05D908686FF309001C
:100FA000001D886503E008686FF309008865886D97
:100FB0007047014600208A6A8B69CBB932B1012A99
:100FC0000DD0022A03D0032A10D10EE000BFCB6A55
:100FD00003F08073B3F1807F00D1012007E0CB6A7A
:100FE000B3F1C07F00D1012001E000E000BF34E098
:100FF0008B69B3F5005F1AD132B1012A07D0022AFA
:1010000003D0032A11D10AE000BF01200EE0CB6A11
:1010100003F08073B3F1807F00D1012006E0CB6A3A
:10102000B3F1C07F00D1012000E000BF15E032B174
:10103000012A05D0022A04D0032A0CD103E000BF04
:1010400000BF012008E0CB6A03F08073B3F1807F1A
:1010500000D1012000E000BF00BF70472DE9F04142
:1010600004460025FFF7DEFC074614B90120BDE861
:10107000F081606A00B100BF00BF002084F8340036
:1010800000BF022084F835002068006820F00100CD
:10109000216808600AE0FFF7C5FCC01B052805D9D8
:1010A00020206065032084F83500E0E720680068B0
:1010B00000F001000028EED120680568B448054022
:1010C000D4E901010843E1680843216908436169E3
:1010D0000843A1690843E1690843216A08430543BD
:1010E000606A042803D1D4E90B0108430543206852
:1010F00005602068456925F00705606A0543606A58
:1011000004280DD1A06A0543E06A48B12046FFF7E4
:1011100050FF28B140206065012084F83500A6E723
:10112000206845612046FFF72DFF064694F85C10C5
:101130003F208840B06000206065012084F83500C1
:10114000002094E770B504460CB9012070BD94F8F6
:101150003500022800D1F9E72068006820F001007E
:1011600021680860002021680860216848602168C3
:1011700088602168C8602168086121202168486171
:101180002046FFF7FFFE054694F85C103F2088409C
:10119000A8600020E06320646064A064E0642065CF
:1011A000606584F8350000BF84F8340000BF00BFDC
:1011B000CCE730B50468246824F4802405682C60EA
:1011C000046863608468402C04D10468A2600468E9
:1011D000E16003E00468A1600468E26030BD2DE9CD
:1011E000F04104460D4616461F464FF0000800BF6A
:1011F00094F83400012802D10220BDE8F0810120DA
:1012000084F8340000BF94F83500012811D1022081
:1012100084F83500002060653B463246294620466A
:10122000FFF7C7FF2068006840F0010021680860F0
:1012300006E000BF002084F8340000BF4FF0020831
:101240004046DAE72DE9F04704460D4616461F46AC
:101250004FF00008D4F8589000BF94F834000128EB
:1012600002D10220BDE8F087012084F8340000BFDD
:1012700094F8350001282BD1022084F83500002095
:1012800060653B46324629462046FFF792FF94F8B8
:101290005C103F208840C9F808002068006840F0D2
:1012A0001600216808602068406940F080002168CD
:1012B0004861206C28B12068006840F0080021686F
:1012C00008602068006840F001002168086006E0BE
:1012D00000BF002084F8340000BF4FF002084046F1
:1012E000C0E770B50446A56DFFF79CFB064694F871
:1012F0003500022808D08020606500BF002084F8F7
:10130000340000BF012070BD2068006820F0160086
:10131000216808602068406920F0800021684861E9
:10132000206C08B9A06C28B12068006820F0080083
:10133000216808602068006820F0010021680860CA
:101340000FE0FFF76FFB801B05280AD9202060659E
:1013500000BF002084F8340000BF032084F835006B
:10136000D1E72068006800F001000028E9D194F876
:101370005C103F208840A86000BF002084F8340043
:1013800000BF012084F835000020BCE702350208C8
:101390003F8010E0014691F83500022803D08020FC
:1013A000486501207047052081F83500086800680D
:1013B00020F001000A6810600020F3E72DE9F05FDB
:1013C0000446884617464FF0000AFFF72BFB83467A
:1013D00094F83500022809D08020606500BF002005
:1013E00084F8340000BF0120BDE8F09F2068006849
:1013F00000F4807020B14FF4807060650120F3E745
:10140000B8F1000F05D194F85C10202000FA01F922
:1014100004E094F85C10102000FA01F9A56D2E6824
:1014200042E0781C90B12FB1FFF7FCFAA0EB0B0063
:10143000B8420BD92020606500BF002084F834003A
:1014400000BF012084F835000320CDE72E6894F812
:101450005C1008208840304040B1606D40F00100D1
:10146000606594F85C1008208840A86094F85C10CF
:1014700001208840304040B1606D40F0020060655E
:1014800094F85C1001208840A86094F85C10042057
:101490008840304040B1606D40F00400606594F8D1
:1014A0005C1004208840A86006EA090020B9606D3D
:1014B00000F001000028B4D0606DA0B1606D00F0B4
:1014C000010080B12046FFF70CFF94F85C1030203B
:1014D0008840A86000BF002084F8340000BF0120CD
:1014E00084F8350080E7B8F1000F0DD194F85C1056
:1014F00030208840A86000BF002084F8340000BF7E
:10150000012084F8350004E094F85C101020884035
:10151000A860504668E7F8B5044600200090C64829
:1015200000684FF41651B0FBF1F7A56D2E6894F8E2
:101530005C1008208840304098B12068006800F0B6
:10154000040070B12068006820F004002168086081
:1015500094F85C1008208840A860606D40F001009D
:10156000606594F85C1001208840304068B12068C4
:10157000406900F0800040B194F85C100120884080
:10158000A860606D40F00200606594F85C10042073
:101590008840304068B12068006800F0020040B127
:1015A00094F85C1004208840A860606D40F004004E
:1015B000606594F85C1010208840304078B3206853
:1015C000006800F0080050B394F85C1010208840C8
:1015D000A8602068006800F4802080B1206800685E
:1015E00000F4002028B9206CC8B12046216C88473F
:1015F00015E0A06C98B12046A16C88470FE02068E8
:10160000006800F4807028B92068006820F00800A5
:1016100021680860206C10B12046216C884794F83E
:101620005C10202088403040002865D02068006889
:1016300000F0100000285FD094F85C102020884053
:10164000A86094F83500052828D12068006820F0AB
:101650001600216808602068406920F08000216839
:101660004861206C08B9A06C28B12068006820F09F
:1016700008002168086094F85C103F208840A8604A
:1016800000BF002084F8340000BF012084F835003A
:10169000206D10B12046216D8847F8BD2068006894
:1016A00000F4802080B12068006800F4002028B990
:1016B000606C10B12046616C88471DE0E06BD8B1CA
:1016C0002046E16B884717E02068006800F48070CE
:1016D00068B92068006820F010002168086000BF29
:1016E000002084F8340000BF012084F83500E06B4E
:1016F00010B12046E16B8847606D38B3606D00F033
:101700000100F0B1052084F835002068006820F061
:1017100001002168086000BF0098401C0090B8429A
:1017200000D905E02068006800F001000028F3D12E
:1017300000BF00BF002084F8340000BF012084F8FF
:101740003500E06C10B12046E16C884700BFA4E78B
:1017500010B50346002400BF93F83400012801D1DE
:10176000022010BD012083F8340000BF93F835003B
:10177000012814D1062910D2DFE801F0030507097A
:101780000B0DDA630AE01A6408E05A6406E09A6412
:1017900004E0DA6402E01A6500E000BF00E0012422
:1017A00000BF002083F8340000BF2046D9E702467E
:1017B000002300BF92F83400012801D102207047B5
:1017C000012082F8340000BF92F83500012824D1AE
:1017D00007291FD2DFE801F004070A0D10131600D5
:1017E0000020D06318E00020106415E00020506451
:1017F00012E0002090640FE00020D0640CE0002094
:10180000106509E00020D063106450649064D064D7
:10181000106501E0012300BF00E0012300BF0020AC
:1018200082F8340000BF1846C9E7014691F8350038
:1018300070470146486D704700000220F8B5024627
:101840000B46002100250024002000BFE4E0012613
:1018500006FA01F51E6806EA0504AC4271D15E681D
:10186000012E08D05E68022E05D05E68112E02D0CF
:101870005E68122E13D190684F000326BE40B0431D
:101880004F00DE68BE4030439060506801268E40B5
:10189000B0431E79C6F300168E4030435060D068C6
:1018A0004F000326BE40B0434F009E68BE40304309
:1018B000D0605E68022E02D05E68122E13D1CF086F
:1018C00002F1200656F827004E07F70E0F26BE40FD
:1018D000B0434F07FF0E1E69BE403043CF0802F1F0
:1018E000200646F8270010684F000326BE40B0438C
:1018F0001E7906F003064F00BE40304310605E685C
:1019000006F08056B6F1805FA8D100BFB64E3668AB
:1019100046F48046B44F3E603E46366806F4804644
:10192000009600BF00BFB14E8F0856F827008E0703
:10193000370F0F26BE40B043AD4EB24202D1002653
:101940002EE068E0AB4EB24201D1012628E0AA4E5B
:10195000B24201D1022623E0A84EB24201D10326B1
:101960001EE0A74EB24201D1042619E0A54EB242B4
:1019700001D1052614E0A44EB24201D106260FE0A3
:10198000A24EB24201D107260AE0A14EB24201D1D5
:10199000082605E09F4EB24201D1092600E00A2642
:1019A0008F073F0FBE403043904E8F0846F8270008
:1019B000994E3068A0435E6806F48036B6F5803FE5
:1019C00000D12043944E3060361D3068A0435E68DD
:1019D00006F40036B6F5003F00D120438E4E361D8A
:1019E0003060361D3068A0435E6806F48016B6F598
:1019F000801F00D12043884E08363060361D306885
:101A0000A0435E6806F40016B6F5001F00D120431F
:101A1000814E0C363060491C1029FFF418AFF8BD18
:101A2000F0B50C4600250022002300219CE0012691
:101A300006FA01F504EA0502AA427CD16B4E8F0832
:101A400056F827308E07370F0F26BE403340684EBA
:101A5000B04201D100262DE0664EB04201D10126F0
:101A600028E0654EB04201D1022623E0634EB04229
:101A700001D103261EE0624EB04201D1042619E0D6
:101A8000604EB04201D1052614E05F4EB04201D154
:101A900006260FE05D4EB04201D107260AE05C4EFB
:101AA000B04201D1082605E05A4EB04201D10926C4
:101AB00000E00A268F073F0FBE409E4222D1564EBD
:101AC00036689643544F3E603E1D366896433F1D30
:101AD0003E603E1D366896433F1D3E603E1D3668A3
:101AE00096433F1D3E608E07370F0F2606FA07F319
:101AF0003E4E8F0856F827609E433C4F4FEA910CAC
:101B000047F82C6006684FEA410C032707FA0CF7E8
:101B1000BE430660CF0800F1200656F827604F0745
:101B20004FEAD76C0F2707FA0CF7BE434FEAD10CE8
:101B300000F1200700E016E047F82C60C6684FEA85
:101B4000410C032707FA0CF7BE43C660476801261D
:101B50008E40B743476086684FEA410C032707FA77
:101B60000CF7BE438660491C1029FFF460AFF0BD3E
:101B7000024613690B400BB1012000E000207047C2
:101B80000AB1816101E00B048361704742690A4038
:101B900012B10A04826100E08161704708B5024613
:101BA0004FF4803000900098084300900098D06176
:101BB000D1610098D061D0690090D06900F4803084
:101BC00008B1002008BD0120FCE7704710B50446AD
:101BD000114814300068204028B10F4814300460C8
:101BE0002046FFF7F2FF10BD44380240083801409C
:101BF000000002400004024000080240000C0240C5
:101C0000001002400014024000180240001C024074
:101C10000020024000240240003C014010B5002496
:101C2000DA48406840F40070D84948600846406887
:101C300040F480704860FEF7F5FE044607E0FEF7CA
:101C4000F1FE001BB0F57A7F01D9032010BDCF480B
:101C50004068C0F3C0000028F1D00020F6E710B5BE
:101C60000024CA48406820F40070C849486008460B
:101C7000406840F480704860FEF7D4FE044607E0F8
:101C8000FEF7D0FE001BB0F57A7F01D9032010BD0E
:101C9000BE484068C0F3C0000028F1D100BFF6E79D
:101CA000BA48006840F40070B84908607047B74807
:101CB000006820F40070B54908607047B3480068B8
:101CC00040F40060B14908607047B048006820F4F3
:101CD0000060AE4908607047AC48006840F480601E
:101CE000AA4908607047A948006820F48060A749A5
:101CF0000860704738B5002400BFA548006840F070
:101D00008050A34908600846006800F080500090A9
:101D100000BF00BF9D48006840F480309B490860C8
:101D2000FEF780FE044607E0FEF77CFE001BB0F5E0
:101D30007A7F01D9032038BD9448406800F4803090
:101D4000B0F5803FF0D19148006840F400308F49F1
:101D50000860FEF767FE044607E0FEF763FE001B1F
:101D6000B0F57A7F01D90320E5E78848406800F4A0
:101D70000030B0F5003FF0D10020DCE738B500249A
:101D800000BF8348006840F08050814908600846E1
:101D9000006800F08050009000BF00BF7B480068E2
:101DA00020F4003079490860FEF73CFE044607E065
:101DB000FEF738FE001BB0F57A7F01D9032038BD4D
:101DC0007248406800F40030B0F5003FF0D06F4832
:101DD000006820F480306D490860FEF723FE044659
:101DE00007E0FEF71FFE001BB0F57A7F01D9032044
:101DF000E5E76648406800F48030B0F5803FF0D0F9
:101E00000020DCE7F8B505460E460024002700BF99
:101E10005F48006840F080505D49086008460068EF
:101E200000F08050009000BF00BF5848406840F468
:101E30004020564948600846006840F44020086049
:101E4000FEF7F0FD074607E0FEF7ECFDC01BB0F51E
:101E50007A7F01D90320F8BD4C48406800F4402047
:101E6000B0F5402FF0D04948046840F60340844361
:101E70002C43464804604748006840F00400454948
:101E80000860012E01D130BF00E020BF414800684A
:101E900020F004003F4908600020DCE73B48006870
:101EA00000F44040704738B50546002400BF38486C
:101EB000006840F08050364908600846006800F02D
:101EC0008050009000BF00BF31483838006800F0F3
:101ED0000C00082855D02E484038006820F080704B
:101EE0002B4940390860FEF79DFD044606E0FEF7E9
:101EF00099FD001B022801D9032038BD2448403831
:101F00000068C0F340600028F1D100BF1F4800689E
:101F100020F4404028431D4908600846006800F44A
:101F20004040009000BF00BF19484038006840F0B2
:101F30008070174940390860FEF774FD044606E0DA
:101F4000FEF770FD001B022801D90320D5E71048D9
:101F500040380068C0F340600028F1D0FEF762FD11
:101F6000044607E0FEF75EFD001BB0F57A7F01D95D
:101F70000320C2E705484068C0F380300028F1D054
:101F800001E00120B9E70020B7E700000070004041
:101F90004038024010ED00E010B5FEF743FD044666
:101FA000FE48006840F00100FC49086006E0FEF7CA
:101FB00039FD001B022801D9032010BDF748006835
:101FC00000F002000028F2D0F448006840F08000E1
:101FD000F2490860FEF726FD04460020EF4908316B
:101FE000086008E0FEF71EFD001B41F288318842C0
:101FF00001D90320E1E7E9480830006800F00C004F
:102000000028EFD1FEF70EFD0446E448006820F4F6
:102010005020E249086006E0FEF704FD001B64283A
:1020200001D90320C9E7DD48006800F4003000282A
:10203000F2D1FEF7F7FC0446D848006820F0807023
:10204000D649086006E0FEF7EDFC001B022801D926
:102050000320B2E7D148006800F000700028F2D1F8
:10206000FEF7E0FC0446CD48006820F08060CB49D4
:10207000086006E0FEF7D6FC001B642801D90320A7
:102080009BE7C648006800F000600028F2D1FEF728
:10209000C9FC0446C148006820F08050BF49086070
:1020A00006E0FEF7BFFC001B642801D9032084E78B
:1020B000BA48006800F000500028F2D1B848B7498B
:1020C000091D0860B6481038B44984310860091DFC
:1020D0000860B2480C30006820F4FE40AF490C3173
:1020E00008600846006840F47F000860AB48743020
:1020F000006820F00100A9497431086008460068B2
:1021000040F080700860A748A7490860A7480068A9
:10211000FEF729FC08B101204FE700204DE7F8B594
:10212000044600270CB90120F8BD207800F001001A
:1021300000287BD099480830006800F00C00042883
:102140000ED096480830006800F00C00082812D124
:102150009248001D006800F48000B0F5800F0AD19D
:102160008E480068C0F3404000285FD060680028B7
:102170005CD10120D8E700BF6068B0F5803F06D190
:102180008648006840F480308449086028E0606830
:1021900058B98248006820F48030804908600846B9
:1021A000006820F4802008601AE06068B0F5A02F75
:1021B0000BD17A48006840F48020784908600846CE
:1021C000006840F4803008600AE07448006820F439
:1021D0008030724908600846006820F4802008605A
:1021E00000BF606888B1FEF71DFC054606E0FEF7FB
:1021F00019FC401B642801D9032095E76748006853
:10220000C0F340400028F2D010E0FEF70BFC05467A
:1022100006E0FEF707FC401B642801D9032083E792
:102220005E480068C0F340400028F2D1207800F0FA
:102230000200022860D159480830006800F00C0004
:1022400060B156480830006800F00C00082819D129
:102250005248001D006800F4800098B94F4800689B
:10226000C0F3400020B1E068012801D001205BE705
:102270004A48006820F0F800216940EAC100474957
:10228000086039E0E06800B34448006840F00100AD
:1022900042490860FEF7C6FB054606E0FEF7C2FBB2
:1022A000401B022801D903203EE73C480068C0F3E8
:1022B00040000028F2D03948006820F0F800216979
:1022C00040EAC1003549086016E03448006820F053
:1022D000010032490860FEF7A5FB054606E0FEF75F
:1022E000A1FB401B022801D903201DE72B480068F1
:1022F000C0F340000028F2D1207800F00800082840
:1023000036D16069D0B125487430006840F00100D2
:10231000224974310860FEF785FB054606E0FEF7AA
:1023200081FB401B022801D90320FDE61B487430C5
:102330000068C0F340000028F1D019E0174874305D
:10234000006820F00100154974310860FEF76AFB4F
:10235000054606E0FEF766FB401B022801D9032074
:10236000E2E60E4874300068C0F340000028F1D166
:10237000207800F00400042877D108484030006835
:1023800000F08050D8B900BF04484030006840F0E9
:102390008050024940310860084609E00038024098
:1023A000103000240024F400000002201400022059
:1023B000006800F08050009000BF00BF0127F74880
:1023C000006800F48070B0B9F448006840F4807090
:1023D000F2490860FEF726FB054606E0FEF722FB01
:1023E000401B642801D903209EE6EC48006800F4F5
:1023F00080700028F2D000BFA068012806D1E8480C
:10240000006840F00100E649086027E0A06858B97C
:10241000E348006820F00100E149086008460068D0
:1024200020F00400086019E0A06805280BD1DC4802
:10243000006840F00400DA4908600846006840F08F
:10244000010008600AE0D648006820F00100D44985
:1024500008600846006820F00400086000BFA0681B
:10246000A0B1FEF7DFFA054609E02CE0FEF7DAFA44
:10247000401B41F28831884201D9032054E6C84804
:102480000068C0F340000028F0D012E0FEF7CAFA5E
:10249000054608E0FEF7C6FA401B41F28831884243
:1024A00001D9032040E6BE480068C0F34000002880
:1024B000F0D1012F07D1BA483038006820F08050A1
:1024C000B74930390860A069002852D0B44868384C
:1024D000006800F00C00082867D0A069022849D1E4
:1024E000AF487038006820F08070AD4970390860DE
:1024F000FEF798FA054606E0FEF794FA401B02281C
:1025000001D9032010E6A64870380068C0F3406087
:102510000028F1D1D4E907010843616A40EA81113A
:102520000122A06AC2EB500041EA00412C20005D6C
:1025300041EA00613020005D41EA007098496C3941
:102540000860081F006840F08070091F0860FEF7EF
:1025500069FA054606E0FEF765FA401B022801D934
:102560000320E1E58E4870380068C0F34060002821
:10257000F1D04AE08A487038006820F080708849BD
:1025800070390860FEF74EFA054606E0FEF74AFA93
:10259000401B022801D90320C6E581487038006835
:1025A000C0F340600028F1D12FE07D486C38066808
:1025B000A069012827D006F48001E069814222D178
:1025C00006F03F01206A81421DD147F6C0703040BD
:1025D000616AB0EB811F16D106F440310122A06A76
:1025E000C2EB5000B1EB004F0DD106F070612C2012
:1025F000005DB1EB006F06D106F0E0413020005DD8
:10260000B1EB007F01D001208EE500208CE52DE9A3
:10261000F047002400250026A1466148683800687C
:1026200000F00C0020B1042805D008283AD105E0BC
:10263000DFF8709139E0DFF8709136E058486C3877
:10264000006800F03F0456486C38006800F48000D1
:1026500078B1554852496C390968C1F38811A0FB1B
:102660000170014622460023384620F00EFA054646
:102670000EE04C484A496C390968C1F38811A0FB47
:102680000170014622460023384620F0FEF9054637
:1026900043486C380068C0F30140401C4600B5FB5D
:1026A000F6F902E0DFF8FC9000BF00BF4846BDE845
:1026B000F08770B504460D4600260CB9012070BDA8
:1026C0003A48006800F00F00A8420ED23748006870
:1026D00020F00F002843354908600846006800F0E4
:1026E0000F00A84201D00120E9E7207800F00200A5
:1026F000022823D1207800F00400042807D12848BC
:102700006838006840F4E05025496839086020784E
:1027100000F00800082807D121486838006840F414
:1027200060401F49683908601D486838006820F01B
:10273000F000A16808431A4968390860207800F061
:102740000100A8B36068012807D1154870380068F7
:10275000C0F34040A0B90120B1E76068022807D16A
:102760000F4870380068C0F3406048B90120A6E700
:102770000B4870380068C0F3400008B901209EE79C
:1027800007486838006820F003006168084304497E
:1027900068390860FEF746F9064613E0007000400D
:1027A000703802400024F40040787D01003C024073
:1027B00010E0FEF737F9801B41F28831884201D9D9
:1027C00003207CE7BF48006800F00C006168B0EBB4
:1027D000810FEED1BC48006800F00F00A8420ED96E
:1027E000B948006820F00F002843B7490860084640
:1027F000006800F00F00A84201D001205FE72078B8
:1028000000F00400042807D1AE48006820F4E0502E
:10281000E1680843AB490860207800F00800082808
:1028200008D1A848006820F46040216940EAC1004E
:10283000A4490860FFF7EBFEA2490968C1F3031140
:10284000A24A515CC840A2490860A2480068FEF74D
:102850008AF8002033E770B586B006460C46154668
:1028600036BB00BF97482830006840F0010095490A
:10287000283108600846006800F00100009000BFA1
:1028800000BF8815019002200290032004900020D0
:102890000390059001A99048FEF7D0FF8948006891
:1028A00020F0EC6044EA050108438649086025E011
:1028B00000BF84482830006840F004008149283176
:1028C00008600846006800F00400009000BF00BFE8
:1028D00048150190022002900320049000200390EC
:1028E000059001A97D48FEF7A9FF7648006820F011
:1028F000784044EAC50108437249086006B070BDDB
:1029000070480838006840F400206E4908390860B3
:1029100070476C480838006820F40020694908397D
:10292000086070476A480068704700B5FFF7FAFF13
:1029300064490968C1F38221694A515CC84000BDFD
:1029400000B5FFF7EFFF5F490968C1F34231644A00
:10295000515CC84000BD0F2101605A49083909681F
:1029600001F48021B1F5802F03D14FF4A021416003
:102970000DE054490839096801F48031B1F5803F10
:1029800003D14FF48031416001E0002141604D49A5
:102990000839096801F0010111B10121C16001E0AC
:1029A0000021C160474908390968C1F3C4010161C8
:1029B00044496831096801F00401042902D1052164
:1029C00081600AE03F496831096801F0010111B1F5
:1029D0000121816001E0002181603A496C31096880
:1029E00001F0010111B10121416101E000214161CA
:1029F00034490839096801F08071B1F1807F02D152
:102A00000221816101E0012181612E49091F0968CC
:102A100001F48002C2612B49091F096801F03F02DD
:102A200002622849091F0968C1F3881242622549D8
:102A3000091F096801F4403101F58031CA0B826237
:102A40002049091F0968C1F30362C2621D49091FB9
:102A5000096801F0E0414FF0E04292FAA2F2B2FAC6
:102A600082F2D140016370470F220260154A12685A
:102A700002F003024260134A126802F0F002826020
:102A8000104A126802F4E052C2600E4A126802F460
:102A90006042D20802610C4A126802F00F020A601A
:102AA0007047704710B50748001D006800F08000AF
:102AB000802805D1FFF7F5FF80200249891D0870A5
:102AC00010BD000008380240003C0240EA34020811
:102AD0000000022014000220000002400008024012
:102AE000FA3402082DE9F8430446002600250027A1
:102AF000A846A946207800F0010088B100BFFE4832
:102B0000006820F40000FC49086008460068616B1A
:102B10000843F949086000BF606B08B94FF001082D
:102B2000206800F40020B0F5002F13D1F248843063
:102B3000006820F44010E16B0843EF4984310860DD
:102B4000E06BB0F5801F01D14FF00108E06B08B9D0
:102B50004FF00109206800F48010B0F5801F13D1F8
:102B6000E5488430006820F44000216C0843E249C5
:102B700084310860206CB0F5800F01D14FF001085E
:102B8000206C08B94FF00109206800F08070B0F1A6
:102B9000807F01D14FF00108207800F0200020282C
:102BA00070D100BFD4483830006840F08050D2491E
:102BB000383108600846006800F08050009000BF7F
:102BC00000BFCE48006840F48070CC490860FDF733
:102BD00029FF064607E0FDF725FF801B642802D980
:102BE0000320BDE8F883C548006800F48070002821
:102BF000F1D0C1486830006800F4407585B3208E7C
:102C000000F44070A8422BD0BB486830006820F424
:102C10004075B9486830006840F48030B649683182
:102C200008600846006820F48030086008460560A7
:102C3000006800F0010098B1FDF7F4FE064608E0D8
:102C4000FDF7F0FE801B41F28831884201D9032054
:102C5000C7E7A94868300068C0F340000028EFD0FB
:102C600000BF208E00F44070B0F5407F0BD1A24829
:102C7000006820F4F810A24A216B114008439E49D5
:102C8000086006E010E09C48006820F4F8109A49BB
:102C90000860994868300068218EC1F30B01084331
:102CA00095496831086000BF207800F010001028B6
:102CB00010D100BF90488430006820F080708E49A9
:102CC0008431086008460068A16B08438A49843152
:102CD000086000BF208800F48040B0F5804F09D123
:102CE00085488830006820F44030616E084382498E
:102CF00088310860208800F40040B0F5004F09D109
:102D00007D488830006820F44020A16E08437A494D
:102D100088310860206800F48030B0F5803F09D128
:102D200075488830006820F44010E16E084372490D
:102D300088310860206800F40030B0F5003F09D108
:102D40006D488830006820F44000216F08436A49CC
:102D500088310860207800F04000402809D166489A
:102D60008830006820F00300616C084362498831B4
:102D70000860207800F08000802809D15E48883003
:102D8000006820F00C00A16C08435B4988310860A2
:102D9000208800F48070B0F5807F09D156488830D3
:102DA000006820F03000E16C084353498831086026
:102DB000208800F40070B0F5007F09D14E488830BB
:102DC000006820F0C000216D08434B49883108603D
:102DD000208800F48060B0F5806F09D146488830C3
:102DE000006820F44070616D0843434988310860F1
:102DF000208800F40060B0F5006F09D13E488830AB
:102E0000006820F44060A16D08433B4988310860A8
:102E1000208800F48050B0F5805F09D136488830B2
:102E2000006820F44050E16D084333498831086060
:102E3000208800F40050B0F5005F09D12E4888309A
:102E4000006820F44040216E08432B498831086017
:102E5000206800F48000B0F5800F09D12648883042
:102E6000006820F08060A16F084323498831086022
:102E7000206800F40010B0F5001F0FD11E48883004
:102E8000006820F00060E16F08431B49883108604A
:102E9000E06FB0F1006F01D14FF00109207800F030
:102EA0000800082801D14FF00109206800F48020B3
:102EB000B0F5802F09D110488830006820F04070AC
:102EC000616F08430C4988310860206800F40000F5
:102ED000B0F5000F0AD108488830006820F0805013
:102EE000D4F880100843044988310860206800F055
:102EF0008060B0F1806F05E008380240007000404B
:102F0000FFFCFF0F08D1FE48006820F00050D4F805
:102F100084100843FA490860206800F00060B0F1AE
:102F2000006F0AD1F648001F006820F00070D4F846
:102F300088100843F249091F0860206800F080509B
:102F4000B0F1805F0AD1EE48001F006820F0806079
:102F5000D4F88C100843EA49091F0860B8F1010F42
:102F600003D02068B0F1007F7ED1E548903800683A
:102F700020F08060E24990390860FDF753FD064675
:102F800006E0FDF74FFD801B642801D9032028E6E9
:102F9000DB4890380068C0F3C0600028F1D1207889
:102FA00000F00100B8B1606BA8B9D5480C380068D2
:102FB000C0F30145D2480C380068C0F3036760686D
:102FC000800140EA054040EA0761207A41EA00704A
:102FD000CB490C390860206800F40020B0F5002FC0
:102FE00003D1E06BB0F5801F09D0206800F4801099
:102FF000B0F5801F24D1206CB0F5800F20D1C048DF
:103000000C380068C0F30145BD480C380068C0F3B7
:1030100002776068800140EA0541207B41EA006058
:1030200040EA0770B6490C390860B548001F0068CF
:1030300020F01F00616A491E0843B149091F08605A
:10304000206800F08070B0F1807F17D1AC480C3858
:103050000068C0F30365AA480C380068C0F3027723
:1030600060688101208A00E036E041EA004040EAE1
:10307000056040EA0770A2490C390860206800F03A
:103080000070B0F1007F0DD160688101208A41EAB3
:103090000041207B41EA0061207A41EA00709849B2
:1030A0000C39086096489038006840F08060944978
:1030B00090390860FDF7B6FC064606E0FDF7B2FC65
:1030C000801B642801D903208BE58D489038006867
:1030D000C0F3C0600028F1D0B9F1010F7ED188485B
:1030E0009038006820F08050854990390860FDF7DD
:1030F00099FC064606E0FDF795FC801B642801D983
:1031000003206EE57E4890380068C0F340700028C8
:10311000F1D1206800F40020B0F5002F01D1E06B60
:1031200038B1206800F48010B0F5801F22D1206CE7
:1031300000BB734808380068C0F301457048083880
:103140000068C0F302776069800140EA0541207E93
:1031500041EA006040EA0770694908390860081DC3
:10316000006820F4F851A06A401E41EA002064493A
:10317000091F0860206800F40010B0F5001F19D185
:10318000E06FB0F1006F15D15D4808380068C0F3FA
:1031900003655B4808380068C0F302776069810105
:1031A000208C41EA004040EA056040EA077054493B
:1031B00008390860207800F00800082820D150481D
:1031C00008380068C0F303654D4808380068C0F34C
:1031D00001476069800140EA074000E02AE040EAD8
:1031E0000561207F41EA0070454908390860081DE3
:1031F000006820F44030E16A08434149091F086033
:103200003F489038006840F080503D499039086050
:10321000FDF708FC064606E0FDF704FC801B642869
:1032200001D90320DDE4364890380068C0F34070CF
:103230000028F1D00020D4E40021324A0260304A54
:103240000C3A1268C2F3881242602D4A0C3A126896
:10325000C2F3014303612A4A0C3A1268C2F30363C2
:10326000C360274A0C3A1268C2F302738360244A8F
:10327000083A1268C2F388124261214A083A126879
:10328000C2F3014303621E4A083A1268C2F30363A1
:1032900083611B4A083A1268C2F30273C361184A79
:1032A000121F126802F01F0240F8242F144A121F46
:1032B0001268C2F304224260114A121F1268C2F35C
:1032C000014282600E4A121F126802F440128261AB
:1032D0000B4A121F126802F44002C261084A883A7F
:1032E000126802F400020261054A126802F44032D8
:1032F0000264034A126802F440224264004A03E076
:1033000090380240F1FFFF1C126802F44012826400
:10331000FE4A126802F44002C264FC4A126802F0DB
:1033200003020262F94A126802F00C024262F74A92
:10333000126802F030028262F44A126802F0C0029F
:10334000C262F24A126802F440720263EF4A1268E3
:1033500002F440624263ED4A126802F44052826312
:10336000EA4A126802F44042C263E84A126802F074
:1033700040720265E54A126802F080624265E34AE3
:10338000126802F000628265E04A126802F0805220
:10339000C265DE4A126802F000520266DB4A121F62
:1033A000126802F000724266D84A121F126802F0D8
:1033B00080628266D54A883A126802F4F811D34ACC
:1033C000203A126802F440720A43C2602438CF4A9D
:1033D000121F126802F0807212B90022826302E0AA
:1033E0004FF080728263704770B504460021002060
:1033F00000220023B4F5002F78D1C44D2D1F2B6877
:1034000003F440134BB1B3F5801F33D0B3F5001F65
:103410005DD0B3F5401F67D15BE0BC4D8C3D2D689E
:1034200005F4800545B9B94D8C3D2D6805F03F0583
:10343000B74EB6FBF5F207E0B44D8C3D2D6805F0B4
:103440003F05B44EB6FBF5F2B04D083D2D68C5F30F
:103450000361AE4D083D2D68C5F388155543B5FB96
:10346000F1F0AA4D2D1F2D68C5F30425691CB0FB92
:10347000F1F03AE0A54D8C3D2D6805F4800545B985
:10348000A24D8C3D2D6805F03F05A14EB6FBF5F22F
:1034900007E09E4D8C3D2D6805F03F059D4EB6FB27
:1034A000F5F29A4D0C3D2D68C5F30361974D0C3D27
:1034B0002D68C5F388155543B5FBF1F0934D2D1FCD
:1034C0002D6805F01F05691CB0FBF1F00DE0924876
:1034D0000BE08E4D8C3D2D6805F4800515B98C48A8
:1034E00001E003E08B4800E000BF00BFB4F5801F9F
:1034F00078D1864D2D1F2B6803F440034BB1B3F5F3
:10350000800F33D0B3F5000F5DD0B3F5400F67D116
:103510005BE07E4D8C3D2D6805F4800545B97B4D03
:103520008C3D2D6805F03F05794EB6FBF5F207E0BE
:10353000764D8C3D2D6805F03F05764EB6FBF5F2D5
:10354000724D083D2D68C5F30361704D083D2D682F
:10355000C5F388155543B5FBF1F06C4D2D1F2D6853
:10356000C5F30425691CB0FBF1F03AE0674D8C3DD2
:103570002D6805F4800545B9644D8C3D2D6805F036
:103580003F05634EB6FBF5F207E0604D8C3D2D68BC
:1035900005F03F055F4EB6FBF5F25C4D0C3D2D6826
:1035A000C5F30361594D0C3D2D68C5F3881555438E
:1035B000B5FBF1F0554D2D1F2D6805F01F05691C59
:1035C000B0FBF1F00DE054480BE0504D8C3D2D6800
:1035D00005F4800515B94E4801E003E04D4800E0D0
:1035E00000BF00BF70BD70B5044648489038006801
:1035F00020F08060454990390860FDF713FA0546D0
:1036000006E0FDF70FFA401B642801D9032070BDC6
:103610003E4890380068C0F3C0600028F1D12068AF
:103620008001A18940EA0140217A40EA01602179C4
:1036300040EA017035490C39086034489038006818
:1036400040F08060314990390860FDF7EBF905469C
:1036500006E0FDF7E7F9401B642801D90320D6E70F
:103660002A4890380068C0F3C0600028F1D00020DC
:10367000CDE710B525489038006820F080602349D8
:1036800090390860FDF7CEF9044606E0FDF7CAF967
:10369000001B642801D9032010BD1C489038006825
:1036A00000F000600028F1D100BFF5E770B50446D6
:1036B00016489038006820F080501449903908600E
:1036C000FDF7B0F9054606E0FDF7ACF9401B6428AC
:1036D00001D9032070BD0D4890380068C0F34070D8
:1036E0000028F1D120688001A18940EA01402179B8
:1036F00040EA0160217A40EA017004490839086013
:1037000002489038006840F0805007E0903802404E
:103710000024F40040787D010080BB0019499039F5
:103720000860FDF77FF9054606E0FDF77BF9401BD1
:10373000642801D90320CDE7124890380068C0F30F
:1037400040700028F1D00020C4E710B50D48903833
:10375000006820F080500B4990390860FDF762F94D
:10376000044606E0FDF75EF9001B642801D903203A
:1037700010BD044890380068C0F340700028F1D1B3
:1037800000BFF5E7903802402DE9F04104460D46B0
:1037900017469846069E45E0701C002842D0FDF76B
:1037A00041F9A0EB0800B04200D8B6B92068006823
:1037B00020F4D070216808602068806820F0010043
:1037C0002168886020206067A06700BF002084F81F
:1037D000700000BF0320BDE8F0812068006800F0A1
:1037E0000400F8B12068C069C0F3C020D0B14FF424
:1037F0000060216808622068006820F4D0702168A9
:1038000008602068806820F001002168886020201E
:103810006067A067E06700BF002084F8700000BF09
:103820000320D8E72068C0692840A84201D10120C0
:1038300000E00020B842AFD00020CCE738B5044605
:103840000020E067FDF7EEF805462068006800F00C
:10385000080008280CD16FF07E402B4600224FF460
:10386000001100902046FFF78FFF08B1032038BDFC
:103870002068006800F0040004280CD16FF07E403E
:103880002B4600224FF4800100902046FFF77CFF7A
:1038900008B10320EBE720206067A06700BF00208D
:1038A00084F8700000BF00BFE1E790F8241001F039
:1038B000010139B10168496821F40031826A11437C
:1038C0000268516090F8241001F00201022907D12A
:1038D0000168496821F48031C26A1143026851606D
:1038E00090F8241001F00401042907D10168496807
:1038F00021F48021026B11430268516090F824107A
:1039000001F00801082907D10168496821F4004144
:10391000426B11430268516090F8241001F01001CD
:10392000102907D10168896821F48051826B114305
:103930000268916090F8241001F02001202907D13D
:103940000168896821F40051C26B114302689160DB
:1039500090F8241001F04001402913D10168496812
:1039600021F48011026C114302685160016CB1F5C1
:10397000801F07D10168496821F4C001426C1143DE
:103980000268516090F8241001F08001802907D16D
:103990000168496821F40021826C1143026851607A
:1039A00070472DE9F04704460027BA462169A06810
:1039B000084361690843E16940EA0108206800683A
:1039C000FE49084040EA0800216808602068406815
:1039D00020F44050E168084321684860D4F818801A
:1039E000206A40EA08082068806820F4306040EAD5
:1039F00008002168886000BFF1492068884216D11C
:103A0000F048006800F0030030B1012808D0022817
:103A100004D0032808D105E0012507E0022505E0D0
:103A2000042503E0082501E0102500BFC9E0E649B0
:103A30002068884216D1E348006800F00C0030B1DD
:103A4000042808D0082804D00C2808D105E0002557
:103A500007E0022505E0042503E0082501E0102524
:103A600000BFAEE0D9492068884216D1D548006829
:103A700000F0300030B1102808D0202804D03028C1
:103A800008D105E0002507E0022505E0042503E054
:103A9000082501E0102500BF93E0CD492068884249
:103AA00016D1C848006800F0C00030B1402808D0E6
:103AB000802804D0C02808D105E0002507E00225B1
:103AC00005E0042503E0082501E0102500BF78E0AB
:103AD000C0492068884219D1BA48006800F4407093
:103AE00048B1B0F5807F0AD0B0F5007F05D0B0F5C1
:103AF000407F08D105E0002507E0022505E0042508
:103B000003E0082501E0102500BF5AE0B249206813
:103B1000884219D1AB48006800F4406048B1B0F564
:103B2000806F0AD0B0F5006F05D0B0F5406F08D1B6
:103B300005E0012507E0022505E0042503E008254E
:103B400001E0102500BF3CE0A4492068884219D15B
:103B50009C48006800F4405048B1B0F5805F0AD03E
:103B6000B0F5005F05D0B0F5405F08D105E0002555
:103B700007E0022505E0042503E0082501E0102503
:103B800000BF1EE096492068884219D18D48006820
:103B900000F4404048B1B0F5804F0AD0B0F5004F76
:103BA00005D0B0F5404F08D105E0002507E002251B
:103BB00005E0042503E0082501E0102500BF00E032
:103BC000102500BFE069B0F5004F54D1092D3AD25D
:103BD000DFE805F005101B39243939392F00FEF7CD
:103BE000A4FE06467000616800EB5100B0FBF1F0E6
:103BF00087B22BE0FEF7A4FE06467000616800EB7A
:103C00005100B0FBF1F087B220E07649606801EB2B
:103C100050006168B0FBF1F087B217E0FEF7F7FCE7
:103C200006467000616800EB5100B0FBF1F087B20E
:103C30000CE04FF48031606801EB50006168B0FB2C
:103C4000F1F087B202E04FF0010A00BF00BF102F71
:103C50000ED3B7F5803F0BD24FF6F07007EA00099C
:103C6000C7F3420049EA00092068C0F80C904DE013
:103C70004FF0010A4AE0092D3AD2DFE805F00510BD
:103C80001B39243939392F00FEF74FFE064660688C
:103C900006EB50006168B0FBF1F087B22BE0FEF755
:103CA0004FFE0646606806EB50006168B0FBF1F01D
:103CB00087B220E04C49606801EB50006168B0FBBE
:103CC000F1F087B217E0FEF7A2FC0646606806EB4B
:103CD00050006168B0FBF1F087B20CE04FF4004196
:103CE000606801EB50006168B0FBF1F087B202E060
:103CF0004FF0010A00BF00BF102F05D3B7F5803F7A
:103D000002D22068C76001E04FF0010A002020665F
:103D100060665046BDE8F087704710B504460CB9A0
:103D2000012010BDA06900B100E000BF606F28B99C
:103D3000002084F870002046FCF764FD24206067B2
:103D40002068006820F00100216808602046FFF725
:103D500028FE012800D1E4E7606A10B12046FFF791
:103D6000A4FD2068406820F49040216848602068E5
:103D7000806820F02A00216888602068006840F090
:103D80000100216808602046FFF758FDC9E710B51B
:103D900004460CB9012010BD606F28B9002084F8DA
:103DA00070002046FCF72EFD242060672068006824
:103DB00020F0010021680860204617E0F369FFEF5A
:103DC000001001409038024000440040004800408C
:103DD000004C0040005000400014014000780040BA
:103DE000007C00400048E8010024F400FFF7D9FD02
:103DF000012800D1CFE7606A10B12046FFF755FDDA
:103E00002068406820F490402168486020688068FD
:103E100020F02200216888602068806840F0080057
:103E2000216888602068006840F00100216808600F
:103E30002046FFF703FDAEE770B504460D460CB90A
:103E4000012070BDE069B0F5004F01D10120F8E715
:103E5000A06808B10120F4E7606F28B9002084F859
:103E600070002046FCF7CEFC2420606720680068C4
:103E700020F00100216808602046FFF792FD01282C
:103E800000D1DEE7606A10B12046FFF70EFD206822
:103E9000406820F40060216848602068806820F055
:103EA0002A00216888602068406840F480402168CA
:103EB00048602068406820F020002843216848605E
:103EC0002068006840F00100216808602046FFF784
:103ED000B5FCB6E770B504460E4615460CB9012090
:103EE00070BD606F28B9002084F870002046FCF790
:103EF00089FC242060672068006820F001002168A8
:103F000008602046FFF74DFD012800D1E8E7606A10
:103F100010B12046FFF7C9FC2068406820F49040AB
:103F2000216848602068806820F02A002168886045
:103F3000B5F5006F05D12068406866F31F60216801
:103F400048602068006820F4006028432168086009
:103F50002068006840F00100216808602046FFF7F3
:103F60006DFCBDE7704710B504460CB9012010BDCB
:103F7000242060672068006820F001002168086044
:103F80000020216808602168486021688860204618
:103F9000FFF7E8FF0020E0676067A06700BF84F8D4
:103FA000700000BF00BFE2E72DE9F84F04460E465F
:103FB00017469946606F20285DD106B117B90120D8
:103FC000BDE8F88F00BF94F87000012801D10220ED
:103FD000F6E7012084F8700000BF0020E067212090
:103FE0006067FCF71FFD8246A4F85070A4F8527079
:103FF000A068B0F5805F04D1206910B90025B046F3
:1040000002E035464FF0000800BF002084F8700041
:1040100000BF1DE05346002280212046CDF80090CD
:10402000FFF7B2FB08B10320CAE745B9B8F80000B2
:10403000C0F308002168886208F1020803E02878CC
:10404000216888626D1CB4F85200401EA4F852002A
:10405000B4F852000028DDD153460022402120460A
:10406000CDF80090FFF790FB08B10320A8E72020CF
:1040700060670020A4E70220A2E72DE9F84F04467C
:104080000E4617469A46A06F202871D106B117B97F
:104090000120BDE8F88F00BF94F87000012801D11D
:1040A0000220F6E7012084F8700000BF0020E067DE
:1040B0002220A067FCF7B6FC8346A4F85870A4F849
:1040C0005A7000BFA068B0F5805F0AD1206920B99E
:1040D00040F2FF10A4F85C0020E0FF20A4F85C0090
:1040E0001CE0A06848B9206918B9FF20A4F85C005A
:1040F00014E07F20A4F85C0010E0A068B0F1805FBD
:1041000009D1206918B97F20A4F85C0006E03F209F
:10411000A4F85C0002E00020A4F85C0000BFB4F842
:104120005C90A068B0F5805F04D1206910B90025CB
:10413000B04602E035464FF0000800BF002084F88A
:10414000700000BF21E05B46002220212046CDF810
:1041500000A0FFF719FB08B103209AE74DB92068CA
:10416000406A00EA0900A8F8000008F1020807E028
:1041700013E02068406A09F0FF01084028706D1CB8
:10418000B4F85A00401EA4F85A00B4F85A000028A7
:10419000D9D12020A06700207BE7022079E7416F7A
:1041A00021291BD1B0F8521061B90168096821F0CA
:1041B0008001026811600168096841F040010268ED
:1041C00011600BE0C16C097802689162C16C491CF6
:1041D000C164B0F85210491EA0F852107047426FE7
:1041E000212A1DD1B0F8522062B90268126822F06B
:1041F000800203681A600268126842F04002036895
:104200001A600DE0C16C0A88C2F3080203689A6262
:10421000C26C921CC264B0F85220521EA0F8522008
:10422000704710B50346586F202830D101B10AB944
:10423000012010BD00BF93F87000012801D10220B9
:10424000F7E7012083F8700000BFD964A3F850207D
:10425000A3F8522000205866D86721205867986834
:10426000B0F5805F04D1186910B9FE48586601E0C6
:10427000FD48586600BF002083F8700000BF186832
:10428000006840F080001C6820600020D1E7022018
:10429000CFE7704770B50446B4F85C60A06F222881
:1042A00025D12068406A85B2F0B22840616D08705F
:1042B000606D401C6065B4F85A00401EA4F85A00B6
:1042C000B4F85A00C8B92068006820F490702168DA
:1042D00008602068806820F0010021688860202044
:1042E000A067002020662046FCF7E5FA05E020687C
:1042F000806940F008002168886170BD2DE9F041B7
:104300000446B4F85C70A06F222825D12068406A6A
:1043100086B2656D06EA07002880606D801C6065C6
:10432000B4F85A00401EA4F85A00B4F85A00C8B9AC
:104330002068006820F49070216808602068806818
:1043400020F00100216888602020A06700202066FE
:104350002046FCF7B0FA05E02068806940F00800CC
:1043600021688861BDE8F08110B50346986F202868
:1043700065D101B10AB9012010BD00BF93F87000EA
:10438000012801D10220F7E7012083F8700000BF67
:104390005965A3F85820A3F85A200020186600BFDA
:1043A0009868B0F5805F0AD1186920B940F2FF1013
:1043B000A3F85C0020E0FF20A3F85C001CE09868F4
:1043C00048B9186918B9FF20A3F85C0014E07F20F1
:1043D000A3F85C0010E09868B0F1805F09D118691B
:1043E00018B97F20A3F85C0006E03F20A3F85C002A
:1043F00002E00020A3F85C0000BF0020D867222064
:1044000098671868806840F001001C68A060986890
:10441000B0F5805F04D1186910B99448186601E0BE
:104420009348186600BF002083F8700000BF18682A
:10443000006840F490701C68206000209CE7022017
:104440009AE770470168096821F490710268116069
:104450000168896821F0010102689160202181676B
:104460000021016670470168096821F0C0010268F7
:1044700011602021416770472DE9F0410546AC6B82
:10448000666FA76F2068806800F08000802807D1E1
:10449000212E05D10020A4F852002046FFF7E3FFAB
:1044A0002068806800F04000402807D1222F05D105
:1044B0000020A4F85A002046FFF7C4FFE06F40F048
:1044C0001000E0672046FFF7BCFFBDE8F0817047B1
:1044D00070B50446A56B2846FFF7F9FF70BD70471D
:1044E00070B50546AC6BE869B0F5807F0FD0002051
:1044F000A4F852002068806820F08000216888605D
:104500002068006840F040002168086002E0204612
:10451000FFF7E5FF70BD70B504460E461546606FA7
:10452000202849D106B10DB9012070BD00BF94F813
:104530007000012801D10220F7E7012084F8700003
:1045400000BFE664A4F85050A4F852500020E06781
:1045500021206067A06EF8B14648A16EC863464846
:10456000A16E08644548A16EC8640020A16E08656C
:10457000236803F128022B46E16CA06EFCF762FE73
:1045800050B11020E06700BF002084F8700000BF29
:10459000202060670120C8E740202168086200BF32
:1045A000002084F8700000BF2068806840F0800020
:1045B000216888600020B8E70220B6E7704770B530
:1045C0000446A56B2846FFF7F9FF70BD70B5054698
:1045D000AC6BE869B0F5807F16D00020A4F85A00D3
:1045E0002068006820F48070216808602068806876
:1045F00020F00100216888602068806820F0400079
:10460000216888602020A0672046FCF754F970BD1F
:1046100070B504460E461546A06F202864D106B139
:104620000DB9012070BD00BF94F87000012801D1C0
:104630000220F7E7012084F8700000BF6665A4F847
:1046400058500020E0672220A067E06E90B30C482D
:10465000E16EC8630B48E16E08640848E16EC86407
:10466000002011E0DF4100089F410008FD420008E2
:1046700095420008E1440008D1440008794400084C
:10468000CD450008BF450008E16E0865236803F1C9
:1046900024012B46626DE06EFCF7D4FD50B1102072
:1046A000E06700BF002084F8700000BF2020606732
:1046B0000120B7E7FFE700BF002084F8700000BFCB
:1046C0002068006840F48070216808602068806875
:1046D00040F00100216888602068806840F0400058
:1046E0002168886000209DE702209BE710B5014605
:1046F0004A6F8B6F00BF91F87000012801D1022032
:1047000010BD012081F8700000BF0868806800F0CB
:104710008000802807D1212A05D10868806820F010
:1047200080000C68A0600868806800F040004028A5
:1047300013D1222B11D10868006820F480700C6816
:1047400020600868806820F001000C68A06008689C
:10475000806820F040000C68A06000BF002081F855
:10476000700000BF00BFCBE7014600BF91F87000AA
:10477000012801D102207047012081F8700000BF9C
:10478000486F212805D10868806840F080000A68D9
:104790009060886F222814D108200A681062086887
:1047A000006840F480700A6810600868806840F013
:1047B00001000A6890600868806840F040000A685C
:1047C000906000BF002081F8700000BF00BFD2E7FA
:1047D00070B50446656FA66F2068806800F08000A1
:1047E000802819D1212D17D12068806820F0800001
:1047F00021688860A06E60B1A06EFCF772FD40B1C8
:10480000A06EFDF716F8202803D11020E0670320E2
:1048100070BD2046FFF727FE2068806800F040004A
:10482000402819D1222E17D12068806820F040003E
:1048300021688860E06E60B1E06EFCF752FD40B127
:10484000E06EFCF7F6FF202803D11020E06703207C
:10485000DEE72046FFF7F6FD0020D9E710B5044655
:104860002068006820F4F070216808602068806883
:1048700020F00100216888602068806800F08000D6
:10488000802817D12068806820F080002168886027
:10489000A06E78B10020A16E0865A06EFCF721FD26
:1048A00040B1A06EFCF7C5FF202803D11020E067BF
:1048B000032010BD2068806800F04000402817D118
:1048C0002068806820F0400021688860E06E78B140
:1048D0000020E16E0865E06EFCF703FD40B1E06E7C
:1048E000FCF7A7FF202803D11020E0670320E0E7B2
:1048F0000020A4F85200A4F85A000F202168086292
:104900002068806940F00800216888612020606785
:10491000A0670020E06700BFCBE710B50446206821
:10492000006820F0C000216808602068806800F0FE
:104930008000802817D12068806820F080002168DE
:104940008860A06E78B10020A16E0865A06EFCF7AB
:10495000C8FC40B1A06EFCF76CFF202803D11020EA
:10496000E067032010BD0020A4F8520020206067FB
:104970000020F7E710B504462068006820F4907026
:10498000216808602068806820F001002168886044
:104990002068806800F04000402817D120688068B7
:1049A00020F0400021688860E06E78B10020E16E60
:1049B0000865E06EFCF795FC40B1E06EFCF739FF4E
:1049C000202803D11020E067032010BD0020A4F8A8
:1049D0005A000F20216808622068806940F00800B2
:1049E000216888612020A0670020EEE7704770B53D
:1049F0000546AC6B0020E16E0865A06E18B1A06E94
:104A0000006D00B170BD0020A4F85200A4F85A0057
:104A1000E0670F20216808622068806940F0080084
:104A20002168886120206067A0672046FFF7DEFFCD
:104A300000BFE7E770B50546AC6B0020A16E0865C6
:104A4000E06E18B1E06E006D00B170BD0020A4F8FA
:104A50005200A4F85A00E0670F2021680862202065
:104A60006067A0672046FFF7C1FF00BFEDE770B5A4
:104A7000044601252068006820F4F0702168086071
:104A80002068806820F0010021688860A06E60B115
:104A90002068806800F08000802803D1F948A16E6A
:104AA000086502E00020A16E0865E06E60B1206834
:104AB000806800F04000402803D1F348E16E0865AB
:104AC00002E00020E16E08652068806800F0800048
:104AD000802810D12068806820F0800021688860DC
:104AE000A06E40B1A06EFCF755FC18B10020A16E7D
:104AF000086500E000252068806800F0400040283C
:104B000011D12068806820F0400021688860E06E44
:104B100048B1E06EFCF73EFC20B10020E16E086574
:104B2000012500E00025012D16D10020A4F8520037
:104B3000A4F85A0020666066E0670F2021680862CA
:104B40002068806940F00800216888612020606743
:104B5000A0672046FFF74AFF002070BD704770B580
:104B60000546AC6B0020A4F8520020206067204668
:104B7000FFF7F4FF70BD10B504462068006820F010
:104B8000C000216808602068806800F080008028EC
:104B90001CD12068806820F0800021688860A06EA9
:104BA00050B1BA48A16E0865A06EFCF7F3FBB0B136
:104BB000A06E016D884712E00020A4F852006066E4
:104BC000202060672046FFF7C9FF08E00020A4F816
:104BD00052006066202060672046FFF7BFFF00207C
:104BE00010BD704770B50546AC6B0020A4F85A00A4
:104BF0000F20216808622068806940F00800216861
:104C000088612020A0672046FFF7EBFF70BD10B53C
:104C100004462068006820F49070216808602068CD
:104C2000806820F00100216888602068806800F0BA
:104C30004000402825D12068806820F0400021688D
:104C40008860E06E50B19248E16E0865E06EFCF756
:104C5000A1FB10B3E06E016D88471EE00020A4F8B0
:104C60005A0060650F20216808622068806940F062
:104C70000800216888612020A0672046FFF7B1FF67
:104C80000BE00020A4F85A0060650F20216808623C
:104C90002020A0672046FFF7A4FF002010BD10B51C
:104CA00004462068006820F0400021680860202049
:104CB0006067002060662046FFF711FC10BD70475A
:104CC00070B50546AC6B0020A4F85A00A4F8520059
:104CD0002046FFF7B6FB70BD2DE9F047044620687B
:104CE000C569206806682068876840F60F0005EAF5
:104CF0000008B8F1000F0CD105F0200048B106F013
:104D0000200030B1206E10B12046216E8847BDE8EA
:104D1000F087B8F1000F7DD007F0010018B906F454
:104D200090700028F7D005F0010048B106F48070BB
:104D300030B1012021680862E06F40F00100E067B7
:104D400005F0020048B107F0010030B102202168EF
:104D50000862E06F40F00400E06705F0040048B12D
:104D600007F0010030B1042021680862E06F40F0D4
:104D70000200E06705F0080060B106F0200010B9FD
:104D800007F0010030B1082021680862E06F40F0B0
:104D90000800E06705F4006050B106F0806038B1AB
:104DA0004FF4006021680862E06F40F02000E06787
:104DB000E06F80B305F0200038B106F0200020B18C
:104DC000206E10B12046216E8847D4F87C90206870
:104DD000806800F04000402802D009F0280030B37D
:104DE0002046FFF72FFB2068806800F04000402835
:104DF00019D12068806820F0400021688860E06E4A
:104E000068B12448E16E0865E06EFCF7C3FA10B1A2
:104E1000E06E01E011E00FE0016D88470CE02046F4
:104E2000FFF70FFB08E02046FFF70BFB04E02046EE
:104E3000FFF707FB0020E06769E705F4801050B139
:104E400007F4800038B14FF48010216808622046D2
:104E5000FFF735FF5BE705F0800040B106F080000A
:104E600028B1606E10B12046616E88474FE705F0AB
:104E7000400088B106F0400070B12046FFF70FFFF8
:104E800045E70000354A0008EF4900085F4B00087D
:104E9000E54B0008C14C000800BF38E702685269C2
:104EA00002F07F420A4303685A6170470146486F27
:104EB00020281AD100BF91F87000012801D10220EA
:104EC0007047012081F8700000BF242048670868FF
:104ED000406840F400000A6850602020486700BF26
:104EE000002081F8700000BFEAE70220E8E70146F1
:104EF000486F20281AD100BF91F87000012801D115
:104F000002207047012081F8700000BF242048670C
:104F10000868406820F400000A6850602020486754
:104F200000BF002081F8700000BFEAE70220E8E738
:104F300010B5044600BF94F87000012801D102208A
:104F400010BD012084F8700000BF24206067206835
:104F5000006840F400502168086020206067204607
:104F6000FEF76CFCECE710B5044600BF94F8700047
:104F7000012801D1022010BD012084F8700000BF7B
:104F8000242060672068006820F4005021680860D1
:104F9000202060672046FEF751FCECE70168896934
:104FA00041F00401026891617047014600BF91F829
:104FB0007000012801D102207047012081F87000A3
:104FC00000BF242048670868006820F00C000A68C9
:104FD00010600868006840F008000A68106020202F
:104FE000486700BF002081F8700000BF00BFE3E702
:104FF000014600BF91F87000012801D102207047DE
:10500000012081F8700000BF24204867086800680C
:1050100020F00C000A6810600868006840F0040086
:105020000A6810602020486700BF002081F87000E7
:1050300000BF00BFE3E7014600BF91F87000012800
:1050400001D102207047012081F8700000BF2420A8
:1050500048670868806940F002000A689061202073
:10506000486700BF002081F8700000BF00BFE9E77B
:1050700001464B6F8A6F43EA020070470146C86FD2
:1050800070470000704770B504460E4615460CB9CF
:10509000012070BD94F8450028B9002084F8440030
:1050A00020460DF027FD04F10801206800F0AAF960
:1050B0003146A268206800F0FFF92946E36AD4E986
:1050C000010200F02AFAA168206850F8210040F09F
:1050D0000100A268216841F822000020D9E770474A
:1050E00010B504462046FFF7FAFF94E8070000F0E9
:1050F000C7F9002084F8450000BF84F8440000BFD1
:1051000010BD7047704730B504460D4600BF94F897
:105110004400012801D1022030BD012084F8440060
:1051200000BF022084F8450004E028781070521C6B
:105130006D1C5B1E002BF8D1012084F8450000BFD8
:10514000002084F8440000BF00BFE5E730B5044606
:105150000D4694F84500042801D1012030BD00BF60
:1051600094F84400012801D10220F7E7012084F8D7
:10517000440000BF022084F8450004E01078287045
:10518000521C6D1C5B1E002BF8D1012084F84500D9
:1051900000BF002084F8440000BF00BFDEE730B548
:1051A00004460D4600BF94F84400012801D10220B6
:1051B00030BD012084F8440000BF022084F845007F
:1051C00004E028881080921CAD1C5B1E002BF8D1D7
:1051D000012084F8450000BF002084F8440000BF8F
:1051E00000BFE5E730B504460D4694F845000428B5
:1051F00001D1012030BD00BF94F84400012801D145
:105200000220F7E7012084F8440000BF022084F860
:10521000450004E010882880921CAD1C5B1E002B0A
:10522000F8D1012084F8450000BF002084F8440034
:1052300000BF00BFDEE710B5044600BF94F844008D
:10524000012801D1022010BD012084F8440000BFD4
:10525000022084F8450004E008681060121D091D52
:105260005B1E002BF8D1012084F8450000BF002010
:1052700084F8440000BF00BFE5E710B5044694F889
:105280004500042801D1012010BD00BF94F844005E
:10529000012801D10220F7E7012084F8440000BF73
:1052A000022084F8450004E010680860121D091D02
:1052B0005B1E002BF8D1012084F8450000BF0020C0
:1052C00084F8440000BF00BFDEE72DE9F04104464A
:1052D0000D4616461F4600BF94F84400012802D12F
:1052E0000220BDE8F081012084F8440000BF0220C4
:1052F00084F845004148A16CC8634148A16CC8646A
:105300003B4632462946A06CFBF79CFF012084F8FF
:10531000450000BF002084F8440000BF00BFE0E764
:105320002DE9F04104460D4616461F4694F8450007
:10533000042802D10120BDE8F08100BF94F84400A8
:10534000012801D10220F6E7012084F8440000BFC3
:10535000022084F845002948A16CC8632848A16C44
:10536000C8643B462A463146A06CFBF76BFF012020
:1053700084F8450000BF002084F8440000BF00BF4F
:10538000D9E710B5044600BF94F84400012801D1C4
:10539000022010BD012084F8440000BFA1682068ED
:1053A00000F0DCF8012084F8450000BF002084F8FC
:1053B000440000BF00BFECE710B5044600BF94F8FE
:1053C0004400012801D1022010BD012084F84400CE
:1053D00000BF022084F84500A168206800F0C7F8EB
:1053E000042084F8450000BF002084F8440000BF7A
:1053F00000BFE9E7014691F84500704703510008F6
:105400000551000810B502460023086852F8203004
:10541000F7480340D1E901042043CC6820430C69DC
:1054200020434C6920438C692043CC6920430C6A9B
:1054300020434C6A20438C6A2043CC6A20430C6B87
:1054400020438C6B20434C6B20430343886808281F
:1054500001D143F04003086842F82030086BB0F5F2
:10546000801F05D1086818B110680C6B20431060CC
:10547000086818B110684C6B20431060002010BD04
:1054800010B5034653F8220020F0010043F8220033
:1054900022B943F2DB0043F8220003E043F2D200DA
:1054A00043F822006FF07044501C43F8204020461F
:1054B00041F82200002010BD30B5034614460022FA
:1054C000601C53F8202002F04042D1E9000540EA78
:1054D00005108D6840EA05208D8940EA0545088A57
:1054E000401E45EA0055087D801E45EA00608D6932
:1054F00028430243601C43F82020186800F4801001
:10550000B0F5801F07D1586820F47002088A401E49
:1055100042EA00525A60002030BD70B504461D4674
:105520000023B5F5804F13D154F82230B148034021
:10553000D1E9000640EA06108E6840EA06208E890E
:1055400040EA06408E693043034344F8223003E0CA
:105550006FF0704044F82200002070BD024652F8FF
:10556000210040F4805042F821000020704702469C
:1055700052F8210020F4805042F8210000207047AA
:1055800010B50246002313689B480340486840F06A
:1055900008008C682043CC6820430C6920434C6988
:1055A00040EA44208C6940EA443003431360002001
:1055B00010BD30B50346144600229A680022D1E996
:1055C000000540EA05200D8940EA05400D7B40EAD0
:1055D000056002439A60002030BD30B50346144692
:1055E0000022DA680022D1E9000540EA05200D8991
:1055F00040EA05400D7B40EA05600243DA60002086
:1056000030BD0246106820F00400106018201060C1
:10561000402050604FF0FC309060D0600020704718
:105620000246106840F040001060002070470246BB
:10563000106820F040001060002070472DE9F04114
:1056400005460E4690461C460027FBF7EBF9074639
:105650000AE0601C40B124B1FBF7E4F9C01BA04292
:1056600002D90320BDE8F0816868C0F380100028EB
:10567000EFD0686930600020F4E730B502460023BF
:1056800000240868012816D013686FF30E03D1E9CF
:1056900001052843CD6828430D6928434D692843F7
:1056A0008D692843CD6928430D6A28434D6A2843F4
:1056B0000343136019E0136823F4F843D1E90705A5
:1056C00028434D6A2843034354686FF30E04D1E91D
:1056D00001052843CD6828430D6928434D692843B7
:1056E0008D692843044313605460002030BD70B5B9
:1056F0000346154600220024012D1FD09A6802F0AF
:1057000070420868401E4E68761E40EA0616886899
:10571000401E46EA0026C868401E46EA0036088A4F
:10572000401E46EA0046888A401E46EA0056087E29
:10573000401E46EA006002439A6022E09A682F48C1
:105740000240C868401E0603888A401E46EA005090
:105750000243DC6804F070440868401E4E68761E00
:1057600040EA06168868401E46EA0026088A401E5F
:1057700046EA0046087E401E46EA006004439A60FE
:10578000DC60002070BD02464FF4347042F8210006
:105790006FF0704302F1080040F8213000201061E2
:1057A000506190617047024652F8210040F4007049
:1057B00042F8210000207047024652F8210020F4F0
:1057C000007042F821000020704718B50346002001
:1057D0000090D1E9000420438C68641E40EA441024
:1057E000CC6840EA4420009000981861002018BD61
:1057F0008004C0FF0000F0CF8101F0FFFF0F0FFF1A
:105800000246506940EA410050610020704702465C
:10581000106940EA411010610020704702460020E4
:1058200019B9936903F0060003E0936903F01803C4
:105830009808704710B50268FE4B98420ED0B0F140
:10584000804F0BD0FC4B984208D0FC4B984205D0BF
:10585000FB4B984202D0FB4B984203D122F07002DE
:105860004B681A43F34B984220D0B0F1804F1DD0C3
:10587000F14B98421AD0F14B984217D0F04B984216
:1058800014D0F04B984211D0EF4B98420ED0EF4B12
:1058900098420BD0EE4B984208D0EE4B984205D080
:1058A000ED4B984202D0ED4B984203D122F4407266
:1058B000CB681A4322F080034C6943EA0402026079
:1058C0008B68C3620B688362DA4B984202D0DD4B6F
:1058D000984201D10B6903630123436110BD7047F6
:1058E00010B504460CB9012010BD94F83D0028B94C
:1058F000002084F83C00204610F0C9FE022084F805
:105900003D00211D2068FFF795FF012084F83D0030
:105910000020E9E7704710B50446022084F83D00F6
:1059200000BF2068006A41F21111084050B9206898
:10593000006A8910084028B92068006820F001003A
:105940002168086000BF2046FFF7E4FF002084F8CC
:105950003D0000BF84F83C0000BF10BD014602209E
:1059600081F83D0008688068BD4B00EA0302062A02
:1059700008D0B2F5803F05D00868006840F001000B
:105980000B681860012081F83D0000207047014637
:10599000022081F83D0000BF0868006A41F2111240
:1059A000104050B90868006A9210104028B9086881
:1059B000006820F001000A68106000BF012081F833
:1059C0003D000020704701460868C06840F00100B3
:1059D0000B68D86008688068A14B00EA0302062AB9
:1059E00008D0B2F5803F05D00868006840F001009B
:1059F0000B6818600020704701460868C06820F0F6
:105A000001000A68D06000BF0868006A41F2111204
:105A1000104050B90868006A9210104028B9086810
:105A2000006820F001000A68106000BF0020704785
:105A3000704770B50446A56B012085F83D002846E7
:105A4000FFF7F6FF70BD704770B50446A56B0120E7
:105A500085F83D002846FFF7F6FF70BD704770B52A
:105A60000446A56B012085F83D00284610F033FE62
:105A700070BD2DE9F04104460F46154694F83D00EF
:105A8000022801D1BDE8F08194F83D00012805D13C
:105A90000FB905B1F6E7022084F83D007148216A8C
:105AA000C8637148216A0864AFF27900216AC8644A
:105AB000216801F12C022B463946206AFBF7C2FB14
:105AC00008B10120DEE72068C06840F480702168DA
:105AD000C86020688068624900EA0106062E08D086
